:020000040800F2
:100000000000012071280008B5240008B72400086A
:10001000B9240008BB240008BD240008000000002B
:10002000000000000000000000000000BF240008E5
:10003000C124000800000000C3240008C5240008F3
:10004000C1280008C1280008C1280008C1280008EC
:10005000C1280008C1280008C1280008C1280008DC
:10006000C1280008C1280008C1280008C1280008CC
:10007000C1280008C1280008C1280008C1280008BC
:10008000C1280008C1280008C1280008000000009D
:10009000000000000000000000000000C12800086F
:1000A000C1280008C1280008C1280008C12800088C
:1000B000C1280008C1280008C1280008C12800087C
:1000C000C1280008C1280008C1280008C12800086C
:1000D000C1280008C1280008C1280008000000004D
:1000E000C1280008C1280008C1280008000000003D
:1000F000000000000000000000000000C12800080F
:1001000000000000C1280008C1280008C12800081C
:1001100000000000000000000000000000000000DF
:10012000CD240008C1280008C1280008DD240008EB
:10013000C1280008000000000000000000000000CE
:10014000000000000000000000000000C1280008BE
:10015000C1280008C1280008C1280008C1280008DB
:10016000C1280008C12800080000000000000000AD
:10017000000000000000000000000000000000007F
:1001800000000000C128000800000000000000007E
:04019000C12800087A
:1001C00010B5054C237833B9044B13B10448AFF391
:1001D00000800123237010BDE00900200000000012
:1001E000D8AB000808B5034B1BB103490348AFF374
:1001F000008008BD00000000E4090020D8AB000822
:1002000081F0004102E000BF83F0004330B54FEAC7
:1002100041044FEA430594EA050F08BF90EA020F34
:100220001FBF54EA000C55EA020C7FEA645C7FEAC7
:10023000655C00F0E2804FEA5454D4EB5555B8BFEA
:100240006D420CDD2C4480EA020281EA030382EA5B
:10025000000083EA010180EA020281EA0303362DED
:1002600088BF30BD11F0004F4FEA01314FF4801CC0
:100270004CEA113102D0404261EB410113F0004FD2
:100280004FEA03334CEA133302D0524263EB430389
:1002900094EA050F00F0A780A4F10104D5F1200E27
:1002A0000DDB02FA0EFC22FA05F2801841F1000182
:1002B00003FA0EF2801843FA05F359410EE0A5F156
:1002C00020050EF1200E012A03FA0EFC28BF4CF087
:1002D000020C43FA05F3C01851EBE37101F000453D
:1002E00007D54FF0000EDCF1000C7EEB00006EEB4A
:1002F0000101B1F5801F1BD3B1F5001F0CD34908D4
:100300005FEA30004FEA3C0C04F101044FEA44522A
:1003100012F5800F80F09A80BCF1004F08BF5FEAB1
:10032000500C50F1000041EB045141EA050130BD91
:100330005FEA4C0C404141EB0101013C28BFB1F5A3
:10034000801FE9D291F0000F04BF01460020B1FAEE
:1003500081F308BF2033A3F10B03B3F120020CDAC1
:100360000C3208DD02F1140CC2F10C0201FA0CF09F
:1003700021FA02F10CE002F11402D8BFC2F1200C04
:1003800001FA02F120FA0CFCDCBF41EA0C019040BA
:10039000E41AA2BF01EB0451294330BD6FEA040403
:1003A0001F3C1CDA0C340EDC04F11404C4F12002EE
:1003B00020FA04F001FA02F340EA030021FA04F300
:1003C00045EA030130BDC4F10C04C4F1200220FA57
:1003D00002F001FA04F340EA0300294630BD21FA95
:1003E00004F0294630BD94F0000F83F4801306BF5B
:1003F00081F480110134013D4EE77FEA645C18BF4F
:100400007FEA655C29D094EA050F08BF90EA020FE5
:1004100005D054EA000C04BF1946104630BD91EADD
:10042000030F1EBF0021002030BD5FEA545C05D1E0
:100430004000494128BF41F0004130BD14F580041F
:100440003CBF01F5801130BD01F0004545F0FE4193
:1004500041F470014FF0000030BD7FEA645C1ABFC8
:10046000194610467FEA655C1CBF0B46024650EAFF
:10047000013406BF52EA033591EA030F41F400212B
:1004800030BD00BF90F0000F04BF0021704730B5B1
:100490004FF4806404F132044FF000054FF0000186
:1004A00050E700BF90F0000F04BF0021704730B547
:1004B0004FF4806404F1320410F0004548BF40421C
:1004C0004FF000013EE700BF42004FEAE2014FEA71
:1004D00031014FEA02701FBF12F07F4393F07F4F4C
:1004E00081F06051704732F07F4208BF704793F04F
:1004F0007F4F04BF41F40021704730B54FF4607462
:1005000001F0004521F000411CE700BF50EA010264
:1005100008BF704730B54FF000050AE050EA01020D
:1005200008BF704730B511F0004502D5404261EB7D
:1005300041014FF4806404F132045FEA915C3FF4BE
:10054000D8AE4FF003025FEADC0C18BF03325FEA5B
:10055000DC0C18BF033202EBDC02C2F1200300FA0C
:1005600003FC20FA02F001FA03FE40EA0E0021FA31
:1005700002F11444BDE600BF80F0004002E000BF7D
:1005800081F0004142001FBF5FEA410392EA030F7E
:100590007FEA226C7FEA236C6AD04FEA1262D2EBC8
:1005A0001363C1BFD218414048404140B8BF5B42CD
:1005B000192B88BF704710F0004F40F4000020F066
:1005C0007F4018BF404211F0004F41F4000121F07C
:1005D0007F4118BF494292EA030F3FD0A2F10102C6
:1005E00041FA03FC10EB0C00C3F1200301FA03F104
:1005F00000F0004302D5494260EB4000B0F5000F27
:1006000013D3B0F1807F06D340084FEA310102F1E5
:100610000102FE2A51D2B1F1004F40EBC25008BF97
:1006200020F0010040EA03007047490040EB000061
:10063000013A28BFB0F5000FEDD2B0FA80FCACF162
:10064000080CB2EB0C0200FA0CF0AABF00EBC2508F
:1006500052421843BCBFD0401843704792F0000F7D
:1006600081F4000106BF80F400000132013BB5E7D0
:100670004FEA41037FEA226C18BF7FEA236C21D046
:1006800092EA030F04D092F0000F08BF08467047AB
:1006900090EA010F1CBF0020704712F07F4F04D179
:1006A000400028BF40F00040704712F100723CBF8C
:1006B00000F50000704700F0004343F0FE4040F4B6
:1006C000000070477FEA226216BF08467FEA236374
:1006D0000146420206BF5FEA412390EA010F40F45F
:1006E000800070474FF0000304E000BF10F00043AB
:1006F00048BF40425FEA000C08BF704743F0964392
:1007000001464FF000001CE050EA010208BF7047AC
:100710004FF000030AE000BF50EA010208BF704733
:1007200011F0004302D5404261EB41015FEA010C48
:1007300002BF84460146002043F0B64308BFA3F140
:100740008053A3F50003BCFA8CF2083AA3EBC25322
:1007500010DB01FA02FC634400FA02FCC2F1200241
:10076000BCF1004F20FA02F243EB020008BF20F078
:100770000100704702F1200201FA02FCC2F12002DE
:1007800050EA4C0021FA02F243EB020008BF20EAD3
:10079000DC7070474FF0FF0C1CEAD0521EBF1CEA01
:1007A000D15392EA0C0F93EA0C0F6FD01A4480EAEF
:1007B000010C400218BF5FEA41211ED04FF00063D8
:1007C00043EA501043EA5111A0FB01310CF0004004
:1007D000B1F5000F3EBF490041EAD3715B0040EA2A
:1007E000010062F17F02FD2A1DD8B3F1004F40EBFA
:1007F000C25008BF20F00100704790F0000F0CF0CD
:10080000004C08BF49024CEA502040EA51207F3A90
:10081000C2BFD2F1FF0340EAC250704740F400006B
:100820004FF00003013A5DDC12F1190FDCBF00F05C
:1008300000407047C2F10002410021FA02F1C2F10A
:10084000200200FA02FC5FEA310040F1000053EAA6
:100850004C0308BF20EADC70704792F0000F00F0F4
:10086000004C02BF400010F4000F013AF9D040EAFA
:100870000C0093F0000F01F0004C02BF490011F48E
:10088000000F013BF9D041EA0C018FE70CEAD1538C
:1008900092EA0C0F18BF93EA0C0F0AD030F0004C0C
:1008A00018BF31F0004CD8D180EA010000F00040C0
:1008B000704790F0000F17BF90F0004F084691F07E
:1008C000000F91F0004F14D092EA0C0F01D14202B8
:1008D0000FD193EA0C0F03D14B0218BF084608D181
:1008E00080EA010000F0004040F0FE4040F40000CB
:1008F000704740F0FE4040F4400070474FF0FF0C5E
:100900001CEAD0521EBF1CEAD15392EA0C0F93EAA4
:100910000C0F69D0A2EB030280EA010C49024FEAF6
:10092000402037D04FF0805343EA111143EA1013AF
:100930000CF000408B4238BF5B0042F17D024FF467
:10094000000C8B4224BF5B1A40EA0C00B3EB510F42
:1009500024BFA3EB510340EA5C00B3EB910F24BF2B
:10096000A3EB910340EA9C00B3EBD10F24BFA3EBB0
:10097000D10340EADC001B0118BF5FEA1C1CE0D178
:10098000FD2A3FF650AF8B4240EBC25008BF20F02B
:10099000010070470CF0004C4CEA50207F32C2BF7F
:1009A000D2F1FF0340EAC250704740F400004FF01C
:1009B0000003013A37E792F0000F00F0004C02BF4D
:1009C000400010F4000F013AF9D040EA0C0093F017
:1009D000000F01F0004C02BF490011F4000F013B71
:1009E000F9D041EA0C0195E70CEAD15392EA0C0FD9
:1009F00008D142027FF47DAF93EA0C0F7FF470AF11
:100A0000084676E793EA0C0F04D14B023FF44CAF53
:100A100008466EE730F0004C18BF31F0004CCAD1E8
:100A200030F000427FF45CAF31F000437FF43CAF24
:100A30005FE700BF4FEA4002B2F1FE4F0FD34FF025
:100A40009E03B3EB12620DD94FEA002343F000433B
:100A500010F0004F23FA02F018BF404270474FF0E9
:100A60000000704712F1610F01D1420205D110F070
:100A7000004008BF6FF0004070474FF00000704723
:100A800053B94AB9002908BF00281CBF4FF0FF31F5
:100A90004FF0FF3000F074B9ADF1080C6DE904CEF1
:100AA00000F006F8DDF804E0DDE9022304B0704749
:100AB0002DE9F047089E0D4604468846002B4DD18F
:100AC0008A42944668D9B2FA82F252B101FA02F32C
:100AD000C2F1200120FA01F10CFA02FC41EA0308FC
:100AE00094404FEA1C45210CB8FBF5FE1FFA8CF729
:100AF00005FB1E8341EA03430EFB07F199420BD924
:100B00001CEB03030EF1FF3080F01E81994240F28E
:100B10001B81AEF1020E63445B1AA4B2B3FBF5F085
:100B200005FB103344EA034400FB07F7A7420AD948
:100B30001CEB040400F1FF3380F00881A74240F26F
:100B4000058164440238E41B40EA0E4000211EB1D6
:100B5000D4400023C6E90043BDE8F0878B4208D9A2
:100B6000002E00F0EE800021C6E900050846BDE831
:100B7000F087B3FA83F100294AD1AB4202D3824213
:100B800000F2F980841A65EB030301209846002ED9
:100B9000E2D0C6E90048DFE702B9FFDEB2FA82F22E
:100BA000002A40F09180A1EB0C054FEA1C471FFA88
:100BB0008CFE0121B5FBF7F307FB1350250C45EA2A
:100BC00000450EFB03F0A84208D91CEB050503F114
:100BD000FF3802D2A84200F2CB8043462D1AA4B2BD
:100BE000B5FBF7F007FB105544EA05440EFB00FE89
:100BF000A64508D91CEB040400F1FF3502D2A64536
:100C000000F2BB802846A4EB0E0440EA03409EE7B6
:100C1000C1F120078B4022FA07FC4CEA030C20FAB2
:100C200007F405FA01F31C43FD404FEA1C4900FAA2
:100C300001F3B5FBF9F8200C1FFA8CFE09FB1855DF
:100C400040EA054508FB0EF0A84202FA01F20BD972
:100C50001CEB050508F1FF3A80F08880A84240F2BD
:100C60008580A8F1020865442D1AA4B2B5FBF9F0FD
:100C700009FB105544EA054500FB0EFEAE4508D9B8
:100C80001CEB050500F1FF346CD2AE456AD9023881
:100C9000654440EA0840A0FB0294A5EB0E05A5427E
:100CA000C846A64656D353D05EB1B3EB080265EBF7
:100CB0000E0505FA07F722FA01F3CD401F43C6E9F6
:100CC00000750021BDE8F087C2F1200320FA03F18E
:100CD0000CFA02FC25FA03F395400D434FEA1C473A
:100CE0001FFA8CFEB3FBF7F107FB11302B0C43EA24
:100CF000004301FB0EF0984204FA02F408D91CEB01
:100D0000030301F1FF382FD298422DD902396344F1
:100D10001B1AADB2B3FBF7F007FB103345EA0345EE
:100D200000FB0EF3AB4208D91CEB050500F1FF38C0
:100D300016D2AB4214D902386544ED1A40EA01419B
:100D400038E73146304607E78646E5E61846FAE6D4
:100D50004B45A9D2B9EB020864EB0C0E0138A3E7AE
:100D60004046EAE7204694E74146D1E7D0467BE794
:100D7000023B654432E7084609E76444023842E72B
:100D8000704700BF000000000000000000000000ED
:100D900001F0FF01102A2BDB10F0070F08D010F82C
:100DA000013B013A8B422DD010F0070F42B3F6D130
:100DB000F0B441EA012141EA014122F007047FF049
:100DC00000070023F0E80256083C85EA010586EAA0
:100DD000010685FA47F5A3FA87F586FA47F6A5FADC
:100DE00087F68EB9EED1F0BC01F0FF0102F00702E8
:100DF00032B110F8013B013A83EA010313B1F8D193
:100E00000020704701387047002D06BF3546033873
:100E1000073815F0010F07D1013015F4807F02BFAC
:100E2000013015F4C03F0130F0BC0138704700BFFD
:100E3000844641EA000313F003036DD1403A41D3E5
:100E400051F8043B40F8043B51F8043B40F8043BA4
:100E500051F8043B40F8043B51F8043B40F8043B94
:100E600051F8043B40F8043B51F8043B40F8043B84
:100E700051F8043B40F8043B51F8043B40F8043B74
:100E800051F8043B40F8043B51F8043B40F8043B64
:100E900051F8043B40F8043B51F8043B40F8043B54
:100EA00051F8043B40F8043B51F8043B40F8043B44
:100EB00051F8043B40F8043B51F8043B40F8043B34
:100EC000403ABDD2303211D351F8043B40F8043BD4
:100ED00051F8043B40F8043B51F8043B40F8043B14
:100EE00051F8043B40F8043B103AEDD20C3205D3E4
:100EF00051F8043B40F8043B043AF9D2043208D0DC
:100F0000D2071CBF11F8013B00F8013B01D30B884D
:100F100003806046704700BF082A13D38B078DD02B
:100F200010F003038AD0C3F10403D21ADB071CBFFD
:100F300011F8013B00F8013B80D331F8023B20F867
:100F4000023B7BE7043AD9D3013A11F8013B00F8A0
:100F5000013BF9D20B7803704B7843708B78837028
:100F60006046704700000000000000000000000024
:100F70000000000000000000000000000000000071
:100F800090F800F06DE9024520F007016FF0000CC9
:100F900010F0070491F820F040F049804FF0000471
:100FA0006FF00700D1E9002391F840F000F108004C
:100FB00082FA4CF2A4FA8CF283FA4CF3A2FA8CF384
:100FC0004BBBD1E9022382FA4CF200F10800A4FAEB
:100FD0008CF283FA4CF3A2FA8CF3E3B9D1E904233F
:100FE00082FA4CF200F10800A4FA8CF283FA4CF376
:100FF000A2FA8CF37BB9D1E9062301F1200182FA30
:101000004CF200F10800A4FA8CF283FA4CF3A2FA35
:101010008CF3002BC6D0002A04BF04301A4612BA43
:10102000B2FA82F2FDE8024500EBD2007047D1E946
:10103000002304F00305C4F100004FEAC50514F0D5
:10104000040F91F840F00CFA05F562EA05021CBFA6
:1010500063EA050362464FF00004A9E770B54FF05C
:10106000FF0C4CF4E06C1CEA11541DBF1CEA135534
:1010700094EA0C0F95EA0C0F00F0DEF82C4481EA9C
:10108000030621EA4C5123EA4C5350EA013518BFBC
:1010900052EA033541F4801143F4801338D0A0FBA9
:1010A00002CE4FF00005E1FB02E506F00042E0FB56
:1010B00003E54FF00006E1FB03569CF0000F18BF5C
:1010C0004EF0010EA4F1FF04B6F5007F64F5407404
:1010D00004D25FEA4E0E6D4146EB060642EAC62197
:1010E00041EA55514FEAC52040EA5E504FEACE2E04
:1010F000B4F1FD0C88BFBCF5E06F1ED8BEF1004F07
:1011000008BF5FEA500E50F1000041EB045170BD82
:1011100006F0004646EA010140EA020081EA0301C6
:10112000B4EB5C04C2BFD4EB0C0541EA045170BDC2
:1011300041F480114FF0000E013C00F3AB8014F13C
:10114000360FDEBF002001F0004170BDC4F1000485
:10115000203C35DA0C341BDC04F11404C4F1200506
:1011600000FA05F320FA04F001FA05F240EA020061
:1011700001F0004221F0004110EBD37021FA04F697
:1011800042EB06015EEA430E08BF20EAD37070BD51
:10119000C4F10C04C4F1200500FA04F320FA05F0B0
:1011A00001FA04F240EA020001F0004110EBD370B2
:1011B00041F100015EEA430E08BF20EAD37070BD22
:1011C000C4F1200500FA05F24EEA020E20FA04F3FB
:1011D00001FA05F243EA020321FA04F001F00041AA
:1011E00021FA04F220EA020000EBD3705EEA430E1B
:1011F00008BF20EAD37070BD94F0000F0FD101F04A
:101200000046400041EB010111F4801F08BF013C82
:10121000F7D041EA060195F0000F18BF704703F0C0
:101220000046520043EB030313F4801F08BF013D47
:10123000F7D043EA0603704794EA0C0F0CEA135503
:1012400018BF95EA0C0F0CD050EA410618BF52EABD
:101250004306D1D181EA030101F000414FF00000C3
:1012600070BD50EA410606BF1046194652EA4306D1
:1012700019D094EA0C0F02D150EA013613D195EA45
:101280000C0F05D152EA03361CBF104619460AD18D
:1012900081EA030101F0004141F0FE4141F4700197
:1012A0004FF0000070BD41F0FE4141F4780170BD87
:1012B00070B54FF0FF0C4CF4E06C1CEA11541DBFEC
:1012C0001CEA135594EA0C0F95EA0C0F00F0A7F8EE
:1012D000A4EB050481EA030E52EA03354FEA01311B
:1012E00000F088804FEA03334FF0805545EA13132E
:1012F00043EA12634FEA022245EA111545EA1065F6
:101300004FEA00260EF000419D4208BF964244F18C
:10131000FD0404F5407402D25B084FEA3202B61AAB
:1013200065EB03055B084FEA32024FF480104FF47F
:10133000002CB6EB020E75EB030E22BFB61A7546F3
:1013400040EA0C005B084FEA3202B6EB020E75EB86
:10135000030E22BFB61A754640EA5C005B084FEAEE
:101360003202B6EB020E75EB030E22BFB61A7546BB
:1013700040EA9C005B084FEA3202B6EB020E75EBC6
:10138000030E22BFB61A754640EADC0055EA060E87
:1013900018D04FEA051545EA16754FEA06164FEACA
:1013A000C30343EA52734FEAC2025FEA1C1CC0D176
:1013B00011F4801F0BD141EA00014FF000004FF003
:1013C000004CB6E711F4801F04BF01430020B4F1C4
:1013D000FD0C88BFBCF5E06F3FF6AFAEB5EB030C7C
:1013E00004BFB6EB020C5FEA500C50F1000041EB79
:1013F000045170BD0EF0004E4EEA113114EB5C0446
:10140000C2BFD4EB0C0541EA045170BD41F4801118
:101410004FF0000E013C90E645EA060E8DE60CEA20
:10142000135594EA0C0F08BF95EA0C0F3FF43BAF3D
:1014300094EA0C0F0AD150EA01347FF434AF95EAF4
:101440000C0F7FF425AF104619462CE795EA0C0FD8
:1014500006D152EA03353FF4FDAE1046194622E7A5
:1014600050EA410618BF52EA43067FF4C5AE50EA7F
:1014700041047FF40DAF52EA43057FF4EBAE12E76F
:101480004FF0FF3C06E000BF4FF0010C02E000BF50
:101490004FF0010C4DF804CD4FEA410C7FEA6C5C33
:1014A0004FEA430C18BF7FEA6C5C1BD001B050EAD6
:1014B000410C0CBF52EA430C91EA030F02BF90EAC1
:1014C000020F0020704710F1000F91EA030F58BF80
:1014D000994208BF90422CBFD8176FEAE37040F0E2
:1014E000010070474FEA410C7FEA6C5C02D150EA80
:1014F000013C07D14FEA430C7FEA6C5CD6D152EA3B
:10150000033CD3D05DF8040B704700BF84461046FF
:1015100062468C461946634600E000BF01B5FFF7FE
:10152000B7FF002848BF10F1000F01BD4DF808EDCE
:10153000FFF7F4FF0CBF012000205DF808FB00BF9F
:101540004DF808EDFFF7EAFF34BF012000205DF8F9
:1015500008FB00BF4DF808EDFFF7E0FF94BF012046
:1015600000205DF808FB00BF4DF808EDFFF7CEFF47
:1015700094BF012000205DF808FB00BF4DF808ED86
:10158000FFF7C4FF34BF012000205DF808FB00BF57
:101590004FEA410C7FEA6C5C02D150EA013C0AD16F
:1015A0004FEA430C7FEA6C5C02D152EA033C02D161
:1015B0004FF0000070474FF0010070474FEA4102C2
:1015C00012F5001215D211D56FF47873B3EB625295
:1015D00012D94FEAC12343F0004343EA505311F0BC
:1015E000004F23FA02F018BF404270474FF000004E
:1015F000704750EA013005D111F0004008BF6FF08C
:10160000004070474FF00000704700BF10B5064C17
:1016100001228021204601F085FF01224021204641
:1016200001F080FF10BD00BF0004024010B582B081
:101630008DF807000C4C00221021204601F072FFAB
:1016400000220421204601F06DFF4FF0FF330122FC
:101650000DF10701054802F06AFC01221021204625
:1016600001F060FF02B010BD00000240E017002052
:1016700010B582B08DF807000C4C002210212046D6
:1016800001F050FF01220421204601F04BFF4FF0F2
:10169000FF3301220DF10701054802F048FC012249
:1016A0001021204601F03EFF02B010BD00000240B4
:1016B000E017002070B506460D46194C0022102197
:1016C000204601F02FFF01220421204601F02AFFCD
:1016D0000DE03146134802F007FD124B9B6C93F866
:1016E0003530DBB2012BF8D1A4B226442D1B85B1D5
:1016F0004FF6FF74AC4228BF2C46A2B20A4B1B889F
:10170000AB42E6D94FF0FF333146064802F00FFCFA
:10171000EAE701221021024801F004FF70BD00BF7A
:1017200000000240E0170020080000202DE9F041F1
:1017300082B007460D4616461C46DFF86C80002234
:101740001021404601F0EEFE2A20FFF76FFF3B0A12
:101750008DF804308DF80570330A8DF806308DF859
:10176000076004210DEB0100FFF7A4FF2B20FFF71A
:101770005DFF2B0A8DF804308DF80550230A8DF893
:1017800006308DF8074004210DEB0100FFF792FFB2
:101790002C20FFF74BFF01221021404601F0C2FE32
:1017A00002B0BDE8F08100BF0000024010B5044661
:1017B0003620FFF73BFF032C06D8DFE804F00206D3
:1017C0000A0EC020FFF754FF10BDA020FFF750FF06
:1017D000FAE70020FFF74CFFF6E76020FFF748FF2D
:1017E000F2E711B903685A637047042904D0082945
:1017F00005D003681A64704703689A6370470368EA
:10180000DA63704770B50646EF2340F23F120021BD
:101810000846FFF78BFF002210210D4801F082FEE1
:1018200000240DE00B4D4FF448623146284603F08A
:1018300075FA4FF448612846FFF73CFF0134A4B223
:101840002F2CEFD901221021014801F06BFE70BD51
:1018500000000240FC090020B0F5A07F1FD210B5A7
:1018600082B01446EF2901D902B010BD0B460246E2
:10187000FFF75CFF230A8DF804308DF80540084C13
:1018800000221021204601F04DFE022101A8FFF7A1
:1018900011FF01221021204601F044FEE4E77047C9
:1018A000000002402DE9F04F83B00F4616461D465A
:1018B000BDF830B0A3EB0108B8F1000FB8BFC8F114
:1018C0000008A2EB0009B9F1000FB8BFC9F1000987
:1018D000C84503DC15461E4607460846AF4205D8F4
:1018E0003346064618462B463D461F467C1BA3B290
:1018F0000093A0EB060ABAF1000FB8BFCAF1000AC4
:10190000C4F3C03303FA84F46410864221D34FF049
:10191000FF3301930CE05A4631462846FFF79CFFFF
:10192000A4EB0A04A3B224B2002C0BDB0135ADB248
:10193000BD4211D8C845EEDD5A4629463046FFF76C
:101940008BFFEDE7019A1644B6B2009A13441CB21D
:10195000ECE701230193EBE703B0BDE8F08F000053
:101960002DE9F04383B007460D4614461E46BDF8E8
:101970002880DFF85C9000221021484601F0D2FD5B
:10198000CDF800802B46224629463846FFF78AFFCD
:10199000CDF8008033463A4629463846FFF782FFA5
:1019A000CDF800803346224631463846FFF77AFFAD
:1019B000CDF800803346224629462046FFF772FFC5
:1019C00001221021484601F0ADFD03B0BDE8F083CF
:1019D0000000024010B5044600221021074801F023
:1019E000A1FD44B12120FFF721FE0122102103486F
:1019F00001F098FD10BD2020F5E700BF0000024077
:101A000010B588B04FF448620021524803F086F9BF
:101A10000A2000F0A9FF504C00220821204601F0C6
:101A200081FD0A2000F0A0FF01220821204601F0DC
:101A300079FD142000F098FF1120FFF7F7FD7820C2
:101A400000F092FF3620FFF7F1FD0020FFF710FEB7
:101A50003A20FFF7EBFD0520FFF70AFEB220FFF763
:101A6000E5FD3E4B93E8030000908DF8041005213E
:101A70006846FFF71FFE0120FFF798FEB720FFF72B
:101A8000D5FD3520FFF7F4FDBB20FFF7CFFD282063
:101A9000FFF7EEFDC020FFF7C9FD2C20FFF7E8FDA2
:101AA000C220FFF7C3FD0120FFF7E2FDC320FFF7CF
:101AB000BDFD0B20FFF7DCFDC420FFF7B7FD2020A4
:101AC000FFF7D6FDC620FFF7B1FD0F20FFF7D0FDD1
:101AD000D020FFF7ABFDA420FFF7CAFDA120FFF740
:101AE000C7FDE020FFF7A2FDEC461D4C0FCCACE893
:101AF0000F0094E80F00ACE80700ACF800301E219E
:101B00006846FFF7D7FDE120FFF790FD154B6C46C7
:101B10000FCB07C423800E216846FFF7CBFD2120A1
:101B2000FFF784FD1120FFF781FD1320FFF77EFDF5
:101B30002920FFF77BFD322000F016FF0020FFF781
:101B400061FE0020FFF746FF0C21074802F020FE4F
:101B500008B010BDFC09002000000240F0AB0008F6
:101B600044BF000864BF0008EC18002082B02DE9D3
:101B7000F04F83B004460E4693460D93BDF83C806B
:101B8000BDF8407000221021244801F0CBFC9DF8E4
:101B900034502A1992B29DF835A00AEB06039BB285
:101BA000013B013A9BB292B231462046FFF7BEFD9F
:101BB0004FF000091DE03B0A8DF804308DF80570E8
:101BC000022101A8FFF776FD0134A5420FD906FADC
:101BD00004F313F4004FEED04FEA18238DF80430CD
:101BE0008DF80580022101A8FFF764FDECE709F1FB
:101BF0000109CA4508D9ABF120030AFB03930E9AE9
:101C000032F813600024E0E701221021034801F0BC
:101C100089FC03B0BDE8F04F02B0704700000240FD
:101C200082B02DE9F04385B006460D4617460D9368
:101C3000BDF83C90BDF8408000221021184801F00A
:101C400071FC10E0013700260DE0CDF80880CDF8DA
:101C500004900E9B00930D9B29463046FFF786FFAC
:101C60003444A6B201373A7882B19DF83440331932
:101C7000B3F5A07FE9DB9DF835301D44ADB22B44B0
:101C8000EF2B03DC202ADDD00026DEE70122102125
:101C9000034801F047FC05B0BDE8F04302B07047CF
:101CA0000000024000B585B0002300930193029329
:101CB00003931C481C4A02604FF4803242608360E8
:101CC00001220261037680F82030C36217498162E5
:101CD000C3600221C16180F83030426100F0F2FE41
:101CE000B0B90623009301230193002302936946B0
:101CF0000C4800F0F7FF70B908230093022301930A
:101D00006946084800F0EEFF40B905B05DF804FBF5
:101D100000F08AF9E5E700F087F9EDE700F084F9D3
:101D2000F3E700BF7C160020002001400100000FF7
:101D300030B589B00023039304930593069307936A
:101D4000026803F1804303F590339A4201D009B051
:101D500030BD0024009403F58C335A6C42F4807239
:101D60005A645A6C02F480720092009A01941A6BC1
:101D700042F001021A631A6B02F001020192019A09
:101D800002941A6B42F002021A631B6B03F0020307
:101D90000293029B622303930325049503A905483C
:101DA00001F0E0FA03950495059403A9024801F0B7
:101DB000D9FACCE7000002400004024010B582B01E
:101DC000002401940D4B1A6B42F480021A631B6BC2
:101DD00003F480030193019B22462146382001F041
:101DE0005FF8382001F094F8224621463B2001F0AC
:101DF00057F83B2001F08CF802B010BD00380240CB
:101E00002DE9F0418AB000240594069407940894C3
:101E100009940094464B1A6B42F004021A631A6B41
:101E200002F004020092009A01941A6B42F08002C0
:101E30001A631A6B02F080020192019A02941A6BE3
:101E400042F001021A631A6B02F001020292029A36
:101E500003941A6B42F002021A631A6B02F0020238
:101E60000392039A04941A6B42F008021A631B6BE4
:101E700003F008030493049B2E4F22464FF40051B5
:101E8000384601F04FFBDFF8B080224649F29C0152
:101E9000404601F047FB294D22464FF48E5128461B
:101EA00001F040FB4FF4005305930126069607947A
:101EB000089405A9384601F055FA40F23F130593FE
:101EC0000694079405A9384601F04CFA49F29C03A0
:101ED000059306960794089405A9404601F042FA36
:101EE00040F2046305930694079405A9284601F07F
:101EF00039FA4FF48853059306960794089405A978
:101F0000284601F02FFA042305930694079405A9A7
:101F10000B4801F027FAC023059306960794032384
:101F2000089305A9284601F01DFA0AB0BDE8F08122
:101F30000038024000080240000002400004024055
:101F4000000C024008B50B480B4B03600B4B436081
:101F500000238360C3604FF4804202614361836168
:101F6000C361036201F0E4FA00B908BD00F05CF857
:101F7000FBE700BFC4160020005C0040A086010003
:101F80002DE9F04188B00023039304930593069351
:101F900007930268204B9A4202D008B0BDE8F08156
:101FA000002500951D4C236B43F004032363236B32
:101FB00003F004030093009B0195236B43F001039E
:101FC0002363236B03F001030193019B4FF4007320
:101FD00003934FF01208CDF81080032706970426CC
:101FE000079603A90E4801F0BDF94FF480730393DF
:101FF000CDF8108005950697079603A9094801F0CA
:10200000B1F90295236C43F400032364236C03F4B9
:1020100000030293029BC0E7005C004000380240CE
:10202000000802400000024072B6FEE700B595B01D
:102030003022002108A802F071FE002303930493CC
:102040000593069307930193204A116C41F0805148
:102050001164126C02F080520192019A02931C4AA0
:10206000136823F4404343F400431360136803F4FC
:1020700040430293029B012308934FF4803309935A
:1020800002230E934FF480030F93192310934FF400
:10209000FA73119304231293139308A801F026FBFB
:1020A00080B90F23039302210491002305934FF479
:1020B000A0520692079303A801F066FD20B915B05F
:1020C0005DF804FBFFF7B0FFFFF7AEFF00380240FA
:1020D0000070004030B58BB000F01AFCFFF7A6FF8F
:1020E000FFF78EFEFFF76AFE00F098F800F0A4FA02
:1020F00000F016FB02F094FD00F0B2F800F02AFBAD
:10210000FFF7D0FDFFF71EFF00F0CAF8FFF77EFAD9
:10211000FFF776FC63220C213948FFF762FB6AE087
:102120000134012C11DC374D284600F0F7FC4FF04C
:10213000FF31284600F076FD0028F1D1284600F056
:10214000CDFD314B43F82400EAE7002405940694C2
:102150002FE02D4B53F82400FEF7C4FA2B49FEF76D
:10216000CDFB2B49FEF716FB0546FEF7ADF9CDE991
:102170000001284A0A2107A802F022FE264BC4EBE0
:102180000411490089B2002202924FF6FF720192B7
:102190005A6800921B6807AA0A20FFF741FD2846EB
:1021A000FEF748FC2F380AAB03EB840343F8140C0A
:1021B0000134012CCDDD059B002B1EDB069B002B83
:1021C00001DA5B420693BDF81840BDF814504FF495
:1021D000784300932B46224696210846FFF7C0FB22
:1021E000462000F0C1FB002300932B462246962197
:1021F0000846FFF7B5FB002493E75B420593DDE754
:10220000EC1800207C1600201817002000007A45EA
:102210000000C84274BF00080000002008B50E4846
:102220000E4B03604FF48273436000238360C360EE
:102230000222026143614FF400728261C361036252
:10224000436283620A23C36201F012FE00B908BD33
:10225000FFF7EAFEFBE700BFE01700200030014077
:1022600008B50D480D4B03604FF4827343600023A3
:102270008360C360036143614FF400728261C36194
:102280000362436283620A23C36201F0F1FD00B975
:1022900008BDFFF7C9FEFBE73818002000380040F2
:1022A00008B50D480D4B03604FF482734360002363
:1022B0008360C360036143614FF400728261C36154
:1022C0000362436283620A23C36201F0D1FD00B955
:1022D00008BDFFF7A9FEFBE790180020003C004076
:1022E00030B58DB000230793089309930A930B939D
:1022F0000368584A934208D0574A934261D0574ADC
:10230000934200F082800DB030BD04460025019557
:10231000534B5A6C42F480525A645A6C02F4805205
:102320000192019A02951A6B42F002021A631B6B2A
:1023300003F002030293029B3823079302230893BE
:1023400003230A9305230B9307A9464801F00AF8D3
:102350004548464B03604FF0C06343608560C560ED
:102360004FF48063036145618561C5614FF440337B
:102370000362456200F06CFEE8B93B4BE3649C638A
:102380003B483C4B03604FF0C06343604023836095
:102390000023C3604FF48062026143618361C361C3
:1023A0004FF440320262436200F052FE30B9304BCB
:1023B000A3649C63A7E7FFF737FEDEE7FFF734FE71
:1023C000F5E700210391264B1A6C42F480421A640F
:1023D0001A6C02F480420392039A04911A6B42F041
:1023E00002021A631B6B03F002030493049B4FF475
:1023F000604307930223089303230A9305230B9357
:1024000007A9184800F0AEFF7DE700210591144BA5
:102410001A6C42F400421A641A6C02F400420592EB
:10242000059A06911A6B42F004021A631B6B03F0C3
:1024300004030693069B4FF4E0530793022308938B
:1024400003230A9306230B9307A90B4800F08AFF86
:1024500059E700BF0030014000380040003C004018
:10246000003802400004024020170020106402409F
:1024700080170020586402400008024082B000210A
:1024800000910B4B5A6C42F480425A645A6C02F42D
:1024900080420092009A01911A6C42F080521A64B4
:1024A0001B6C03F080530193019B02B0704700BF87
:1024B00000380240FEE7FEE7FEE7FEE7FEE7704772
:1024C0007047704708B500F03DFA08BD08B50248EE
:1024D00000F05AFE08BD00BF2017002008B50248D2
:1024E00000F052FE08BD00BF801700200120704799
:1024F00008B502F0E9FB162303604FF0FF3008BD7A
:1025000008B54FF0FF31FFF7F3FFFEE770B50C465B
:102510001646002506E0AFF30080214601F8010BC6
:1025200001350C46B542F6DB304670BD70B50C4641
:102530001646002504E014F8010B00F089F9013576
:10254000B542F8DB304670BD4FF0FF3070474FF4B6
:1025500000534B60002070470120704700207047F7
:1025600010B503460C4A0D490D48006840B10C48AF
:1025700000680344521A934206D8094A136010BDFA
:102580000748084C0460F2E702F09EFB0C2303604E
:102590004FF0FF30F3E700BF00000120000400000F
:1025A000E8180020201A0020704700000268094B3C
:1025B0009A4200D0704782B000230193064B5A6CB8
:1025C00042F001025A645B6C03F001030193019B2A
:1025D00002B07047000001400038024000B587B0EB
:1025E00000230193029303930493059302680F4B16
:1025F0009A4202D007B05DF804FB002300930C4B15
:102600001A6B42F001021A631B6B03F00103009383
:10261000009B4FF40063019302230293012305936F
:1026200001A9044800F09EFEE4E700BF000001405D
:10263000003802400000024010B596B00024129409
:102640001394149415941094119409940A940B946F
:102650000C940D940E940F942022214601A802F0B0
:102660005DFB2D482D4B03600B2343608460632387
:10267000C36004614461846101F0F8FE002838D130
:102680004FF48053129312A9234801F0F3FF00285E
:1026900032D1214801F016FF002830D100231093D9
:1026A000119310A91C4802F0EBF858BB6023099362
:1026B00032230A9300230B930D930E930F930C2256
:1026C00009A9154801F05CFFF8B9002301930293B2
:1026D0000393049305934FF400520692089301A9C3
:1026E0000D4802F00BF998B90B48FFF777FF16B0C9
:1026F00010BDFFF799FCC3E7FFF796FCC9E7FFF7AA
:1027000093FCCBE7FFF790FCD0E7FFF78DFCDCE70D
:10271000FFF78AFCE8E700BFEC180020000001404A
:1027200008B50A480A4B03604FF4E13343600023C5
:102730008360C36003610C2242618361C36102F064
:10274000D3F900B908BDFFF76FFCFBE7341900208F
:102750000010014008B50A480A4B03604FF4E1330A
:10276000436000238360C36003610C224261836184
:10277000C36102F0B9F900B908BDFFF755FCFBE7EA
:10278000781900200014014000B58BB00023059398
:1027900006930793089309930368284A934205D048
:1027A000274A934226D00BB05DF804FB002101912B
:1027B000244B5A6C42F010025A645A6C02F0100218
:1027C0000192019A02911A6B42F001021A631B6B8B
:1027D00003F001030293029B4FF4C06305930223AD
:1027E0000693032308930723099305A9164800F0CD
:1027F000B9FDD8E700210391124B5A6C42F0200238
:102800005A645A6C02F020020392039A04911A6BE4
:1028100042F004021A631B6B03F004030493049B4D
:10282000C0230593022306930323089308230993E7
:1028300005A9064800F096FDB5E700BF001001406D
:10284000001401400038024000000240000802402D
:1028500000B583B001904FF6FF73012201A9034830
:1028600002F071F9019803B05DF804FB34190020FF
:10287000DFF834D00D480E490E4A002302E0D45848
:10288000C4500433C4188C42F9D30B4A0B4C0023B8
:1028900001E013600432A242FBD3FFF785FE02F091
:1028A00019FAFFF717FC7047000001200000002014
:1028B000E009002064C30008E00900201C1A002081
:1028C000FEE7000010B504460E4B18784FF47A73FB
:1028D000B3FBF0F30C4A1068B0FBF3F000F026FBFA
:1028E00068B90F2C01D901200AE0002221464FF0DF
:1028F000FF3000F0D5FA054B1C60002000E00120FD
:1029000010BD00BF100000200C00002014000020AB
:1029100008B50B4B1A6842F400721A601A6842F448
:1029200080621A601A6842F480721A60032000F014
:10293000A5FA0F20FFF7C6FFFFF7A0FD002008BD96
:10294000003C0240034A1168034B1B780B441360A0
:10295000704700BFBC19002010000020014B186810
:10296000704700BFBC19002038B50446FFF7F6FFDA
:102970000546B4F1FF3F02D0044B1B781C44FFF71F
:10298000EDFF401BA042FAD338BD00BF100000206D
:102990004A4B5A6822F440325A605A6841680A43E6
:1029A0005A600268536823F4807353600268536866
:1029B000016943EA012353600268536823F04073BE
:1029C00053600268536881680B43536002689368E0
:1029D00023F40063936002689368C1680B439360BB
:1029E000826A374B9A4257D00268936823F070632B
:1029F000936002689368816A0B43936002689368EE
:102A000023F04053936002689368C16A0B4393605C
:102A10000268936823F00203936002689368017E62
:102A200043EA4103936090F82030002B3FD00268C6
:102A3000536843F4006353600268536823F46043AF
:102A4000536001684B68426A013A43EA42334B6083
:102A50000268D36A23F47003D3620168CB6AC26947
:102A6000013A43EA0253CB620268936823F400738D
:102A700093600268936890F8301043EA41239360B2
:102A80000268936823F480639360026893684169E5
:102A900043EA8123936070470268936823F0706370
:102AA00093600268936823F040539360B0E7026834
:102AB000536823F400635360CAE700BF002301405A
:102AC0000100000F38B310B50446036C43B1236C0A
:102AD00013F0100F0BD00120002384F83C3010BD00
:102AE000FFF726F90023636484F83C30EFE7236C9A
:102AF00023F4885323F0020343F0020323642046A7
:102B0000FFF746FF00206064236C23F0030343F0CB
:102B100001032364E0E701207047000082B0002336
:102B2000019390F83C30012B6ED0012380F83C30AB
:102B300003689A6812F0010F13D19A6842F00102FB
:102B40009A60344B1B68344AA2FB03239B0C03EBB3
:102B50004303019302E0019B013B0193019B002B86
:102B6000F9D10268936813F0010F42D0036C23F48B
:102B7000E06323F0010343F480730364536813F4A8
:102B8000806F05D0036C23F4405343F480530364F7
:102B9000036C13F4805F19D0436C23F00603436485
:102BA000002380F83C306FF0220313601B4B5B68FE
:102BB00013F01F0F0DD103689A6812F0405F25D102
:102BC0009A6842F080429A6000201BE00023436430
:102BD000E6E70368124A934201D0002012E09A68A7
:102BE00012F0405F14D19A6842F080429A6000204F
:102BF00008E0036C43F010030364436C43F00103EB
:102C00004364002002B070470220FBE70020F9E790
:102C10000020F7E70C00002083DE1B430023014067
:102C20000020014070B504460D4603689A6812F40E
:102C3000806F03D09B6813F4807F19D1FFF78EFE5D
:102C4000064623681A6812F0020F20D1B5F1FF3F43
:102C5000F7D0B5B923681B6813F0020FF1D1236CCC
:102C600043F004032364002384F83C30032032E063
:102C7000036C43F020030364002380F83C30012000
:102C800029E0FFF76BFE801BA842DAD9E2E76FF07C
:102C900012021A60236C43F40073236423689A6859
:102CA00012F0405F16D1207EB0B9DA6A12F4700FCC
:102CB00003D09B6813F4806F0DD1236C23F48073D1
:102CC0002364236C13F4805F05D1236C43F001036C
:102CD000236400E0002070BD0020FCE70368D86C8E
:102CE0007047000030B482B00023019390F83C306C
:102CF000012B00F0BB80012380F83C300B68092BCE
:102D000041D90468E2689BB203EB43031E3B4FF0DA
:102D1000070C0CFA03F322EA0303E3600468E26899
:102D20000B8803EB43031E3B8D6805FA03F3134343
:102D3000E3604B68062B3DD80468626B03EB8303AA
:102D4000053B4FF01F0C0CFA03F322EA0303636305
:102D50000468626B4B6803EB8303053BB1F800C06A
:102D60000CFA03F3134363630268414B9A4251D058
:102D700002683F4B9A4256D0002380F83C301846F8
:102D800002B030BC7047046822699BB203EB430376
:102D90004FF0070C0CFA03F322EA030323610468E3
:102DA00022690B8803EB43038D6805FA03F3134391
:102DB0002361BEE70C2B16D805682A6B03EB83034F
:102DC000233B1F2404FA03F322EA03032B63056861
:102DD0002A6B4B6803EB8303233B0C8804FA03F351
:102DE00013432B63C0E70568EA6A03EB8303413BA7
:102DF0001F2404FA03F322EA0303EB620568EA6A7C
:102E00004B6803EB8303413B0C8804FA03F3134341
:102E1000EB62A9E70B68122BAAD1164A536843F458
:102E200080035360A4E70B68103B012BA4D8114A20
:102E3000536843F4000353600B68102B9CD10E4B76
:102E40001B6802F1467202F52E3202F28332A2FBB7
:102E500003239B0C03EB83035B00019302E0019BC4
:102E6000013B0193019B002BF9D185E7022087E705
:102E700000200140002301400C000020074AD368D5
:102E800023F4E0631B041B0C000200F4E060034326
:102E900043F0BF6343F40033D360704700ED00E0BC
:102EA00000B5194BDB68C3F30223C3F1070CBCF177
:102EB000040F28BF4FF0040C03F1040EBEF1060FFF
:102EC00018D9033B4FF0FF3E0EFA0CFC21EA0C012F
:102ED00099400EFA03F322EA0303194300280BDB9F
:102EE0000901C9B200F1604000F5614080F80013AB
:102EF0005DF804FB0023E5E700F00F000901C9B20B
:102F0000024B1954F4E700BF00ED00E014ED00E0BF
:102F1000002807DB00F01F02400901239340024A0A
:102F200042F82030704700BF00E100E00138B0F106
:102F3000807F0BD24FF0E0235861054AF02182F8E0
:102F400023100020986107221A6170470120704702
:102F500000ED00E030B405682C6824F480242C6077
:102F6000046863608368402B05D003689960036838
:102F7000DA6030BC704703689A600368D960F8E78C
:102F800010B40368D9B210390B4AA2FB01421209EE
:102F90000A4CA25CC2655F2908D923F47F7323F031
:102FA000030304338365806D10BC704723F47F7383
:102FB00023F003038365F6E7ABAAAAAA90BF000833
:102FC000836A826992B9012B0AD0022B02D00BB11D
:102FD00000207047C36A13F0807F28D1002070471B
:102FE000C36AB3F1C07F24D000207047B2F5005F00
:102FF00009D0022B25D9032B25D1C36A13F0807F7A
:1030000023D100207047032B03D8DFE803F014041A
:10301000140A00207047C36A13F0807F0DD100208E
:103020007047C36AB3F1C07F09D000207047012008
:103030007047012070470120704701207047012030
:103040007047012070470020704701207047000042
:1030500070B50446FFF782FC002C5BD005460223C6
:1030600084F83530002384F834302268136823F064
:103070000103136023681A6812F0010F0AD0FFF7EA
:103080006DFC431B052BF5D920236365032084F8D1
:10309000350070BD1A68204810406168A2680A4374
:1030A000E1680A4321690A4361690A43A1690A4345
:1030B000E1690A43216A0A430243616A04291ED076
:1030C0001A602668756925F00705636A1D43042B9D
:1030D00007D1A36A1D43E36A1BB12046FFF770FFC7
:1030E00090B975612046FFF74BFFE26D3F23934097
:1030F000836000206065012384F83530C9E7E16A08
:10310000206B01430A43DBE740236365012084F819
:103110003500BEE70120BCE73F8010F038B504461B
:10312000856D90F8340001282BD0012084F83400FC
:1031300094F83500C0B2012804D0002384F834305C
:10314000022038BD022084F835000020606520464A
:10315000FFF700FFE26D3F239340AB6022681368E6
:1031600043F016031360236C23B12268136843F005
:10317000080313602268136843F001031360002002
:10318000DFE70220DDE70000F0B583B0044600234E
:103190000193724B1D68724BA3FB0535AD0A876D19
:1031A0003E68C26D08239340334210D003681A680A
:1031B00012F0040F0BD01A6822F004021A60C26DDC
:1031C00008239340BB60436D43F001034365E26D08
:1031D00001239340334209D02268526912F0800FD4
:1031E00004D0BB60636D43F002036365E26D0423AA
:1031F0009340334209D02268126812F0020F04D0C3
:10320000BB60636D43F004036365E26D102393407C
:10321000334224D02268126812F0080F1FD0BB601E
:1032200023681A6812F4802F0DD01B6813F4002F46
:1032300004D1236C9BB12046984710E0A36C73B176
:10324000204698470BE01A6812F4807F03D11A6871
:1032500022F008021A60236C0BB120469847E26DF9
:1032600020239340334255D02268126812F0100F89
:1032700050D0BB6094F83530DBB2052B0ED02368FC
:103280001A6812F4802F33D01B6813F4002F2AD150
:10329000636C002B3ED0204698473BE022681368C1
:1032A00023F0160313602268536923F080035361EF
:1032B000236CA3B12268136823F008031360E26D46
:1032C0003F239340BB60012384F83530002384F80A
:1032D0003430236D002B3FD0204698473CE0A36C50
:1032E000002BE7D1EBE7E36BA3B12046984711E051
:1032F0001A6812F4807F09D11A6822F010021A604D
:10330000012384F83530002384F83430E36B0BB1AB
:1033100020469847636DFBB1636D13F0010F17D022
:10332000052384F835302268136823F00103136005
:10333000019B01330193AB4204D823681B6813F04F
:10334000010FF5D1012384F83530002384F834309F
:10335000E36C0BB12046984703B0F0BD0C00002091
:10336000B5814E1B00230F2B00F2D28070B582B0C6
:1033700060E085685E000324B44025EA0405CC685B
:10338000B4402C438460456825EA02054C68C4F3C8
:1033900000129A402A4342605AE0DC08083450F890
:1033A000246003F0070295000F22AA4026EA020ECD
:1033B0000A69AA4042EA0E0240F824205CE0042296
:1033C00000E0002202FA0EF22A430234514D45F881
:1033D0002420514A94686FEA0C0224EA0C054E68D6
:1033E00016F4801F01D04CEA04054B4CA560E4683C
:1033F00002EA04054E6816F4001F01D04CEA0405E9
:10340000454CE560646802EA04054E6816F4003F26
:1034100001D04CEA0405404C6560246822404D68A8
:1034200015F4803F01D04CEA04023B4C226001338A
:103430000F2B6BD801229A400C6804EA020C32EA86
:103440000404F4D14C6804F00304013C012C90D92D
:103450004A6802F00302032A09D0C4685D0003220F
:10346000AA4024EA02048A68AA402243C2604A6849
:1034700002F00302022A90D004684FEA430E0322AE
:1034800002FA0EF224EA02044A6802F0030202FA87
:103490000EF2224302604A6812F4403FC7D0002275
:1034A00001921E4A546C44F480445464526C02F4F9
:1034B00080420192019A9C08A51C164A52F8255098
:1034C00003F003024FEA820E0F2202FA0EF225EAFF
:1034D0000205134A90423FF474AF02F580629042B5
:1034E0000ED002F5806290420CD002F580629042CC
:1034F0000AD002F5806290423FF461AF072261E793
:1035000001225FE702225DE703225BE702B070BDA4
:10351000704700BF00380140003C014000380240C5
:10352000000002400AB1816170470904816170475F
:10353000002800F0CC8070B5044690F83D30002B98
:1035400077D0242384F83D302268136823F00103E8
:1035500013602268136843F4004313602268136801
:1035600023F40043136000F0C5FB62685A4B9A4293
:1035700064D85A4B98428CBF00230123002B40F0A3
:10358000A8805749A1FB00318B0C25686A6822F09E
:103590003F0242EA91426A6021680A6A22F03F02D1
:1035A00066684D4DAE424FD8013313430B6221681C
:1035B000CA6922F44F4222F0FF026668464B9E42DF
:1035C0004CD8431E7600B3FBF6F3013340F6FC7093
:1035D000034278D0C3F30B031343CB6121680B681C
:1035E00023F0C003E269206A024313430B602168A1
:1035F0008B6823F4034323F0FF032269E06802434E
:1036000013438B602168CB6823F0FF036269A069D4
:1036100002431343CB602268136843F00103136035
:1036200000202064202384F83D30206384F83E008D
:1036300070BD80F83C30FEF7A3FC82E7294B98422E
:103640008CBF0023012399E74FF4967505FB03F324
:10365000254DA5FB03539B090133A6E7A368BBB91E
:10366000451E06EB460CB5FBFCF50135C5F30B0515
:10367000B5FA85F56D0945BBC3B9013806EB4603BC
:10368000B0FBF3F30133C3F30B0343F40043A3E7AD
:10369000451E06EB860C0CEB8C0CB5FBFCF50135DE
:1036A000C5F30B05B5FA85F56D09E4E7013806EBBE
:1036B000860303EB8303B0FBF3F30133C3F30B0384
:1036C00043F4404388E7042386E7012384E701208D
:1036D00070470120ACE700BFA08601007F841E0078
:1036E00083DE1B43FF083D00D34D6210002800F02D
:1036F000E08170B582B00446036813F0010F3BD03F
:103700009F4B9B6803F00C03042B2CD09C4B9B68B5
:1037100003F00C03082B21D06368B3F5803F4FD032
:10372000B3F5A02F52D0964B1A6822F480321A605B
:103730001A6822F480221A606368002B50D0FFF7C9
:103740000DF905468E4B1B6813F4003F14D1FFF7AB
:1037500005F9401B6428F5D90320B1E1884B5B686B
:1037600013F4800FD8D0864B1B6813F4003F03D0AE
:103770006368002B00F09F81236813F0020F54D080
:103780007F4B9B6813F00C0F3ED07D4B9B6803F082
:103790000C03082B33D0E368002B68D0794B01224F
:1037A0001A60FFF7DBF80546754B1B6813F0020F34
:1037B00054D1FFF7D3F8401B0228F5D903207FE14D
:1037C0006F4A136843F480331360B5E76C4B1A6893
:1037D00042F480221A601A6842F480321A60ABE721
:1037E000FFF7BCF80546664B1B6813F4003FC3D0D7
:1037F000FFF7B4F8401B6428F5D9032060E1604B63
:103800005B6813F4800FC6D15D4B1B6813F0020F89
:1038100003D0E368012B40F05081594A136823F02C
:10382000F803216943EAC1031360236813F0080F0A
:1038300042D063696BB3534B0122C3F8802EFFF76C
:103840008DF805464E4B5B6F13F0020F34D1FFF736
:1038500085F8401B0228F5D9032031E1484A136856
:1038600023F0F803216943EAC1031360DDE7454B08
:1038700000221A60FFF772F80546414B1B6813F0EF
:10388000020FD2D0FFF76AF8401B0228F5D90320B7
:1038900016E13C4B0022C3F8802EFFF75FF8054687
:1038A000374B5B6F13F0020F06D0FFF757F8401B42
:1038B0000228F5D9032003E1236813F0040F77D021
:1038C0002F4B1B6C13F0805F33D1002301932C4BE3
:1038D0001A6C42F080521A641B6C03F080530193FF
:1038E000019B0125284B1B6813F4807F23D0A3681C
:1038F000012B34D0052B38D0214B1A6F22F0010256
:103900001A671A6F22F004021A67A368002B3DD0D1
:10391000FFF724F806461A4B1B6F13F0020F46D12F
:10392000FFF71CF8801B41F288339842F3D903203B
:10393000C6E00025D6E7144A136843F48073136089
:10394000FFF70CF80646104B1B6813F4807FCED1AE
:10395000FFF704F8801B0228F5D90320B0E0084ADD
:10396000136F43F001031367CFE7054B1A6F42F063
:1039700004021A671A6F42F001021A67C5E700BF16
:10398000003802400000474200700040FEF7E6FFAA
:103990000646524B1B6F13F0020F08D0FEF7DEFFF6
:1039A000801B41F288339842F3D9032088E0EDB9B7
:1039B000A369002B00F08380484A926802F00C0251
:1039C000082A51D0022B17D0454B00221A66FEF769
:1039D000C5FF0446414B1B6813F0007F42D0FEF741
:1039E000BDFF001B0228F5D9032069E03B4A136C98
:1039F00023F080531364DBE7394B00221A66FEF78D
:103A0000ADFF0546354B1B6813F0007F06D0FEF76F
:103A1000A5FF401B0228F5D9032051E0E369226A83
:103A20001343626A43EA8213A26A5208013A43EAE4
:103A30000243E26A43EA0263284A5360284B0122A8
:103A40001A66FEF78BFF0446244B1B6813F0007FB9
:103A500006D1FEF783FF001B0228F5D903202FE0D3
:103A600000202DE000202BE0012B2BD01B4B5B68AE
:103A700003F48001E269914226D103F03F02216AFA
:103A80008A4223D1616A47F6C0721A40B2EB811FA5
:103A90001ED103F44031A26A5208013AB1EB024F41
:103AA00018D103F07063E26AB3EB026F14D1002007
:103AB00006E001207047012002E0012000E0002024
:103AC00002B070BD0120FBE70120F9E70120F7E714
:103AD0000120F5E70120F3E70120F1E7003802407B
:103AE0000000474208B5254B9B6803F00C03042BEC
:103AF0003FD0082B3FD1214B5A6802F03F025B6850
:103B000013F4800F12D01D4B5968C1F388111C4863
:103B10000023A1FB0001FCF7B3FF184B5B68C3F364
:103B2000014301335B00B0FBF3F025E0134B596810
:103B3000C1F3881C4FEA4C11B1EB0C006EEB0E0E7A
:103B40004FEA8E1343EA90638101091A63EB0E0377
:103B5000DB0043EA5173C90011EB0C0C43F1000385
:103B6000990200234FEA8C2041EA9C51FCF788FF20
:103B7000D3E7034800E0034808BD00BF0038024017
:103B800040787D010024F400002800F09B8070B58F
:103B90000D4604464F4B1B6803F007038B4208D2C7
:103BA000CBB24C4A1370136803F007038B4240F00A
:103BB0008B80236813F0020F17D013F0040F04D08A
:103BC000454A936843F4E0539360236813F0080F69
:103BD00004D0414A936843F4604393603E4A93683B
:103BE00023F0F003A1680B439360236813F0010FE7
:103BF00032D06368012B21D09A1E012A25D9364A7A
:103C0000126812F0020F61D033498A6822F0030271
:103C100013438B60FEF7A2FE06462F4B9B6803F012
:103C20000C036268B3EB820F16D0FEF797FE801B81
:103C300041F288339842F0D9032042E0264A1268C4
:103C400012F4003FE0D101203BE0234A126812F059
:103C5000007FD9D1012034E01E4B1B6803F007031D
:103C6000AB4207D9EAB21B4B1A701B6803F007037B
:103C7000AB422DD1236813F0040F06D0164A936887
:103C800023F4E053E1680B439360236813F0080FBB
:103C900007D0114A936823F46043216943EAC103C2
:103CA0009360FFF71FFF0C4B9B68C3F303130B4A92
:103CB000D35CD8400A4B18600A4B1868FEF702FE26
:103CC000002070BD012070470120FAE70120F8E7CD
:103CD0000120F6E7003C02400038024078BF0008AF
:103CE0000C00002014000020014B1868704700BF32
:103CF0000C00002008B5FFF7F7FF044B9B68C3F3E7
:103D00008223034AD35CD84008BD00BF003802407C
:103D100088BF000808B5FFF7E7FF044B9B68C3F3B3
:103D20004233034AD35CD84008BD00BF003802408C
:103D300088BF00082DE9F04782B00546884617463F
:103D40001E46FEF70BFE0A9B1B1A03EB0609FEF745
:103D500005FE82462B4B1B68C3F3CB3309FB03F3F1
:103D600001932B689C6838EA04030CBF4FF0010CE8
:103D70004FF0000CBC4540D0B6F1FF3FF1D0FEF74C
:103D8000EDFDA0EB0A0048450AD2B9F1000F07D0BB
:103D9000019A02B14A46019B013B01939146E0E73B
:103DA0002A68536823F0E00353606B68B3F5827FA1
:103DB0000BD0AB6AB3F5005F14D0012385F8513006
:103DC000002385F85030032018E0AB68B3F5004FAE
:103DD00002D0B3F5806FECD12A68136823F040035A
:103DE0001360E6E72A68136823F4005313602A6817
:103DF000136843F400531360DFE7002002B0BDE80E
:103E0000F08700BF0C00002010B584B00446164BAC
:103E10001868164BA3FB0030400D4FF47A7303FB78
:103E200000F003906368B3F5827F0BD0039BBBB1B6
:103E3000039B013B039323689B6813F0800FF5D12C
:103E400000200EE000920B46002280212046FFF762
:103E500071FF30B1636D43F020036365032000E020
:103E6000002004B010BD00BF0C000020819F5E1632
:103E700000285AD010B50446436A33B94368B3F5F5
:103E8000827F05D00023C36102E000230361436108
:103E90000023A36294F85130002B40D0022384F811
:103EA00051302268136823F040031360636803F401
:103EB0008273A26802F404421343E26802F40062CF
:103EC0001343226902F002021343626902F0010205
:103ED0001343A26902F400721343E26902F038024C
:103EE0001343226A02F080021343A26A02F40052D2
:103EF000216813430B60638B03F00403626A02F0D2
:103F00001002216813434B602268D36923F40063D5
:103F1000D36100206065012384F8513010BD84F81E
:103F200050302046FEF7DCF9B8E7012070472DE954
:103F3000F04383B01D4690F85030012B00F0D18043
:103F4000044688469146012380F85030FEF706FD6E
:103F5000074694F85160F6B2012E40F0AF80B8F1F8
:103F6000000F00F0AC80B9F1000F00F0A88003232F
:103F700084F8513000236365C4F83080A4F834908D
:103F8000A4F83690A363A387E38763642364A368DC
:103F9000B3F5004F1ED023681A6812F0400F03D10A
:103FA0001A6842F040021A60E368B3F5006F1CD053
:103FB000636813B1B9F1010F52D1226B23681278F3
:103FC0001A73236B01332363E38E9BB2013B9BB2D5
:103FD000E38645E02268136823F0400313602268FB
:103FE000136843F480431360D5E7636813B1B9F1F4
:103FF000010F16D1226B23681288DA60236B02331B
:104000002363E38E9BB2013B9BB2E38609E0FEF79C
:10401000A5FCC01BA84202D3B5F1FF3F59D1002D2A
:1040200059D0E38E9BB2002B33D023689A6812F0EC
:10403000020FECD0226B1288DA60236B0233236309
:10404000E38E9BB2013B9BB2E386EAE7FEF786FC78
:10405000C01BA84202D3B5F1FF3F3ED1002D3ED098
:10406000E38E9BB2ABB123689A6812F0020FEDD0D9
:10407000226B12781A73236B01332363B4F836C0B2
:104080001FFA8CFC0CF1FF3C1FFA8CFCA4F836C024
:10409000E6E73A4629462046FFF7B6FE08B1202358
:1040A0006365A36833B901932368DA6801929B685A
:1040B0000193019B636D13B9002600E002260123E2
:1040C00084F85130002384F85030304603B0BDE806
:1040D000F0830326F3E70326F1E70326EFE7032641
:1040E000EDE70226F1E7000038B590F85030012BDB
:1040F00061D00446012380F8503090F85150EDB261
:104100009D4252D1002951D0002A4FD0032380F87C
:1041100051300023436501638286C2868363436412
:1041200003648387C3878368B3F5004F2AD0A36CE9
:10413000224A1A64A36C224ADA63A36C214ADA6425
:10414000A36C00221A652268E38E9BB20C32216BAD
:10415000A06CFEF7E3FF0146F8B923681A6812F075
:10416000400F03D11A6842F040021A602268536877
:1041700043F0200353602268536843F00203536006
:104180000D4613E00268136823F0400313600268D1
:10419000136843F480431360C9E7636D43F0100371
:1041A0006365012384F8513000E00225002384F880
:1041B0005030284638BD0225FBE700BFCD4100083E
:1041C000FB410008D94100087047704708B5806B73
:1041D000FFF7FBFF08BD704708B5806B02685368A6
:1041E00023F003035360436D43F010034365012341
:1041F00080F85130FFF7EFFF08BD30B583B00546BA
:10420000846BFEF7ABFB2B681B6813F4807F23D114
:10421000024621684B6823F020034B6021684B68FD
:1042200023F002034B6064212046FFF7EDFD18B137
:10423000636D43F020036365A36833B9019323687A
:10424000DA6801929B680193019B0023E3860123B6
:1042500084F85130636D23B92046FFF7B5FF03B0F2
:1042600030BD2046FFF7B7FFF9E7000070B4036ADE
:1042700023F001030362036A4668826922F0730235
:104280000C6844EA020523F002028B6813430D4CCC
:10429000A04209D00B4CA0420DD0466085614A680F
:1042A0004263036270BC704723F00803CA6813437B
:1042B00023F00403EEE726F440764A6932438E6920
:1042C0001643EAE70000014030B4036A23F4807328
:1042D0000362036A4568C26922F073020C682243D4
:1042E00023F400738C6843EA04230F4CA04209D0E6
:1042F0000D4CA0420ED04560C2614A68C2630362A1
:1043000030BC704723F40063CC6843EA042323F4F1
:104310008063EDE725F440554C6945EA04158C6946
:1043200045EA0415E7E700BF0000014030B4036A26
:1043300023F480530362036A4468C26922F4E642AC
:104340000D6842EA052223F400538D6843EA0533E1
:10435000074DA84206D04460C2614A680264036205
:1043600030BC704724F480444D6944EA8514F2E778
:104370000000014010B4036A046A24F001040462DE
:10438000846924F0F00C4CEA021223F00A030B4378
:104390008261036210BC704710B4046A24F01004F8
:1043A00004628469036A24F4704C4CEA023223F0FC
:1043B000A00343EA01138261036210BC7047836863
:1043C00023F070030B4343F007038360704770478B
:1043D0000368254A90420ED0B0F1804F0BD0A2F571
:1043E0007C42904207D002F58062904203D002F5F1
:1043F0008062904203D123F070034A6813431A4A43
:1044000090421AD0B0F1804F17D0A2F57C42904272
:1044100013D002F5806290420FD002F58062904284
:104420000BD002F59A32904207D002F5806290429A
:1044300003D002F58062904203D123F44073CA682E
:10444000134323F080034A69134303608B68C362FC
:104450000B688362044B984202D00123436170478A
:104460000B690363F9E700BF0000014040B310B5DA
:10447000044690F83D30F3B1022384F83D302146E4
:1044800051F8040BFFF7A4FF012384F8463084F8A9
:104490003E3084F83F3084F8403084F8413084F86E
:1044A000423084F8433084F8443084F8453084F84E
:1044B0003D30002010BD80F83C30FEF777F8DBE798
:1044C0000120704740B310B5044690F83D30F3B179
:1044D000022384F83D30214651F8040BFFF778FFA2
:1044E000012384F8463084F83E3084F83F3084F865
:1044F000403084F8413084F8423084F8433084F806
:10450000443084F8453084F83D30002010BD80F8F8
:104510003C30FFF75CFFDBE70120704730B4036AF3
:1045200023F010030362036A4468826922F4E642BE
:104530000D6842EA052223F020038D6843EA051343
:104540000E4DA84209D00D4DA8420ED044608261A4
:104550004A688263036230BC704723F08003CD68F1
:1045600043EA051323F04003EDE724F440644D696A
:1045700044EA85048D6944EA8504E7E700000140C8
:1045800038B590F83C30012B66D004460D46012327
:1045900080F83C300C2A5AD8DFE802F00759595904
:1045A0001B5959593059595944000068FFF75EFEAC
:1045B0002268936943F0080393612268936923F0AA
:1045C000040393612268936929690B439361002076
:1045D0003EE00068FFF7A2FF2268936943F400639E
:1045E00093612268936923F48063936122689369DD
:1045F000296943EA01239361002029E00068FFF75D
:1046000063FE2268D36943F00803D3612268D3694B
:1046100023F00403D3612268D36929690B43D36172
:10462000002015E00068FFF781FE2268D36943F49B
:104630000063D3612268D36923F48063D361226865
:10464000D369296943EA0123D361002000E00120F6
:10465000002384F83C3038BD0220FCE710B48468A5
:1046600024F47F4C42EA03220A4342EA0C028260AD
:1046700010BC704790F83C30012B78D010B5044640
:10468000012380F83C30022380F83D3002689368B3
:1046900023F47F4323F0770393600B68602B4CD0A7
:1046A00029D8402B54D00CD9502B22D1CA68496844
:1046B0000068FFF75FFE50212068FFF780FE0020B2
:1046C00005E0202B0DD009D9302B0AD00120012381
:1046D00084F83D30002384F83C3010BD0BB1102B22
:1046E00005D119462068FFF76AFE0020EFE7012098
:1046F000EDE70120EBE7B3F5805F34D0B3F5005F61
:104700000CD1CB684A6889680068FFF7A7FF226868
:10471000936843F4804393600020D8E7702B24D142
:10472000CB684A6889680068FFF798FF2268936839
:1047300043F0770393600020C9E7CA6849680068BE
:10474000FFF72AFE60212068FFF739FE0020BEE750
:10475000CA6849680068FFF70DFE40212068FFF72E
:104760002EFE0020B3E70020B1E70120AFE70220D2
:10477000704701F01F01012303FA01FC036A23EAD9
:104780000C030362036A02FA01F10B4303627047F0
:1047900010B504460846002932D194F83E30DBB209
:1047A000013B18BF0123002B63D1002841D1022314
:1047B00084F83E30012201462068FFF7DAFF2368C3
:1047C0002E4A934245D023682C4A934246D0B3F1F7
:1047D000804F43D0A2F57C4293423FD002F58062E5
:1047E00093423BD002F58062934237D002F59A3271
:1047F000934233D01A6842F001021A60002037E079
:10480000042908D008290DD094F84130DBB2013BCF
:1048100018BF0123C7E794F83F30DBB2013B18BF54
:104820000123C0E794F84030DBB2013B18BF0123FD
:10483000B9E7042805D0082807D0022384F84130BE
:10484000B8E7022384F83F30B4E7022384F840300D
:10485000B0E75A6C42F400425A64B4E79A6802F036
:104860000702062A07D01A6842F001021A600020E7
:1048700010BD0120FCE70020FAE700BF0000014066
:1048800090F83C30012B34D010B4012380F83C3038
:10489000022380F83D3003685A689C6822F0700C4F
:1048A0000A6842EA0C025A600368134A934212D023
:1048B000B3F1804F0FD0A2F57C4293420BD002F5AA
:1048C0008062934207D002F58062934203D002F5E2
:1048D0009A32934204D124F080044A6814439C60C5
:1048E000012380F83D30002380F83C30184610BC8E
:1048F00070470220704700BF0000014090F83C3034
:10490000012B22D0012380F83C30CB6823F4407384
:104910008A68134323F480634A68134323F40063D3
:104920000A68134323F480530A69134323F40053A2
:104930004A69134323F48043CA69134302685364EA
:10494000002380F83C301846704702207047000072
:1049500038B504460268136923F44053C1680B4319
:10496000136183680269134342691343C2691A439E
:104970000168CB6823F4164323F00C031343CB6088
:104980000268536923F4407381690B4353610368E0
:10499000314A934206D002F58062934202D0FFF77B
:1049A000A9F901E0FFF7B6F9E369B3F5004F29D0A3
:1049B0000021031849411B1841F10001C90041EAD7
:1049C0005371DB00181863684FEA83024FEA937350
:1049D00041F10001FCF754F8204DA5FB00325109CC
:1049E000642303FB11031B013233A5FB03235B0983
:1049F00003F0F00202EB011203F00F0321681344ED
:104A00008B6038BD0023021843EB0301121841F1FB
:104A10000001C90041EA5271D200101841F10001B1
:104A2000626892185B41FCF72BF80C4DA5FB003235
:104A30005109642303FB1103DB003233A5FB03237D
:104A40005B095A0002F4F87202EB011203F007034B
:104A5000216813448B60D4E7001001401F85EB519F
:104A60002DE9F84305460F4616469946DDF82080A5
:104A70002C68246837EA04030CBF4FF0010C4FF098
:104A8000000CB4452DD1B8F1FF3FF1D0B8F1000FC3
:104A900005D0FDF763FFA0EB09004045E8D92A687F
:104AA00002F10C0353E8003F23F4D0730C3242E8C8
:104AB00000310029F3D12A6802F1140353E8003FC2
:104AC00023F00103143242E800310029F3D12023FE
:104AD00085F83D3085F83E30002385F83C300320D2
:104AE00000E00020BDE8F88358B310B5044690F804
:104AF0003D300BB3242384F83D302268D36823F47F
:104B00000053D3602046FFF723FF2268136923F484
:104B1000904313612268536923F02A03536122688A
:104B2000D36843F40053D36000202064202384F82A
:104B30003D3084F83E3010BD80F83C30FDF724FE57
:104B4000D8E7012070472DE9F04182B01E4690F869
:104B50003D30DBB2202B54D104460D46904600294F
:104B600053D0002A53D090F83C30012B51D0012370
:104B700080F83C3000230364212380F83D30FDF7AA
:104B8000EDFE0746A4F82480A4F82680A368B3F5B8
:104B9000805F05D04FF00008002384F83C3012E01D
:104BA000236913B14FF00008F6E7A8460025F3E7A4
:104BB00038F8023B2268C3F308035360E28C92B2D8
:104BC000013A92B2E284E38C9BB273B100963B4609
:104BD000002280212046FFF743FFE0B9002DE7D0F7
:104BE00015F8012B23685A60E8E700963B4600223F
:104BF00040212046FFF734FF78B9202384F83D3068
:104C000000E0022002B0BDE8F0810120FAE70120B7
:104C1000F8E70220F6E70320F4E70320F2E70000BC
:104C200008B50349034800F049F8034B187008BD64
:104C3000C01900201C000020C4190020024B0122D2
:104C40001A701878704700BF18000020024B01222C
:104C50001A701878704700BF1800002000207047B5
:104C60000020704701207047134B5B7A13BB10B5CF
:104C7000044603F0FF00104B93F809C05FFA8CFC68
:104C80004FF0000E03F80CE093F809C003EB8C0C16
:104C9000CCF804405C7A1C4422725A7A541CE4B268
:104CA0005C7230320A703A234B702F238B7081F87C
:104CB00003E010BD01207047C819002008B500228C
:104CC000FFF7D2FF08BD0000014B1868704700BF16
:104CD0003000002070B50D4E0D4D761BB61006D07D
:104CE000002455F8043B01349847A642F9D1094EF7
:104CF000094D761B05F070FFB61006D0002455F85C
:104D0000043B01349847A642F9D170BD58C300084E
:104D100058C3000860C3000858C30008830730B5B3
:104D200048D0541E002A3FD0CAB2034601E0013CDD
:104D30003AD303F8012B9D07F9D1032C2DD9CDB21D
:104D400045EA05250F2C45EA054536D9A4F11002A0
:104D500022F00F0C03F1200EE6444FEA121C03F17F
:104D6000100242E9045542E9025510327245F8D169
:104D70000CF1010214F00C0F03EB021204F00F0C03
:104D800013D0ACF1040323F003030433134442F8BB
:104D9000045B9342FBD10CF003042CB1CAB21C4457
:104DA00003F8012B9C42FBD130BD64461346002C16
:104DB000F4D1F9E703461446BFE71A46A446E0E7F4
:104DC0000CB410B51F4B00291C689CB035DB4FF4A8
:104DD0000273ADF81430029006901FAB18D0013961
:104DE0004FF6FF7204910791ADF8162002A91E9AA2
:104DF0000193204600F028F8421C01DA8B2323603F
:104E0000029B00221A701CB0BDE8104002B070472F
:104E10004FF6FF7204910791ADF8162002A91E9A71
:104E20000193204600F010F8431C01DA8B23236025
:104E30001CB0BDE8104002B070478B2323604FF0D8
:104E4000FF30F5E7300000202DE9F04FD5B00C46DB
:104E50000C9191460E930A9002F084FE036817931A
:104E60001846FCF78DF8A3891690190603D5236917
:104E7000002B00F08B8700242BAB4D46CDE9294455
:104E8000CDE91944CDE91B4412942893984618940F
:104E9000002308940024CDE914342B78002B00F073
:104EA000DD81AA4604E01AF8013F002B00F01681CC
:104EB000252BF8D1BAEB050640F014819AF80030A2
:104EC000002B00F0CB8100234FF0FF329AF80160F5
:104ED0008DF8833009930AF1010A07921F462B24AB
:104EE0004FF020090AF1010AA6F120035A2B00F223
:104EF0002D81DFE813F0BA022B012B01B5022B0143
:104F00002B012B016A002B012B014F02E3022B0125
:104F10005A02C9022B01C4025B005B005B005B000C
:104F20005B005B005B005B005B002B012B012B0136
:104F30002B012B012B012B01BF012B011A02860033
:104F4000BF01BF01BF012B012B012B012B01B002BF
:104F50002B012B01C3002B012B012B0124022B0160
:104F60005F022B012B013C072B012B012B012B0195
:104F70002B012B012B012B01BF012B011A028800F1
:104F8000BF01BF01BF01A302880081002B0196026F
:104F90002B018202C500700281002B0124027E00D9
:104FA00039072B012B0119072B017E00A6F13003D5
:104FB00000221AF8016B02EB820203EB4202A6F117
:104FC0003003092BF5D909928EE7DDF828B0584651
:104FD00002F0C8FD43681B931846FBF7D1FF1C90F5
:104FE0000646584602F0BEFD83681993002E40F035
:104FF0007A869AF8006075E79AF8006047F0200713
:1050000070E747F01007BA060E9B40F18081073326
:1050100023F007031A465B6852F8084B0E92994634
:10502000002BC0F25F85079B013301F01F8054EA1B
:10503000090327F0800B00F0E3840A2C79F10003C8
:1050400080F08187303401238DF84F415F460B9308
:105050000DF24F1507990B989DF8832081424FF070
:105060000003B8BF01460D9306910F93139310935D
:10507000002A7CD0069B0133069378E047F01007A6
:1050800017F0200900F034810E9B073323F007034B
:10509000D3F8049053F8084B0E9327F4806B002349
:1050A00000228DF88320079A511C00F00D8254EAEB
:1050B00009012BF0800740F00682002A41F01080A1
:1050C000002B40F0A2841BF001030B9300F0378506
:1050D00030238DF84F310DF24F15BBE7BAEB0506C3
:1050E00000F0BC802A9B33442A93299B0133072B71
:1050F000C8E90056299305DC08F10808089B3344E9
:105100000893DBE60C990A9828AA03F019FC80B9E9
:105110000DF1AC08F2E70C990A9828AA03F010FCEC
:10512000002800F08C800D9B1BB10D990A9802F0AD
:1051300013FC0C9B9B8913F0400F089B18BF4FF08A
:10514000FF330893089855B0BDE8F08F002E00F0AB
:10515000858000228DF8EC608DF883200123069372
:105160000D920B9307920F92139210923BAD17F092
:10517000020302D006990231069117F0840B07D181
:1051800009990698A1EB0009B9F1000F00F3158306
:105190002A9C8AB1299A0DF1830101320134C8F8A1
:1051A0000010072A4FF001012A942992C8F8041030
:1051B00000F3468308F1080883B1299B21AA013333
:1051C0000234C8F80020072B4FF002022A942993DA
:1051D000C8F8042000F3488308F10808BBF1800FE9
:1051E00000F00E82079B0B9AA3EB020BBBF1000FA2
:1051F00000F34F82FB0500F1A5810B9BC8F804303A
:105200001C44299BC8F800500133072B2A9429938A
:1052100000F3C78208F108087B0705D5099B069AA9
:105220009D1A002D00F32C83DDE9083206998A428D
:10523000ACBF9B185B180893002C7FF46CAF002365
:1052400029930D9B1BB10D990A9802F085FB0DF176
:10525000AC0855462B78002B7FF423AE2A9B002BFD
:105260003FF467AF0C9C0A9828AA214603F068FB1C
:10527000A38960E70E9B073323F00702F2E80234AC
:10528000CDE91434DDE9143424F000440E9299463B
:1052900018462146A74B4FF0FF32FCF779F900285A
:1052A00040F06284A34B484621464FF0FF32FCF7A2
:1052B00051F9002840F05884DDE914010022002350
:1052C000FCF73EF9002840F0AD879DF883209A4D09
:1052D0009A4B27F080070321472EC8BF1D460023A5
:1052E0000D9306910B9107930F9313931093BFE6C1
:1052F00017F0100340F02E8417F0400200F054879E
:105300000E9A52F8044B0E929946A4B2C5E653F891
:10531000044B0E93FB0600F118847D0640F11284C5
:1053200044F3C0394B4624B27AE60E9B002253F870
:10533000041B8DF883208DF8EC100E930EE70E9C65
:10534000079B54F8045B4FF000098DF88390002D03
:1053500000F0D5865A1C00F052851A464946284668
:10536000FBF716FD0D90002801F057800D9BCDF83E
:105370001C905B1B0B930E9423EAE3739DF8832030
:105380000693CDF83490CDF83C90CDF84C90CDF804
:1053900040906DE60E9B53F8042B0992002A80F290
:1053A000C983099A0E93524209929AF8006047F015
:1053B000040797E547F0100B1BF0200900F08183EC
:1053C0000E9B073323F00703D3F8049053F8084BE0
:1053D0000E93012364E60E9B53F8044B0E93302387
:1053E00078268DF88430564B189347F0020B8DF8D1
:1053F00085604FF00009022352E6BD0600F1828469
:10540000FC0600F17386780600F13C87B90540F18F
:105410006D860E9B089953F8042B0E931170554618
:1054200018E79AF800606C2E03BF9AF8016047F005
:1054300020070AF1010A47F0100753E59AF80060C7
:10544000682E03BF9AF8016047F400770AF1010A59
:1054500047F0400746E59AF8006047F0080741E545
:105460009AF8006047F001073CE59DF88330002B77
:105470007FF4BFAD9AF800608DF8839032E59AF81A
:10548000006047F080072DE5524612F8016B2A2E86
:1054900001F0CD81A6F13003092B924698BF00227E
:1054A00001F288801AF8016B02EB820203EB4202E0
:1054B000A6F13003092BF5D9079215E59AF800609B
:1054C0008DF883400EE5BB46012B3FF4B6AD022BB1
:1054D00054AD12D1189A04F00F032409D35C05F8D7
:1054E000013D44EA09744FEA191954EA0903F2D15B
:1054F00054AB5B1B5F460B93ACE504F00703E40879
:1055000044EA49744FEAD909303354EA09012A467A
:1055100005F8013DF1D11BF0010FE9D0302BE7D0A8
:105520003023023A05F8013C54AB9B1A5F460B93BB
:1055300015468FE5FFFFEF7F9CBF0008A0BF000866
:10554000ACBF0008652E40F3E680DDE914010022BF
:105550000023FBF7EBFF002800F0CD81299BBF4A19
:10556000C8F80020013301340122072B2A94299323
:10557000C8F8042000F37D8508F10808229B129AE0
:10558000934280F2D382169B179A1C44C8E90023E9
:10559000299B2A940133072B299300F3EB8308F10D
:1055A0000808129B5D1E002D7FF736AE102D299B3B
:1055B000DFF8AC9240F36E8549462246B946DDF8E5
:1055C00028B00C9C10260F4605E008F10808103D95
:1055D000102D40F35B8501331032072BC8E90076AC
:1055E000CDE92932F1DD28AA2146584603F0A8F971
:1055F00000287FF498ADDDE929320DF1AC08E6E72B
:10560000099B069AA3EB020BBBF1000F7FF7EAADF3
:10561000BBF1100F299ADFF848922CDD1D96214628
:105620004E460C9CDDF82890102306E0ABF1100BE1
:10563000BBF1100F08F108081ADD01321031072AFA
:10564000C8E90063CDE92921F0DD28AA21464846B2
:105650000DF1AC0803F074F900287FF464ADABF1F0
:10566000100BBBF1100FDDE929214FF01003E4DC32
:10567000B1461D9E0C4601325C44072ACDE929241F
:10568000C8F80090C8F804B000F31D8508F10808B8
:10569000A8E5BBF1100F299ADFF8C4912DDD414632
:1056A0002046A8464C460C9DDDF82890102306E0C5
:1056B000ABF1100BBBF1100F01F1080119DD013244
:1056C0001030072AC1E90043CDE92920F0DD28AADE
:1056D0002946484603F034F900287FF424ADABF1A5
:1056E000100BBBF1100FDDE929202BA94FF010039F
:1056F000E5DC4546A1468846044601325C44072A5B
:10570000CDE92924C8F80090C8F804B000F3CC8192
:1057100008F108086EE5129B012B40F37C81299E5D
:10572000C8F80050013601340123072E2A94299627
:10573000C8F8043000F3E08108F10808169B179AB6
:1057400001361C44072EC8E90023CDE9296400F383
:10575000E08108F10808DDE9140100220023FBF7CD
:10576000E5FE002840F07481129B0136013B0135B3
:105770001C44072EC8F800502996C8F804302A9413
:1057800000F3598108F108081A9BC8F80430013663
:105790001C44072E24ABCDE92964C8F800307FF7FC
:1057A00039AD0C990A9828AA03F0CAF800287FF4AA
:1057B000BAAC2A9C0DF1AC082EE5B9F1100FDDE969
:1057C00029212BDDCDE91D3B1F96DDF828B04E4683
:1057D0001024A9460C9D04E0103E102E08F1080884
:1057E00017DD01321F4B1031072AC8E90034CDE91B
:1057F0002921F1DD28AA294658460DF1AC0803F00D
:105800009FF800287FF48FAC103E102EDDE929218F
:10581000E7DCDDE91D3B4D46B1461F9EC8F804900C
:10582000013209EB0104072A0E49C8F80010CDE93E
:10583000292400F3FF839DF8832008F10808A8E4D9
:105840000C990A981D9328AA03F07AF800287FF48F
:105850006AAC2A9C1D9B0DF1AC08ADE4DCBF0008CE
:10586000F0BF0008E0BF00080C990A9828AA03F0CE
:1058700067F800287FF457AC2A9C0DF1AC08ADE422
:10588000102D299B21DD0A9FDDF83090102604E0C1
:10589000103D102D08F1080817DD0133B04A10340F
:1058A000072BC8E90026CDE92934F1DD28AA4946AD
:1058B00038460DF1AC0803F043F800287FF433AC10
:1058C000103D102DDDE92934E7DC0133A44AC8F886
:1058D00004502C44072BCDE92934C8F800207FF769
:1058E000A3AC0C990A9828AA03F02AF800287FF4A0
:1058F0001AAC2A9C98E42299002940F36683DDF8CB
:105900004090129B9945A8BF9946B9F1000F0BDD55
:10591000299B01334C44072BC8E900592A94299349
:1059200000F32F8508F10808109EB9F1000FA8BFF9
:10593000A6EB0906002E00F33882DDF840B07805AA
:10594000AB4400F16682229B129A934202DBF90774
:1059500040F18E84169A17991444C8E90012299AC6
:105960002A940132072A299200F3188508F10808C1
:10597000129AAE18A6EB0B06D51AAE42A8BF2E4659
:10598000002E0DDD299BC8F800B001333444072BED
:10599000C8F804602A94299300F31A8608F10808CD
:1059A000002EA8BFAD1B002D7FF736AC102D299B14
:1059B000DFF8B09140F36E8349462246B946DDF8E0
:1059C00028B00C9C10260F4605E008F10808103D91
:1059D000102D40F35B8301331032072BC8E90076AA
:1059E000CDE92932F1DD28AA2146584602F0A8FF68
:1059F00000287FF498ABDDE929320DF1AC08E6E729
:105A0000079B002B7FF41EAB5F46002307930B938D
:105A100054ADFFF71FBBFA073FF581AE299EC8F8CA
:105A20000050013601340123072E2A942996C8F824
:105A300004307FF7A7AE0C990A9828AA02F080FFDD
:105A400000287FF470ABDDE929640DF1AC089BE61A
:105A5000129B5D1E002D7FF797AE102DDFF804918D
:105A600040F39683224607970A9C0C9F4FF0100B39
:105A700005E008F10808103D102D40F3878301363A
:105A80001032072EC8E9009BCDE92962F1DD28AA72
:105A90003946204602F054FF00287FF444ABDDE98C
:105AA00029620DF1AC08E6E70C990A9828AA02F0E1
:105AB00047FF00287FF437AB2A9C0DF1AC08FFF7B5
:105AC00099BB1BF0100340F028811BF0400200F04E
:105AD00079830E9A52F8044B0E929946A4B2012390
:105AE000FFF7DEBA2D2364428DF8833069EB490954
:105AF000BB460123FFF7D7BA0C990A9828AA02F0EF
