:020000040800F2
:1000000000000120B9170008091600080B160008A7
:100010000D1600080F160008111600080000000059
:10002000000000000000000000000000131600089F
:100030001516000800000000171600081916000821
:10004000091800080918000809180008091800080C
:1000500009180008091800080918000809180008FC
:1000600009180008091800080918000809180008EC
:1000700009180008091800080918000809180008DC
:1000800009180008091800080918000800000000F5
:100090000000000000000000000000000918000837
:1000A00009180008091800080918000809180008AC
:1000B000091800080918000809180008091800089C
:1000C000091800080918000809180008091800088C
:1000D00009180008091800080918000800000000A5
:1000E0000918000809180008091800080000000095
:1000F00000000000000000000000000009180008D7
:100100000000000009180008091800080918000874
:1001100000000000000000000000000000000000DF
:1001200021160008091800080918000831160008EF
:100130000918000800000000000000000000000096
:100140000000000000000000000000000918000886
:1001500009180008091800080918000809180008FB
:10016000091800080918000800000000000000003D
:10017000000000000000000000000000000000007F
:100180000000000009180008000000000000000046
:040190000918000842
:1001940010B5054C237833B9044B13B10448AFF3BD
:1001A40000800123237010BD5404002000000000CF
:1001B4007033000808B5034B1BB103490348AFF380
:1001C400008008BD000000005804002070330008BF
:1001D40053B94AB9002908BF00281CBF4FF0FF31AA
:1001E4004FF0FF3000F074B9ADF1080C6DE904CEA6
:1001F40000F006F8DDF804E0DDE9022304B07047FE
:100204002DE9F047089E0D4604468846002B4DD143
:100214008A42944668D9B2FA82F252B101FA02F3E0
:10022400C2F1200120FA01F10CFA02FC41EA0308B0
:1002340094404FEA1C45210CB8FBF5FE1FFA8CF7DD
:1002440005FB1E8341EA03430EFB07F199420BD9D8
:100254001CEB03030EF1FF3080F01E81994240F243
:100264001B81AEF1020E63445B1AA4B2B3FBF5F03A
:1002740005FB103344EA034400FB07F7A7420AD9FD
:100284001CEB040400F1FF3380F00881A74240F224
:10029400058164440238E41B40EA0E4000211EB18B
:1002A400D4400023C6E90043BDE8F0878B4208D957
:1002B400002E00F0EE800021C6E900050846BDE8E6
:1002C400F087B3FA83F100294AD1AB4202D38242C8
:1002D40000F2F980841A65EB030301209846002E8E
:1002E400E2D0C6E90048DFE702B9FFDEB2FA82F2E3
:1002F400002A40F09180A1EB0C054FEA1C471FFA3D
:100304008CFE0121B5FBF7F307FB1350250C45EADE
:1003140000450EFB03F0A84208D91CEB050503F1C8
:10032400FF3802D2A84200F2CB8043462D1AA4B271
:10033400B5FBF7F007FB105544EA05440EFB00FE3D
:10034400A64508D91CEB040400F1FF3502D2A645EA
:1003540000F2BB802846A4EB0E0440EA03409EE76B
:10036400C1F120078B4022FA07FC4CEA030C20FA67
:1003740007F405FA01F31C43FD404FEA1C4900FA57
:1003840001F3B5FBF9F8200C1FFA8CFE09FB185594
:1003940040EA054508FB0EF0A84202FA01F20BD927
:1003A4001CEB050508F1FF3A80F08880A84240F272
:1003B4008580A8F1020865442D1AA4B2B5FBF9F0B2
:1003C40009FB105544EA054500FB0EFEAE4508D96D
:1003D4001CEB050500F1FF346CD2AE456AD9023836
:1003E400654440EA0840A0FB0294A5EB0E05A54233
:1003F400C846A64656D353D05EB1B3EB080265EBAC
:100404000E0505FA07F722FA01F3CD401F43C6E9AA
:1004140000750021BDE8F087C2F1200320FA03F142
:100424000CFA02FC25FA03F395400D434FEA1C47EE
:100434001FFA8CFEB3FBF7F107FB11302B0C43EAD8
:10044400004301FB0EF0984204FA02F408D91CEBB5
:10045400030301F1FF382FD298422DD902396344A6
:100464001B1AADB2B3FBF7F007FB103345EA0345A3
:1004740000FB0EF3AB4208D91CEB050500F1FF3875
:1004840016D2AB4214D902386544ED1A40EA014150
:1004940038E73146304607E78646E5E61846FAE689
:1004A4004B45A9D2B9EB020864EB0C0E0138A3E763
:1004B4004046EAE7204694E74146D1E7D0467BE749
:1004C400023B654432E7084609E76444023842E7E0
:1004D400704700BF10B582B08DF807000C4C0022A5
:1004E4001021204601F04AFD00220421204601F09B
:1004F40045FD4FF0FF3301220DF10701054802F0DD
:100504003EF901221021204601F038FD02B010BD51
:1005140000000240B011002010B582B08DF8070031
:100524000C4C00221021204601F028FD0122042158
:10053400204601F023FD4FF0FF3301220DF10701A6
:10054400054802F01CF901221021204601F016FD95
:1005540002B010BD00000240B011002070B5064684
:100564000D46194C00221021204601F007FD0122FE
:100574000421204601F002FD0DE03146134802F04B
:10058400DBF9124B9B6C93F83530DBB2012BF8D1BD
:10059400A4B226442D1B85B14FF6FF74AC4228BF8C
:1005A4002C46A2B20A4B1B88AB42E6D94FF0FF336C
:1005B4003146064802F0E3F8EAE701221021024836
:1005C40001F0DCFC70BD00BF00000240B01100204F
:1005D400180000202DE9F04182B007460D4616466A
:1005E4001C46DFF86C8000221021404601F0C6FC56
:1005F4002A20FFF76FFF3B0A8DF804308DF8057051
:10060400330A8DF806308DF8076004210DEB0100E4
:10061400FFF7A4FF2B20FFF75DFF2B0A8DF80430B2
:100624008DF80550230A8DF806308DF80740042113
:100634000DEB0100FFF792FF2C20FFF74BFF012287
:100644001021404601F09AFC02B0BDE8F08100BFE1
:100654000000024010B504463620FFF73BFF032C90
:1006640006D8DFE804F002060A0EC020FFF754FFA4
:1006740010BDA020FFF750FFFAE70020FFF74CFF62
:10068400F6E76020FFF748FFF2E711B903685A6301
:100694007047042904D0082905D003681A647047F8
:1006A40003689A6370470368DA63704770B5064657
:1006B400EF2340F23F1200210846FFF78BFF002290
:1006C40010210D4801F05AFC00240DE00B4D4FF4AD
:1006D40048623146284602F087FD4FF448612846B7
:1006E400FFF73CFF0134A4B22F2CEFD901221021D3
:1006F400014801F043FC70BD00000240700400207A
:1007040010B584B04FF4486200214B4802F06CFDF0
:100714000A2001F0CBF8494C00220821204601F0C0
:100724002DFC0A2001F0C2F801220821204601F024
:1007340025FC142001F0BAF83620FFF7CBFE002088
:10074400FFF7EAFE3A20FFF7C5FE0520FFF7E4FEB7
:10075400B220FFF7BFFE3A4B93E8030000908DF8F8
:10076400041005216846FFF7F9FE0320FFF772FF26
:10077400B720FFF7AFFE3520FFF7CEFEBB20FFF713
:10078400A9FE1920FFF7C8FEC020FFF7A3FE2C2006
:10079400FFF7C2FEC220FFF79DFE0120FFF7BCFE5B
:1007A400C320FFF797FE1220FFF7B6FEC420FFF721
:1007B40091FE2020FFF7B0FEC620FFF78BFE0F202E
:1007C400FFF7AAFED020FFF785FEA420FFF7A4FEC2
:1007D400A120FFF7A1FEE020FFF77CFE194BEC46B9
:1007E4000FCBACE80700ACF800300E216846FFF7E9
:1007F400B5FEE120FFF76EFE134BEC460FCBACE8E1
:100804000700ACF800300E216846FFF7A7FE212050
:10081400FFF760FE1120FFF75DFE1320FFF75AFE7D
:100824002920FFF757FE322001F040F80020FFF79F
:100834003DFF04B010BD00BF700400200000024062
:1008440088330008A4DB0008B4DB0008B0F5A07FFF
:100854001FD210B582B01446EF2901D902B010BDE1
:100864000B460246FFF7B6FE230A8DF804308DF8D6
:100874000540084C00221021204601F07FFB022194
:1008840001A8FFF76BFE01221021204601F076FB40
:10089400E4E77047000002402DE9F04F83B00F46B3
:1008A40016461D46BDF830B0A3EB0108B8F1000FA1
:1008B400B8BFC8F10008A2EB0009B9F1000FB8BF36
:1008C400C9F10009C84503DC15461E46074608461B
:1008D400AF4205D83346064618462B463D461F46CA
:1008E4007C1BA3B20093A0EB060ABAF1000FB8BFB9
:1008F400CAF1000AC4F3C03303FA84F464108642D4
:1009040021D34FF0FF3301930CE05A463146284679
:10091400FFF79CFFA4EB0A04A3B224B2002C0BDB68
:100924000135ADB2BD4211D8C845EEDD5A4629465F
:100934003046FFF78BFFEDE7019A1644B6B2009AF2
:1009440013441CB2ECE701230193EBE703B0BDE8C9
:10095400F08F00002DE9F04383B007460D4614469E
:100964001E46BDF82880DFF85C900022102148461E
:1009740001F004FBCDF800802B4622462946384678
:10098400FFF78AFFCDF8008033463A4629463846B9
:10099400FFF782FFCDF800803346224631463846C1
:1009A400FFF77AFFCDF800803346224629462046D9
:1009B400FFF772FF01221021484601F0DFFA03B06D
:1009C400BDE8F083000002402DE9F04F87B0834674
:1009D4008A461E4694B2C2F10109C2EBC2335B00DF
:1009E4001BB2059313B2019300221021494801F070
:1009F400C5FA04EB0A01324689B25846FFF726FFCE
:100A0400AAEB0401324689B25846FFF71FFF04EBF4
:100A14000B003246514680B2FFF718FFABEB0400DF
:100A24003246514680B2FFF711FF0023029301239F
:100A340003935EE0019B013B1BB20193059B0233D0
:100A44001AB2059219FA83F90FFA89F9029B013354
:100A54009DB21BB20293039B02331AB2039219FA9A
:100A640083F90FFA89F905EB0B039BB2BDF8044037
:100A740004EB0A081FFA88F83246414604931846E4
:100A8400FFF7E4FEABEB0507BFB2324641463846FA
:100A9400FFF7DCFEAAEB04081FFA88F83246414649
:100AA4000498FFF7D3FE324641463846FFF7CEFEA0
:100AB40004EB0B07BFB205EB0A081FFA88F83246AD
:100AC40041463846FFF7C2FEABEB0404A4B23246FB
:100AD40041462046FFF7BAFEAAEB0505ADB2324601
:100AE40029463846FFF7B2FE324629462046FFF72C
:100AF400ADFE029B019A934203DAB9F1000F99DA31
:100B0400A4E701221021034801F038FA07B0BDE838
:100B1400F08F00BF00000240B0F5A07F2FD22DE976
:100B2400F04104460D4617461E46EF2906D88318A1
:100B3400B3F5A07F02DC8B19F02B01DDBDE8F08159
:100B4400DFF83C8000221021404601F017FAE21938
:100B540092B2AB199BB2013B013A9BB292B22946C5
:100B64002046FFF737FD06FB07F149000698FFF71B
:100B7400F5FC01221021404601F000FADEE770473F
:100B84000000024082B02DE9F04F83B004460E46C7
:100B940093460D93BDF83C80BDF8407000221021AF
:100BA400244801F0EBF99DF834502A1992B29DF8CB
:100BB40035A00AEB06039BB2013B013A9BB292B209
:100BC40031462046FFF706FD4FF000091DE03B0AC1
:100BD4008DF804308DF80570022101A8FFF7BEFCE2
:100BE4000134A5420FD906FA04F313F4004FEED0F2
:100BF4004FEA18238DF804308DF80580022101A8EE
:100C0400FFF7ACFCECE709F10109CA4508D9ABF1DF
:100C140020030AFB03930E9A32F813600024E0E7E2
:100C240001221021034801F0A9F903B0BDE8F04FF7
:100C340002B070470000024082B02DE9F04385B055
:100C440006460D4617460D93BDF83C90BDF840800E
:100C540000221021184801F091F910E00137002614
:100C64000DE0CDF80880CDF804900E9B00930D9B09
:100C740029463046FFF786FF3444A6B201373A7856
:100C840082B19DF834403319B3F5A07FE9DB9DF8B8
:100C940035301D44ADB22B44EF2B03DC202ADDD0CC
:100CA4000026DEE701221021034801F067F905B0B0
:100CB400BDE8F04302B07047000002402DE9F04364
:100CC40083B005460F4690461E46BDF82890002284
:100CD4001021194801F052F9B5F5A07F29D2EF2F60
:100CE40027D805EB0803B3F5A07F03DBC5F5A0788F
:100CF4001FFA88F8BB19EF2B02DDC7F1F006B6B274
:100D040000240DE00CEB070189B208EB0502CDF8D5
:100D140000900B4692B22846FFF7BEFD0134E4B2C0
:100D24001FFA84FCB445EDD901221021024801F0D8
:100D340025F903B0BDE8F083000002402DE9F04F2F
:100D440083B004460D4616461F46BDF830A0BDF8D4
:100D540034B0BDF83880DFF84C90002210214846AA
:100D640001F00CF9CDF800803B4632462946204676
:100D7400FFF792FDCDF800805B4652463946304677
:100D8400FFF78AFDCDF800802B462246594650468F
:100D9400FFF782FD01221021484601F0EFF803B06D
:100DA400BDE8F08F000002402DE9F04F8BB00746FC
:100DB4000E4691469846BDF850300593BDF8543020
:100DC4000693BDF85830079300221021374801F0EC
:100DD400D5F8A9EB070ABAF1000FB8BFCAF1000AA7
:100DE4000FFA8AFAA8EB060BBBF1000FB8BFCBF1E0
:100DF400000B0FFA8BFB3CB235B2B94512D3012379
:100E04000893B04512D301230993DA4512DB0AEBA8
:100E1400DA7646F34F06089B039300230893049362
:100E240000271CE04FF0FF330893EAE74FF0FF334D
:100E34000993EAE70BEBDB7646F34F065346DA46B3
:100E44009B46099B0493002309930393E8E7039BC0
:100E54001C4424B2049B1D442DB201373FB2BA4551
:100E64001CDB1FFA84F91FFA85F8079B0093069B85
:100E7400059A41464846FFF70FFD5E44B3B236B2C9
:100E8400B245E4DCA3EB0A031EB2089B09EB03049E
:100E940024B2099B08EB03052DB2D8E701221021E7
:100EA400024801F06BF80BB0BDE8F08F000002407F
:100EB4002DE9F04F87B080460F46144602929B46B8
:100EC40000221021494801F059F8A5B2C5F10104E6
:100ED40024B2C5EBC5335B001BB205931FFA88F837
:100EE400BFB2E9195A4689B24046FFF7AFFC791BF5
:100EF4005A4689B24046FFF7A9FC05EB0806B6B28C
:100F04005A4639463046FFF7A1FCA8EB0505ADB2B9
:100F14005A4639462846FFF799FCCDF800B03B46BF
:100F2400324639462846FFF7B7FC002303930123D2
:100F340004934BE0029B013B1BB20293059B0233DB
:100F44001AB2059214FA83F424B2039B01339DB2BE
:100F54001BB20393049B02331AB2049214FA83F46F
:100F640024B2A8EB050A1FFA8AFABDF80860B91979
:100F740089B208EB05091FFA89F9CDF800B00B46D0
:100F84004A465046FFF788FCB91B89B2CDF800B039
:100F94000B4652464846FFF77FFC08EB06091FFA4A
:100FA40089F9791989B2A8EB0606B6B2CDF800B072
:100FB4000B4632464846FFF76FFC791B89B2CDF8E1
:100FC40000B00B4632464846FFF766FC039B029A84
:100FD400934202DA002CADDAB7E70122102103486C
:100FE40000F0CCFF07B0BDE8F08F00BF0000024066
:100FF4002DE9F04784B04FF6FF70FFF757FB4FF42D
:101004007A7000F053FCAD4C4FF6FF7502954FF427
:1010140078460196636800932368A94A14210A203C
:10102400FFF70AFE4FF47A7000F040FC47F6FF70B9
:10103400FFF73CFB4FF4FA7000F038FC3046FFF742
:1010440035FB4FF4FA7000F031FC1F20FFF72EFB44
:101054004FF4FA7000F02AFC4FF4FC60FFF726FB13
:101064004FF4FA7000F022FC4FF6E070FFF71EFB1D
:101074004FF4FA7000F01AFC4BF64040FFF716FBF1
:101084004FF4FA7000F012FC40F2CF10FFF70EFBA1
:101094004FF4FA7000F00AFC4FF61F00FFF706FB4E
:1010A4004FF4FA7000F002FC48F21F40FFF7FEFA1A
:1010B4004FF4FA7000F0FAFB4CF21860FFF7F6FAFE
:1010C4004FF4FA7000F0F2FB42F61230FFF7EEFA3A
:1010D4004FF4FA7000F0EAFB2846FFF7E7FA4FF402
:1010E400FA7000F0E3FB774F029540F2FF7301932F
:1010F4007B6800933B68744A0A210846FFF79CFD0D
:10110400724BDFF8CC91029501965A6800921B68E5
:101114004A4632210A20FFF78FFD02954FF6E07808
:10112400CDF804806368009323684A464B210A2063
:10113400FFF782FD02954FF61F0301937B6800932E
:101144003B684A4664210A20FFF776FD4FF47A7023
:1011540000F0ACFB3046FFF7A9FA00270297CDF860
:1011640004806368009323685A4A0A210846FFF7FB
:1011740063FD009564231A461E210846FFF7EAFB27
:101184004FF47A7000F092FB3046FFF78FFA029723
:10119400CDF804806368009323684F4A0A21084607
:1011A400FFF74AFD009532231A461E210846FFF731
:1011B40085FD4FF47A7000F079FB3046FFF776FA3C
:1011C4000297CDF80480636800932368434A0A2198
:1011D4000846FFF731FD2B4619223C210846FFF74C
:1011E400F3FB4FF47A7000F061FB3046FFF75EFAD0
:1011F4000297CDF80480636800932368384A0A2173
:101204000846FFF719FD2B4619223C210846FFF733
:101214004FFE4FF47A7000F049FB3046FFF746FA70
:101224000297CDF804806368009323682D4A0A214D
:101234000846FFF701FD02954FF0280ACDF804A0F7
:101244004FF03C09CDF8009046231E22114610466B
:10125400FFF774FD4FF47A7000F028FB3046FFF777
:1012640025FA0297CDF804806368009323681E4A28
:101274000A210846FFF7E0FC0295CDF804A0CDF85A
:10128400009046231E2211461046FFF78DFD4FF4B1
:101294007A7000F00BFB2846FFF708FA134B009313
:1012A40080231A4639463846FFF736FC40F6B830F4
:1012B40000F0FCFA04B0BDE8F08700BF0000002095
:1012C400C4DB000808000020D0DB00081000002068
:1012D400DCDB0008ECDB0008F8DB000808DC0008B5
:1012E40010DC00081CDC000828DC0008A45B0008F3
:1012F40010B582B0002401940D4B1A6B42F48002A5
:101304001A631B6B03F480030193019B224621465D
:10131400382000F0F1FA382000F026FB224621465E
:101324003B2000F0E9FA3B2000F01EFB02B010BDA8
:101334000038024030B589B0002403940494059425
:10134400069407940094184B1A6B42F004021A6333
:101354001A6B02F004020092009A01941A6B42F094
:1013640080021A631A6B02F080020192019A0294BD
:101374001A6B42F001021A631B6B03F00103029320
:10138400029B0A4D22461E21284600F0F7FD1E232B
:101394000393012304930594069403A9284600F0BB
:1013A4000DFD09B030BD00BF00380240000002400E
:1013B40072B6FEE700B595B03022002108A801F00E
:1013C40013FF002303930493059306930793019358
:1013D400204A116C41F080511164126C02F0805269
:1013E4000192019A02931C4A136823F4404343F484
:1013F40000431360136803F440430293029B0123E8
:1014040008934FF48033099302230E934FF480031F
:101414000F93192310934FF4FA7311930423129327
:10142400139308A800F0B0FD80B90F2303930221A1
:101434000491002305934FF4A0520692079303A846
:1014440000F0F0FF20B915B05DF804FBFFF7B0FF22
:10145400FFF7AEFF003802400070004008B500F00E
:10146400F9F9FFF7A7FFFFF765FFFFF741FF00F06A
:1014740013F800F02BF9074C64220C212046FFF7E7
:1014840004F90C21204601F0ABFDFFF739F9FFF711
:10149400AFFDFEE70812002008B50E480E4B0360AE
:1014A4004FF48273436000238360C36002220261AD
:1014B40043614FF400728261C361036243628362D9
:1014C4000A23C36201F0FCF800B908BDFFF770FFFE
:1014D400FBE700BFB01100200030014030B589B0F7
:1014E4000023039304930593069307930268314BF7
:1014F4009A4201D009B030BD04460025019503F598
:1015040084335A6C42F480525A645A6C02F4805206
:101514000192019A02951A6B42F001021A631B6B45
:1015240003F001030293029BE02303930223049339
:10153400032306930523079303A91F4800F03EFCE9
:101544001E481F4B03604FF0C06343608560C56055
:101554004FF48063036145618561C5614FF4403395
:101564000362456200F0A0FAE8B9144BE3649C639B
:101574001448154B03604FF0C063436040238360FD
:101584000023C3604FF48062026143618361C361DD
:101594004FF440320262436200F086FA30B9094BDC
:1015A400A3649C63A6E7FFF703FFDEE7FFF700FFF2
:1015B400F5E700BF0030014000000240F0100020B9
:1015C40010640240501100205864024082B000218F
:1015D40000910B4B5A6C42F480425A645A6C02F4E8
:1015E40080420092009A01911A6C42F080521A646F
:1015F4001B6C03F080530193019B02B0704700BF42
:1016040000380240FEE7FEE7FEE7FEE7FEE770472C
:101614007047704708B500F037F908BD08B50248AF
:1016240000F0DEFA08BD00BFF010002008B5024843
:1016340000F0D6FA08BD00BF50110020704700002A
:101644000268094B9A4200D0704782B0002301938C
:10165400064B5A6C42F001025A645B6C03F00103BE
:101664000193019B02B07047000001400038024022
:1016740000B587B000230193029303930493059369
:1016840002680F4B9A4202D007B05DF804FB0023B6
:1016940000930C4B1A6B42F001021A631B6B03F0AC
:1016A40001030093009B4FF4006301930223029310
:1016B4000123059301A9044800F080FBE4E700BF7F
:1016C40000000140003802400000024010B596B00E
:1016D400002412941394149415941094119409945E
:1016E4000A940B940C940D940E940F94202221468A
:1016F40001A801F079FD2D482D4B03600B234360B5
:1017040084606323C36004614461846101F0D6FA98
:10171400002838D14FF48053129312A9234801F0C2
:10172400D1FB002832D1214801F0F4FA002830D14D
:1017340000231093119310A91C4801F0C9FC58BB55
:101744006023099332230A9300230B930D930E9382
:101754000F930C2209A9154801F03AFBF8B90023AC
:10176400019302930393049305934FF4005206925A
:10177400089301A90D4801F0E9FC98B90B48FFF75B
:1017840077FF16B010BDFFF713FEC3E7FFF710FE97
:10179400C9E7FFF70DFECBE7FFF70AFED0E7FFF737
:1017A40007FEDCE7FFF704FEE8E700BF08120020AD
:1017B40000000140DFF834D00D480E490E4A0023E2
:1017C40002E0D458C4500433C4188C42F9D30B4AF1
:1017D4000B4C002301E013600432A242FBD3FFF759
:1017E4002DFF01F0DDFCFFF739FE704700000120FA
:1017F400000000205404002064DC0008540400208D
:1018040058120020FEE7000010B504460E4B18786D
:101814004FF47A73B3FBF0F30C4A1068B0FBF3F0A7
:1018240000F0B0F868B90F2C01D901200AE00022B9
:1018340021464FF0FF3000F05FF8054B1C6000209C
:1018440000E0012010BD00BF200000201C0000208B
:101854002400002008B50B4B1A6842F400721A6089
:101864001A6842F480621A601A6842F480721A603C
:10187400032000F02FF80F20FFF7C6FFFFF7A6FEA6
:10188400002008BD003C0240034A1168034B1B784A
:101894000B441360704700BF50120020200000204A
:1018A400014B1868704700BF5012002038B5044639
:1018B400FFF7F6FF0546B4F1FF3F02D0044B1B7857
:1018C4001C44FFF7EDFF401BA042FAD338BD00BF14
:1018D40020000020074AD36823F4E0631B041B0C98
:1018E400000200F4E060034343F0BF6343F40033B9
:1018F400D360704700ED00E000B5194BDB68C3F31B
:101904000223C3F1070CBCF1040F28BF4FF0040CF1
:1019140003F1040EBEF1060F18D9033B4FF0FF3E4E
:101924000EFA0CFC21EA0C0199400EFA03F322EAA8
:101934000303194300280BDB0901C9B200F160401D
:1019440000F5614080F800135DF804FB0023E5E72F
:1019540000F00F000901C9B2024B1954F4E700BFAB
:1019640000ED00E014ED00E0002807DB00F01F02AA
:10197400400901239340024A42F82030704700BFD7
:1019840000E100E00138B0F1807F0BD24FF0E0239A
:101994005861054AF02182F823100020986107223B
:1019A4001A6170470120704700ED00E030B405680B
:1019B4002C6824F480242C60046863608368402BC2
:1019C40005D0036899600368DA6030BC7047036827
:1019D4009A600368D960F8E710B40368D9B2103983
:1019E4000B4AA2FB014212090A4CA25CC2655F29A0
:1019F40008D923F47F7323F0030304338365806DD4
:101A040010BC704723F47F7323F003038365F6E768
:101A1400ABAAAAAA44DC0008836A826992B9012BA2
:101A24000AD0022B02D00BB100207047C36A13F016
:101A3400807F28D100207047C36AB3F1C07F24D0CF
:101A440000207047B2F5005F09D0022B25D9032B83
:101A540025D1C36A13F0807F23D100207047032B64
:101A640003D8DFE803F01404140A00207047C36AA3
:101A740013F0807F0DD100207047C36AB3F1C07F9B
:101A840009D00020704701207047012070470120D1
:101A940070470120704701207047012070470020E3
:101AA400704701207047000070B50446FFF7F8FE48
:101AB400002C5BD00546022384F83530002384F8DB
:101AC40034302268136823F00103136023681A6812
:101AD40012F0010F0AD0FFF7E3FE431B052BF5D9E3
:101AE40020236365032084F8350070BD1A682048FC
:101AF40010406168A2680A43E1680A4321690A4305
:101B040061690A43A1690A43E1690A43216A0A43F4
:101B14000243616A04291ED01A602668756925F09B
:101B24000705636A1D43042B07D1A36A1D43E36AB7
:101B34001BB12046FFF770FF90B975612046FFF78F
:101B44004BFFE26D3F2393408360002060650123D7
:101B540084F83530C9E7E16A206B01430A43DBE7C7
:101B640040236365012084F83500BEE70120BCE70B
:101B74003F8010F038B50446856D90F83400012894
:101B84002BD0012084F8340094F83500C0B2012829
:101B940004D0002384F83430022038BD022084F8B5
:101BA4003500002060652046FFF700FFE26D3F230B
:101BB4009340AB602268136843F016031360236CF0
:101BC40023B12268136843F0080313602268136882
:101BD40043F0010313600020DFE70220DDE700008B
:101BE400F0B583B0044600230193724B1D68724B19
:101BF400A3FB0535AD0A876D3E68C26D082393408B
:101C0400334210D003681A6812F0040F0BD01A681C
:101C140022F004021A60C26D08239340BB60436D36
:101C240043F001034365E26D01239340334209D03D
:101C34002268526912F0800F04D0BB60636D43F0D8
:101C440002036365E26D04239340334209D02268A2
:101C5400126812F0020F04D0BB60636D43F00403FA
:101C64006365E26D10239340334224D022681268E6
:101C740012F0080F1FD0BB6023681A6812F4802F7B
:101C84000DD01B6813F4002F04D1236C9BB12046A4
:101C9400984710E0A36C73B1204698470BE01A688C
:101CA40012F4807F03D11A6822F008021A60236CB0
:101CB4000BB120469847E26D20239340334255D020
:101CC4002268126812F0100F50D0BB6094F83530BF
:101CD400DBB2052B0ED023681A6812F4802F33D0A0
:101CE4001B6813F4002F2AD1636C002B3ED02046CE
:101CF40098473BE02268136823F0160313602268B8
:101D0400536923F080035361236CA3B122681368E1
:101D140023F008031360E26D3F239340BB6001236B
:101D240084F83530002384F83430236D002B3FD001
:101D3400204698473CE0A36C002BE7D1EBE7E36B2C
:101D4400A3B12046984711E01A6812F4807F09D1A4
:101D54001A6822F010021A60012384F83530002337
:101D640084F83430E36B0BB120469847636DFBB1C4
:101D7400636D13F0010F17D0052384F83530226802
:101D8400136823F001031360019B01330193AB42F9
:101D940004D823681B6813F0010FF5D1012384F8DC
:101DA4003530002384F83430E36C0BB12046984777
:101DB40003B0F0BD1C000020B5814E1B00230F2B87
:101DC40000F2D28070B582B060E085685E000324C2
:101DD400B44025EA0405CC68B4402C4384604568CB
:101DE40025EA02054C68C4F300129A402A43426073
:101DF4005AE0DC08083450F8246003F00702950028
:101E04000F22AA4026EA020E0A69AA4042EA0E02FA
:101E140040F824205CE0042200E0002202FA0EF2E2
:101E24002A430234514D45F82420514A94686FEAFC
:101E34000C0224EA0C054E6816F4801F01D04CEA0B
:101E440004054B4CA560E46802EA04054E6816F4E8
:101E5400001F01D04CEA0405454CE560646802EAC1
:101E640004054E6816F4003F01D04CEA0405404CCA
:101E74006560246822404D6815F4803F01D04CEA27
:101E840004023B4C226001330F2B6BD801229A4091
:101E94000C6804EA020C32EA0404F4D14C6804F03D
:101EA4000304013C012C90D94A6802F00302032A7E
:101EB40009D0C4685D000322AA4024EA02048A68A7
:101EC400AA402243C2604A6802F00302022A90D068
:101ED40004684FEA430E032202FA0EF224EA0204D3
:101EE4004A6802F0030202FA0EF2224302604A68D0
:101EF40012F4403FC7D0002201921E4A546C44F4AD
:101F040080445464526C02F480420192019A9C0809
:101F1400A51C164A52F8255003F003024FEA820E1C
:101F24000F2202FA0EF225EA0205134A90423FF408
:101F340074AF02F5806290420ED002F58062904246
:101F44000CD002F5806290420AD002F58062904281
:101F54003FF461AF072261E701225FE702225DE7F8
:101F640003225BE702B070BD704700BF0038014038
:101F7400003C014000380240000002400AB1816187
:101F84007047090481617047002800F0E08170B552
:101F940082B00446036813F0010F3BD09F4B9B684B
:101FA40003F00C03042B2CD09C4B9B6803F00C0314
:101FB400082B21D06368B3F5803F4FD0B3F5A02F31
:101FC40052D0964B1A6822F480321A601A6822F4AE
:101FD40080221A606368002B50D0FFF761FC05462D
:101FE4008E4B1B6813F4003F14D1FFF759FC401BC0
:101FF4006428F5D90320B1E1884B5B6813F4800FA2
:10200400D8D0864B1B6813F4003F03D06368002BC1
:1020140000F09F81236813F0020F54D07F4B9B681C
:1020240013F00C0F3ED07D4B9B6803F00C03082B80
:1020340033D0E368002B68D0794B01221A60FFF794
:102044002FFC0546754B1B6813F0020F54D1FFF7A4
:1020540027FC401B0228F5D903207FE16F4A13684F
:1020640043F480331360B5E76C4B1A6842F4802262
:102074001A601A6842F480321A60ABE7FFF710FC6A
:102084000546664B1B6813F4003FC3D0FFF708FCFA
:10209400401B6428F5D9032060E1604B5B6813F4AE
:1020A400800FC6D15D4B1B6813F0020F03D0E368A9
:1020B400012B40F05081594A136823F0F803216939
:1020C40043EAC1031360236813F0080F42D0636925
:1020D4006BB3534B0122C3F8802EFFF7E1FB054697
:1020E4004E4B5B6F13F0020F34D1FFF7D9FB401B4B
:1020F4000228F5D9032031E1484A136823F0F80394
:10210400216943EAC1031360DDE7454B00221A60ED
:10211400FFF7C6FB0546414B1B6813F0020FD2D0F4
:10212400FFF7BEFB401B0228F5D9032016E13C4B08
:102134000022C3F8802EFFF7B3FB0546374B5B6FD5
:1021440013F0020F06D0FFF7ABFB401B0228F5D9B2
:10215400032003E1236813F0040F77D02F4B1B6C8B
:1021640013F0805F33D1002301932C4B1A6C42F09F
:1021740080521A641B6C03F080530193019B012568
:10218400284B1B6813F4807F23D0A368012B34D021
:10219400052B38D0214B1A6F22F001021A671A6FEF
:1021A40022F004021A67A368002B3DD0FFF778FBE6
:1021B40006461A4B1B6F13F0020F46D1FFF770FB54
:1021C400801B41F288339842F3D90320C6E00025EE
:1021D400D6E7144A136843F480731360FFF760FB77
:1021E4000646104B1B6813F4807FCED1FFF758FBD3
:1021F400801B0228F5D90320B0E0084A136F43F08E
:1022040001031367CFE7054B1A6F42F004021A6704
:102214001A6F42F001021A67C5E700BF0038024096
:102224000000474200700040FFF73AFB0646524B5D
:102234001B6F13F0020F08D0FFF732FB801B41F233
:1022440088339842F3D9032088E0EDB9A369002BC1
:1022540000F08380484A926802F00C02082A51D0A8
:10226400022B17D0454B00221A66FFF719FB0446D0
:10227400414B1B6813F0007F42D0FFF711FB001B9A
:102284000228F5D9032069E03B4A136C23F08053FC
:102294001364DBE7394B00221A66FFF701FB05469E
:1022A400354B1B6813F0007F06D0FFF7F9FA401B8B
:1022B4000228F5D9032051E0E369226A1343626AD4
:1022C40043EA8213A26A5208013A43EA0243E26AE9
:1022D40043EA0263284A5360284B01221A66FFF737
:1022E400DFFA0446244B1B6813F0007F06D1FFF786
:1022F400D7FA001B0228F5D903202FE000202DE097
:1023040000202BE0012B2BD01B4B5B6803F48001D6
:10231400E269914226D103F03F02216A8A4223D125
:10232400616A47F6C0721A40B2EB811F1ED103F4F2
:102334004031A26A5208013AB1EB024F18D103F0BE
:102344007063E26AB3EB026F14D1002006E001204F
:102354007047012002E0012000E0002002B070BDBF
:102364000120FBE70120F9E70120F7E70120F5E769
:102374000120F3E70120F1E7003802400000474262
:1023840008B5254B9B6803F00C03042B3FD0082BA6
:102394003FD1214B5A6802F03F025B6813F4800F6F
:1023A40012D01D4B5968C1F388111C480023A1FBAE
:1023B4000001FDF70DFF184B5B68C3F301430133C4
:1023C4005B00B0FBF3F025E0134B5968C1F3881CA4
:1023D4004FEA4C11B1EB0C006EEB0E0E4FEA8E136C
:1023E40043EA90638101091A63EB0E03DB0043EABD
:1023F4005173C90011EB0C0C43F100039902002343
:102404004FEA8C2041EA9C51FDF7E2FED3E70348F2
:1024140000E0034808BD00BF0038024040787D0159
:102424000024F400002800F09B8070B50D4604469B
:102434004F4B1B6803F007038B4208D2CBB24C4AC4
:102444001370136803F007038B4240F08B802368FA
:1024540013F0020F17D013F0040F04D0454A936809
:1024640043F4E0539360236813F0080F04D0414A07
:10247400936843F4604393603E4A936823F0F00307
:10248400A1680B439360236813F0010F32D0636893
:10249400012B21D09A1E012A25D9364A126812F03E
:1024A400020F61D033498A6822F0030213438B6020
:1024B400FFF7F6F906462F4B9B6803F00C0362689E
:1024C400B3EB820F16D0FFF7EBF9801B41F2883390
:1024D4009842F0D9032042E0264A126812F4003FE1
:1024E400E0D101203BE0234A126812F0007FD9D1E9
:1024F400012034E01E4B1B6803F00703AB4207D9ED
:10250400EAB21B4B1A701B6803F00703AB422DD1D0
:10251400236813F0040F06D0164A936823F4E0539B
:10252400E1680B439360236813F0080F07D0114A46
:10253400936823F46043216943EAC1039360FFF77E
:102544001FFF0C4B9B68C3F303130B4AD35CD840A7
:102554000A4B18600A4B1868FFF756F9002070BD43
:10256400012070470120FAE70120F8E70120F6E78F
:10257400003C02400038024034DC00081C0000200B
:10258400240000202DE9F04782B00546884617460E
:102594001E46FFF785F90A9B1B1A03EB0609FFF792
:1025A4007FF982462B4B1B68C3F3CB3309FB03F340
:1025B40001932B689C6838EA04030CBF4FF0010CAC
:1025C4004FF0000CBC4540D0B6F1FF3FF1D0FFF70F
:1025D40067F9A0EB0A0048450AD2B9F1000F07D009
:1025E400019A02B14A46019B013B01939146E0E7FF
:1025F4002A68536823F0E00353606B68B3F5827F65
:102604000BD0AB6AB3F5005F14D0012385F85130C9
:10261400002385F85030032018E0AB68B3F5004F71
:1026240002D0B3F5806FECD12A68136823F040031D
:102634001360E6E72A68136823F4005313602A68DA
:10264400136843F400531360DFE7002002B0BDE8D1
:10265400F08700BF1C00002010B584B00446164B60
:102664001868164BA3FB0030400D4FF47A7303FB3C
:1026740000F003906368B3F5827F0BD0039BBBB17A
:10268400039B013B039323689B6813F0800FF5D1F0
:1026940000200EE000920B46002280212046FFF726
:1026A40071FF30B1636D43F020036365032000E0E4
:1026B400002004B010BD00BF1C000020819F5E16E6
:1026C40000285AD010B50446436A33B94368B3F5B9
:1026D400827F05D00023C36102E0002303614361CC
:1026E4000023A36294F85130002B40D0022384F8D5
:1026F40051302268136823F040031360636803F4C5
:102704008273A26802F404421343E26802F4006292
:102714001343226902F002021343626902F00102C8
:102724001343A26902F400721343E26902F038020F
:102734001343226A02F080021343A26A02F4005295
:10274400216813430B60638B03F00403626A02F095
:102754001002216813434B602268D36923F4006399
:10276400D36100206065012384F8513010BD84F8E2
:1027740050302046FEF7B2FEB8E7012070472DE93D
:10278400F04383B01D4690F85030012B00F0D18007
:10279400044688469146012380F85030FFF780F8BC
:1027A400074694F85160F6B2012E40F0AF80B8F1BC
:1027B400000F00F0AC80B9F1000F00F0A8800323F3
:1027C40084F8513000236365C4F83080A4F8349051
:1027D400A4F83690A363A387E38763642364A368A0
:1027E400B3F5004F1ED023681A6812F0400F03D1CE
:1027F4001A6842F040021A60E368B3F5006F1CD017
:10280400636813B1B9F1010F52D1226B23681278B6
:102814001A73236B01332363E38E9BB2013B9BB298
:10282400E38645E02268136823F0400313602268BE
:10283400136843F480431360D5E7636813B1B9F1B7
:10284400010F16D1226B23681288DA60236B0233DE
:102854002363E38E9BB2013B9BB2E38609E0FFF75F
:102864001FF8C01BA84202D3B5F1FF3F59D1002D78
:1028740059D0E38E9BB2002B33D023689A6812F0B0
:10288400020FECD0226B1288DA60236B02332363CD
:10289400E38E9BB2013B9BB2E386EAE7FFF700F8C5
:1028A400C01BA84202D3B5F1FF3F3ED1002D3ED05C
:1028B400E38E9BB2ABB123689A6812F0020FEDD09D
:1028C400226B12781A73236B01332363B4F836C076
:1028D4001FFA8CFC0CF1FF3C1FFA8CFCA4F836C0E8
:1028E400E6E73A4629462046FFF7B6FE08B120231C
:1028F4006365A36833B901932368DA6801929B681E
:102904000193019B636D13B9002600E002260123A5
:1029140084F85130002384F85030304603B0BDE8C9
:10292400F0830326F3E70326F1E70326EFE7032604
:10293400EDE70226F1E7000038B590F85030012B9E
:1029440061D00446012380F8503090F85150EDB224
:102954009D4252D1002951D0002A4FD0032380F840
:1029640051300023436501638286C28683634364D6
:1029740003648387C3878368B3F5004F2AD0A36CAD
:10298400224A1A64A36C224ADA63A36C214ADA64E9
:10299400A36C00221A652268E38E9BB20C32216B71
:1029A400A06CFFF7E7F80146F8B923681A6812F03B
:1029B400400F03D11A6842F040021A60226853683B
:1029C40043F0200353602268536843F002035360CA
:1029D4000D4613E00268136823F040031360026895
:1029E400136843F480431360C9E7636D43F0100335
:1029F4006365012384F8513000E00225002384F844
:102A04005030284638BD0225FBE700BF212A0008C4
:102A14004F2A00082D2A00087047704708B5806BBC
:102A2400FFF7FBFF08BD704708B5806B0268536869
:102A340023F003035360436D43F010034365012304
:102A440080F85130FFF7EFFF08BD30B583B005467D
:102A5400846BFEF725FF2B681B6813F4807F23D15A
:102A6400024621684B6823F020034B6021684B68C1
:102A740023F002034B6064212046FFF7EDFD18B1FB
:102A8400636D43F020036365A36833B9019323683E
:102A9400DA6801929B680193019B0023E38601237A
:102AA40084F85130636D23B92046FFF7B5FF03B0B6
:102AB40030BD2046FFF7B7FFF9E7000070B4036AA2
:102AC40023F001030362036A4668826922F07302F9
:102AD4000C6844EA020523F002028B6813430D4C90
:102AE400A04209D00B4CA0420DD0466085614A68D3
:102AF4004263036270BC704723F00803CA6813433F
:102B040023F00403EEE726F440764A6932438E69E3
:102B14001643EAE70000014030B4036A23F48073EB
:102B24000362036A4568C26922F073020C68224397
:102B340023F400738C6843EA04230F4CA04209D0A9
:102B44000D4CA0420ED04560C2614A68C263036264
:102B540030BC704723F40063CC6843EA042323F4B5
:102B64008063EDE725F440554C6945EA04158C690A
:102B740045EA0415E7E700BF0000014030B4036AEA
:102B840023F480530362036A4468C26922F4E64270
:102B94000D6842EA052223F400538D6843EA0533A5
:102BA400074DA84206D04460C2614A6802640362C9
:102BB40030BC704724F480444D6944EA8514F2E73C
:102BC4000000014010B4036A046A24F001040462A2
:102BD400846924F0F00C4CEA021223F00A030B433C
:102BE4008261036210BC704710B4046A24F01004BC
:102BF40004628469036A24F4704C4CEA023223F0C0
:102C0400A00343EA01138261036210BC7047836826
:102C140023F070030B4343F007038360704770474E
:102C24000368254A90420ED0B0F1804F0BD0A2F534
:102C34007C42904207D002F58062904203D002F5B4
:102C44008062904203D123F070034A6813431A4A06
:102C540090421AD0B0F1804F17D0A2F57C42904236
:102C640013D002F5806290420FD002F58062904248
:102C74000BD002F59A32904207D002F5806290425E
:102C840003D002F58062904203D123F44073CA68F2
:102C9400134323F080034A69134303608B68C362C0
:102CA4000B688362044B984202D00123436170474E
:102CB4000B690363F9E700BF0000014040B310B59E
:102CC400044690F83D30F3B1022384F83D302146A8
:102CD40051F8040BFFF7A4FF012384F8463084F86D
:102CE4003E3084F83F3084F8403084F8413084F832
:102CF400423084F8433084F8443084F8453084F812
:102D04003D30002010BD80F83C30FEF799FCDBE735
:102D14000120704740B310B5044690F83D30F3B13C
:102D2400022384F83D30214651F8040BFFF778FF65
:102D3400012384F8463084F83E3084F83F3084F828
:102D4400403084F8413084F8423084F8433084F8C9
:102D5400443084F8453084F83D30002010BD80F8BC
:102D64003C30FFF75CFFDBE70120704730B4036AB7
:102D740023F010030362036A4468826922F4E64282
:102D84000D6842EA052223F020038D6843EA051307
:102D94000E4DA84209D00D4DA8420ED04460826168
:102DA4004A688263036230BC704723F08003CD68B5
:102DB40043EA051323F04003EDE724F440644D692E
:102DC40044EA85048D6944EA8504E7E7000001408C
:102DD40038B590F83C30012B66D004460D460123EB
:102DE40080F83C300C2A5AD8DFE802F007595959C8
:102DF4001B5959593059595944000068FFF75EFE70
:102E04002268936943F0080393612268936923F06D
:102E1400040393612268936929690B439361002039
:102E24003EE00068FFF7A2FF2268936943F4006361
:102E340093612268936923F48063936122689369A0
:102E4400296943EA01239361002029E00068FFF720
:102E540063FE2268D36943F00803D3612268D3690F
:102E640023F00403D3612268D36929690B43D36136
:102E7400002015E00068FFF781FE2268D36943F45F
:102E84000063D3612268D36923F48063D361226829
:102E9400D369296943EA0123D361002000E00120BA
:102EA400002384F83C3038BD0220FCE710B4846869
:102EB40024F47F4C42EA03220A4342EA0C02826071
:102EC40010BC704790F83C30012B78D010B5044604
:102ED400012380F83C30022380F83D300268936877
:102EE40023F47F4323F0770393600B68602B4CD06B
:102EF40029D8402B54D00CD9502B22D1CA68496808
:102F04000068FFF75FFE50212068FFF780FE002075
:102F140005E0202B0DD009D9302B0AD00120012344
:102F240084F83D30002384F83C3010BD0BB1102BE5
:102F340005D119462068FFF76AFE0020EFE701205B
:102F4400EDE70120EBE7B3F5805F34D0B3F5005F24
:102F54000CD1CB684A6889680068FFF7A7FF22682C
:102F6400936843F4804393600020D8E7702B24D106
:102F7400CB684A6889680068FFF798FF22689368FD
:102F840043F0770393600020C9E7CA684968006882
:102F9400FFF72AFE60212068FFF739FE0020BEE714
:102FA400CA6849680068FFF70DFE40212068FFF7F2
:102FB4002EFE0020B3E70020B1E70120AFE7022096
:102FC400704701F01F01012303FA01FC036A23EA9D
:102FD4000C030362036A02FA01F10B4303627047B4
:102FE40010B504460846002932D194F83E30DBB2CD
:102FF400013B18BF0123002B63D1002841D10223D8
:1030040084F83E30012201462068FFF7DAFF236886
:103014002E4A934245D023682C4A934246D0B3F1BA
:10302400804F43D0A2F57C4293423FD002F58062A8
:1030340093423BD002F58062934237D002F59A3234
:10304400934233D01A6842F001021A60002037E03C
:10305400042908D008290DD094F84130DBB2013B93
:1030640018BF0123C7E794F83F30DBB2013B18BF18
:103074000123C0E794F84030DBB2013B18BF0123C1
:10308400B9E7042805D0082807D0022384F8413082
:10309400B8E7022384F83F30B4E7022384F84030D1
:1030A400B0E75A6C42F400425A64B4E79A6802F0FA
:1030B4000702062A07D01A6842F001021A600020AB
:1030C40010BD0120FCE70020FAE700BF000001402A
:1030D40090F83C30012B34D010B4012380F83C30FC
:1030E400022380F83D3003685A689C6822F0700C13
:1030F4000A6842EA0C025A600368134A934212D0E7
:10310400B3F1804F0FD0A2F57C4293420BD002F56D
:103114008062934207D002F58062934203D002F5A5
:103124009A32934204D124F080044A6814439C6088
:10313400012380F83D30002380F83C30184610BC51
:1031440070470220704700BF0000014090F83C30F7
:10315400012B22D0012380F83C30CB6823F4407348
:103164008A68134323F480634A68134323F4006397
:103174000A68134323F480530A69134323F4005366
:103184004A69134323F48043CA69134302685364AE
:10319400002380F83C301846704702207047000036
:1031A40070B50D4E0D4D761BB61006D0002455F8A3
:1031B400043B01349847A642F9D1094E094D761BC8
:1031C40000F0D4F8B61006D0002455F8043B0134BE
:1031D4009847A642F9D170BD58DC000858DC0008B5
:1031E40060DC000858DC0008830730B548D0541E62
:1031F400002A3FD0CAB2034601E0013C3AD303F8A7
:10320400012B9D07F9D1032C2DD9CDB245EA052513
:103214000F2C45EA054536D9A4F1100222F00F0C13
:1032240003F1200EE6444FEA121C03F1100242E9B6
:10323400045542E9025510327245F8D10CF10102ED
:1032440014F00C0F03EB021204F00F0C13D0ACF1CA
:10325400040323F003030433134442F8045B93424E
:10326400FBD10CF003042CB1CAB21C4403F8012BAB
:103274009C42FBD130BD64461346002CF4D1F9E7DF
:1032840003461446BFE71A46A446E0E7024B13B1CF
:10329400024800F005B8704700000000B132000891
:1032A400002301461A46184600F01AB838B5084BF0
:1032B400084D5B1B9C1007D0043B1D44013C55F892
:1032C40004399847002CF9D1BDE8384000F054B8CF
:1032D40064DC000860DC0008704700BF704700BF72
:1032E4002DE9F047DFF87CA00646DAF8000098469E
:1032F4000F469146FFF7F0FF1B4B1B68D3F848417C
:1033040024B365681F2D26DC5EB96B1C0235DAF820
:103314000000636044F82570FFF7E0FF0020BDE87B
:10332400F08704EB85010123C1F88890D4F8882143
:10333400AB401A43022EC4F88821C1F80881E4D1B5
:10334400D4F88C211343C4F88C31DEE703F5A6745A
:10335400C3F84841D5E7DAF80000FFF7BFFF4FF0A4
:10336400FF30DCE7500400204CDC0008F8B500BF57
:10337400F8BC08BC9E467047F8B500BFF8BC08BC52
:043384009E467047AA
:103388000C0C0033330000000000000000000000B7
:103398000000000000000000000000000000000025
:1033A8000000000000000000000000000000000C09
:1033B800000C000C000C000C000C000C000C000CA5
:1033C800000C000C0000000C000C000000000000C5
:1033D8000000001B001B001B001B001B000000005E
:1033E80000000000000000000000000000000000D5
:1033F8000000000000008019801980198019C07F22
:10340800C07F80190033C07FC07F00330033003392
:1034180000330000000000000000001E003F80751F
:1034280080650074003C001E00078005806580658B
:103438008075003F001E00040004000000000070BA
:1034480000D840D8C0D880D900730006000C801B73
:10345800C036C066C046C0068003000000000000F9
:103468000000001E003F003300330033001E000C34
:10347800C03CC066806380618063C03E801C0000E1
:10348800000000000000000C000C000C000C000CF8
:103498000000000000000000000000000000000024
:1034A800000000000000000080000001000300068A
:1034B80000060004000C000C000C000C000C000CB2
:1034C8000004000600060003000180000020001030
:1034D8000018000C000C0004000600060006000698
:1034E800000600060004000C000C00180010002064
:1034F8000000000C002D003F001E003300000000FB
:1035080000000000000000000000000000000000B3
:1035180000000000000000000000000C000C000C7F
:10352800000CC0FFC0FF000C000C000C000C0000D9
:103538000000000000000000000000000000000083
:103548000000000000000000000000000000000073
:103558000000000C000C000400040008000000003B
:103568000000000000000000000000000000001E35
:10357800001E000000000000000000000000000025
:103588000000000000000000000000000000000033
:1035980000000000000000000000000C000C00000B
:1035A80000000000000000030003000300060006FE
:1035B80000060006000C000C000C000C0018001897
:1035C80000180000000000000000001E003F00334B
:1035D800806180618061806D806D806180618061C3
:1035E8000033003F001E000000000000000000063D
:1035F800000E001E00360026000600060006000623
:103608000006000600060006000600000000000094
:103618000000001E003F807380618061800100030C
:103628000006000C001800300060807F807F0000DA
:10363800000000000000001C003E0063006300035F
:10364800000E000E00038001800180618073003F3E
:10365800001E00000000000000000006000E000E22
:10366800001E001E0016003600360066807F807F30
:103678000006000600060000000000000000007FB1
:10368800007F006000600060006E007F8063800142
:10369800800180618073003F001E00000000000070
:1036A8000000001E003F803380610060006E007FD4
:1036B80080738061806180618033003F001E00005C
:1036C800000000000000807F807F8001000300036D
:1036D80000060006000C000C000C0008001800187A
:1036E80000180000000000000000001E003F80637A
:1036F800806180610021001E003F806180618061DF
:103708008061003F001E0000000000000000001E55
:10371800003F00738061806180618073803F801DFD
:10372800800180610073003F001E0000000000005F
:1037380000000000000000000000000C000C000069
:1037480000000000000000000000000C000C000059
:103758000000000000000000000000000000000061
:10376800000C000C00000000000000000000000C2D
:10377800000C000400040008000000000000000025
:1037880080008003000E003800600038000E8003BF
:1037980080000000000000000000000000000000A1
:1037A800000000000000807F807F00000000807F14
:1037B800807F000000000000000000000000000002
:1037C800000000000000000000400070001C00071E
:1037D80080010007001C007000400000000000008D
:1037E800000000000000001F803FC071C060C000E2
:1037F800C00180030007000E000C000C0000000C44
:10380800000C0000000000000000001E003F803196
:1038180080718063806F806D806D806F80670060CD
:103828000032003E001C0000000000000000000EF6
:10383800000E001B001B001B001B80318031803FE5
:10384800803F8031C060C060C060000000000000A0
:103858000000007C007E0063006300630063007E5C
:10386800007E0063806180618063007F007E0000CD
:10387800000000000000001E003F803180610060F1
:103888000060006000600060006080618031003F7F
:10389800001E0000000000000000007C007F0063A4
:1038A8008063806180618061806180618061006384
:1038B8000063007E007C0000000000000000807FA4
:1038C800807F0060006000600060007F007F006013
:1038D800006000600060807F807F000000000000C2
:1038E8000000807F807F0060006000600060007FD3
:1038F800007F006000600060006000600060000001
:10390800000000000000001E003F80318061006060
:103918000060006080638063806180618031803FE7
:10392800001E0000000000000000806180618061CE
:10393800806180618061807F807F8061806180613B
:103948008061806180610000000000000000003F8D
:10395800003F000C000C000C000C000C000C000CCC
:10396800000C000C000C003F003F000000000000AD
:1039780000008001800180018001800180018001B8
:1039880080018001806180618073003F001E00001B
:10399800000000000000C0608061006300660066EF
:1039A800006C0078007C00660066006380618061BE
:1039B800C0600000000000000000006000600060BF
:1039C80000600060006000600060006000600060EF
:1039D8000060807F807F0000000000000000C07150
:1039E800C071C07BC07AC06AC06AC06EC064C06063
:1039F800C060C060C060C060C0600000000000001F
:103A0800000080718071807980798079806D806D07
:103A1800806D806580678067806780638063000051
:103A2800000000000000001E003F0033806180613C
:103A38008061806180618061806180610033003FC6
:103A4800001E0000000000000000007E007F806370
:103A58008061806180618063007F007E006000601B
:103A68000060006000600000000000000000001E10
:103A7800003F003380618061806180618061806186
:103A8800806580670033803F401E00000000000012
:103A98000000007E007F8063806180618063007F1A
:103AA800007E00660063006380618061C060000082
:103AB800000000000000000E001F8031803100303F
:103AC8000038001E00078003806180618031003F5C
:103AD800001E0000000000000000C0FFC0FF000C36
:103AE800000C000C000C000C000C000C000C000C6E
:103AF800000C000C000C00000000000000008061B9
:103B080080618061806180618061806180618061A5
:103B1800806180618073003F001E0000000000008B
:103B28000000C060C060C060803180318031001BFF
:103B3800001B001B001B000E000E000E00040000FE
:103B4800000000000000C0C0C0C0C0C0C0C0C0C0ED
:103B5800C0CC804C804C805E8052805280738061E3
:103B680080610000000000000000C0C0806080612B
:103B78000033003B001E000C000C001E001F003B21
:103B880080718061C0C00000000000000000C0C05B
:103B98008061806100330033001E001E000C000CA1
:103BA800000C000C000C000C000C000000000000D1
:103BB8000000803F803F8001000300030006000CE6
:103BC800000C0018001800300060807F807F000023
:103BD80000000000000F000F000C000C000C000C8F
:103BE800000C000C000C000C000C000C000C000C6D
:103BF800000C000C000F000F00000018001800183F
:103C0800000C000C000C000C000600060006000664
:103C1800000300030003000000000000001E001E57
:103C2800000600060006000600060006000600065C
:103C3800000600060006000600060006001E001E1C
:103C48000000000C000C001E0012003300338061DD
:103C5800806100000000000000000000000000007B
:103C6800000000000000000000000000000000004C
:103C7800000000000000000000000000000000003C
:103C880000000000E0FF0000000000380018000CF1
:103C9800000000000000000000000000000000001C
:103CA800000000000000000000000000000000000C
:103CB800000000000000001F803F80618001801F1D
:103CC800803F80618063807FC03800000000000072
:103CD80000000060006000600060006E007F80737C
:103CE80080618061806180618073007F006E000068
:103CF8000000000000000000000000000000001E9E
:103D0800003F807380610060006080618073003FC5
:103D1800001E0000000000000000800180018001FA
:103D28008001801D803F8073806180618061806137
:103D38008073803F801D000000000000000000002C
:103D4800000000000000001E003F00738061807FBB
:103D5800807F00608071003F001E000000000000AE
:103D68000000C007C00F000C000C807F807F000C93
:103D7800000C000C000C000C000C000C000C0000E7
:103D8800000000000000000000000000801D803FCF
:103D9800807380618061806180618073803F801D55
:103DA80080018063007F003E0000006000600060CA
:103DB8000060006F807F80718061806180618061B8
:103DC8008061806180610000000000000000000642
:103DD800000600000000003E003E00060006000647
:103DE80000060006000600060006000000000000AD
:103DF8000006000600000000003E003E0006000627
:103E0800000600060006000600060006000600463A
:103E1800007E003C0000006000600060006080617F
:103E280000630066006C007C0076006300638061BC
:103E3800C0600000000000000000003E003E0006D8
:103E4800000600060006000600060006000600063A
:103E58000006000600060000000000000000000048
:103E680000000000000080DDC0FFC0CEC0CCC0CC88
:103E7800C0CCC0CCC0CCC0CCC0CC0000000000007E
:103E880000000000000000000000006F807F8071CB
:103E980080618061806180618061806180610000F3
:103EA8000000000000000000000000000000001EEC
:103EB800003F807380618061806180618073003F12
:103EC800001E0000000000000000000000000000CC
:103ED800006E007F80738061806180618061807383
:103EE800007F006E0060006000600060000000005D
:103EF80000000000801D803F8073806180618061C8
:103F080080618073803F801D800180018001800175
:103F1800000000000000000000000067803F00393A
:103F28000030003000300030003000300030000039
:103F38000000000000000000000000000000001E5B
:103F4800803F80610060007F803F80018061007F4A
:103F5800001E00000000000000000000000800181B
:103F68000018007F007F00180018001800180018BB
:103F78000018801F800F00000000000000000000F3
:103F880000000000000080618061806180618061C4
:103F9800806180618063807F803D000000000000B8
:103FA80000000000000000000000C0608031803187
:103FB8008031001B001B001B000E000E00060000D5
:103FC800000000000000000000000000000080DD8C
:103FD80080DD80DD00550055005500770077002210
:103FE80000220000000000000000000000000000A7
:103FF8000000806100330033001E000C000C001E1E
:104008000033003380610000000000000000000061
:104018000000000080618061803100330033001BA4
:10402800001B001B000E000E000E001C007C007020
:1040380000000000000000000000C07FC07F800179
:1040480000030006000C00180030C07FC07F00008D
:104058000000000080038007000600060006000636
:104068000006000E001C001C000E000600060006DC
:10407800000600068007800300060006000600060A
:1040880000060006000600060006000600060006F8
:104098000006000600060006000600060038003C80
:1040A800000C000C000C000C000C000E00070007B0
:1040B800000E000C000C000C000C000C003C00383A
:1040C8000000000000000000000000000000803830
:1040D800807F004700000000000000000000000092
:1040E80000000000000000000000000000000000C8
:1040F80000000000000000000000000000000000B8
:1041080000000000000000000000000000000000A7
:104118000000000000000000E003E003E003E0030B
:10412800E003E003E003E003C003C003C001C001F3
:10413800C001C001C001000000000000E003E0036E
:10414800E003000000000000000000003C1E3C1ED0
:104158003C1E3C1E3C1E3C1E3C1E00000000000095
:104168000000000000000000000000000000000047
:104178000000000000000000000000000000000037
:10418800CE01CE03DE039E039C039C07FF3FFF7F07
:104198003807380F780F780F780EFFFFFFFFF01EF3
:1041A800F01CE01CE03CE03DE039000000000000AD
:1041B80000000000FC03FE0FEE1FE01EE01EE01EE4
:1041C800E01EE01FE00FE007F003FC01FE01FE0126
:1041D800FE01FE01FE01FE01FE3DFC3FF00FE00185
:1041E800E001000000000000033E07F78FE78EE7BC
:1041F8009EE3BCE3B8E7F8E7F0F7E03FC001FF0350
:10420800FF07F307F30FF31EF33CF338F3787FF05F
:104218003FE000000000000000000000E007F80F89
:10422800780F781F781F781F780FF00FE00F801F26
:10423800C37FC3FBE7F3F7F1F7F0FFF07FF03EF839
:104248007F7CFF3FEF1F000000000000000000001F
:10425800E003E003E003E003E003C003C001000063
:104268000000000000000000000000000000000046
:104278000000000000000000000000000000000036
:10428800000000003F007C00F001E001C003C0070F
:1042980080078007800F000F000F000F000F000F2E
:1042A800000F800F80078007C007C003E001F001FE
:1042B8007C003F000F000000007E001FC007C00305
:1042C800E001F001F000F000F800780078007800D4
:1042D800780078007800F800F000F000F001E001C4
:1042E800C003C007001F007E00780000E003C00381
:1042F800C001CE39FF3F7F3F20037003F807780FD6
:104308003C1F38060000000000000000000000000C
:104318000000000000000000000000000000000095
:10432800000000000000000000000000C001C00103
:10433800C001C001C001C001C001FFFFFFFFC001F3
:10434800C001C001C001C001C001000000000000A0
:104358000000000000000000000000000000000055
:104368000000000000000000000000000000000045
:10437800000000000000E003E003E003E003E001C8
:10438800E001E001C001800300000000000000001F
:104398000000000000000000000000000000FE3FD8
:1043A800FE3F0000000000000000000000000000C8
:1043B80000000000000000000000000000000000F5
:1043C80000000000000000000000000000000000E5
:1043D8000000000000000000000000000000E003F2
:1043E800E003E003E003000000000000000000001C
:1043F8000F000F001E001E003C003C0078007800F3
:10440800F000F000E001E001C003C003800780076E
:10441800000F000F001E001E003C003C00780078D2
:1044280000F00000F007F80F7C1F3E3E1E3C1F7C8A
:104438001F7C0F780F780F780F780F780F780F7828
:104448001F7C1F7C1E3C3E3E7C1FF80FF0070000BF
:104458000000000000000000F000F007F03FF03F0F
:10446800F001F001F001F001F001F001F001F001BC
:10447800F001F001F001F001F001F001F001FF3F5F
:10448800FF3F00000000000000000000E00FF83FC0
:104498007C3C3C003E003E003E003C003C007C0072
:1044A800F800F001E003C0078007000F001E003E7F
:1044B800003CFE3FFE3F000000000000000000003E
:1044C800F00FF81F7C1C3E003E003E003C003C0004
:1044D800F800F00FF80F7C003E001E001E001E00C2
:1044E8001E003E007C1CF81FE01F000000000000BA
:1044F800000000007800F800F800F801F803F80759
:10450800F807780F781E781E783C78787878FFFF5F
:10451800FFFF7800780078007800780078000000C5
:104528000000000000000000FC1FFC1FFC1F001E14
:10453800001E001E001E001EE01FF81FFC007C006D
:104548003E003E001E003E003E003C007C1CF81F62
:10455800E01F00000000000000000000FC01FE0752
:104568008E0F001F001E003E003C003CF83DFC3F43
:104578003E7F1F7E0F3C0F3C0F3C0F3C0F3E1F1E23
:104588003E1FFC0FF00300000000000000000000C8
:10459800FF3FFF3FFF3F0F001E001E003C0038009A
:1045A8007800F000F000E001E001C003C0038007DC
:1045B800800F800F000F001F001F00000000000088
:1045C80000000000F807FC0F3E1F1E1E1E3E1E3E88
:1045D8001E1E3C1FF80FF007F80FFC1E3E3E1F3C46
:1045E8001F7C0F7C0F7C1F3C3E3FFC1FF007000028
:1045F8000000000000000000F007F80F7C1E3E3CA1
:104608001E3C1F7C1F7C1F7C1F7C1F3C3F3EFF1FE6
:10461800EF071F001E001E003E003C00F838F03F68
:10462800E01F000000000000000000000000000083
:104638000000000000000000E003E003E003E003E6
:104648000000000000000000000000000000E0037F
:10465800E003E003E00300000000000000000000A9
:10466800000000000000000000000000E003E0037C
:10467800E003E0030000000000000000000000006C
:104688000000E003E003E003E003E001E001E001F3
:10469800C0038003000000000000000000000000CC
:1046A80003000F003F00FC00F003C00F003F00FEB6
:1046B800003FC00FF003FC003F000F0003000000A4
:1046C80000000000000000000000000000000000E2
:1046D800000000000000000000000000FFFFFFFFD6
:1046E800000000000000FFFFFFFF000000000000C6
:1046F80000000000000000000000000000000000B2
:10470800000000000000000000E000F8007E801FAC
:10471800E007F8017E001F007E00F801E007801F17
:10472800007E00F800E0000000000000000000002B
:10473800F01FFC3F3E381F381F381E001E003C008B
:104748007800F000E001C003C003C007C007000004
:1047580000000000C007C007C007000000000000FC
:1047680000000000F803FE0F1E1F0F3E7F3CFF787D
:10477800EF79C773C7F38FF38FF38FF39FF39FF32B
:10478800FF73FF7BF779003C1C1FFC0FF803000048
:104798000000000000000000000000000000E0032E
:1047A800E003F007F007F007780F780F7C0E3C1E47
:1047B8003C1E3E3CFE3FFF3F1F780F780FF007F08E
:1047C80007F00000000000000000000000000000EA
:1047D8000000F83FFC3F3E3C1E3C1E3C1E3C3E3C5D
:1047E8007C3CF03FF83F7E3C1F3C1F3C0F3C0F3C9D
:1047F8001F3CFE3FF83F00000000000000000000E2
:10480800000000000000FF01FF07871F003E003C7A
:10481800007C00780078007800780078007C007CC4
:10482800003E003F831FFF07FF010000000000005B
:1048380000000000000000000000F07FFC7F7E7890
:104848001F781F780F780F780F780F780F780F7808
:104858000F780F781F781E787E78F87FE07F000049
:104868000000000000000000000000000000FF3F02
:10487800FF3F003E003E003E003E003E003EFE3F41
:10488800FE3F003E003E003E003E003E003EFF3F31
:10489800FF3F0000000000000000000000000000D2
:1048A8000000FF1FFF1F001E001E001E001E001E2E
:1048B800001EFF1FFF1F001E001E001E001E001E00
:1048C800001E001E001E0000000000000000000086
:1048D800000000000000FE03FF0F871F003E007C61
:1048E800007C007800F800F87FF87FF80F780F7CDC
:1048F8000F7C0F3E8F1FFF0FFE030000000000001B
:10490800000000000000000000001F7C1F7C1F7CCE
:104918001F7C1F7C1F7C1F7C1F7CFF7FFF7F1F7CF1
:104928001F7C1F7C1F7C1F7C1F7C1F7C1F7C000042
:104938000000000000000000000000000000FF3F31
:10494800FF3FE003E003E003E003E003E003E003EC
:10495800E003E003E003E003E003E003E003FF3FDC
:10496800FF3F000000000000000000000000000001
:104978000000FC1FFC1F7C007C007C007C007C008D
:104988007C007C007C007C007C007C007800780047
:10499800F838F03FC03F00000000000000000000B1
:1049A8000000000000001F3C1E3C3C3C783CF03CF2
:1049B800E03DE03FC03F803FC03FE03FF03DF03C7E
:1049C800783C7C3C3E3C1F3C0F3C00000000000053
:1049D80000000000000000000000003E003E003E15
:1049E800003E003E003E003E003E003E003E003ECF
:1049F800003E003E003E003E003EFF3FFF3F0000FD
:104A080000000000000000000000000000001FF887
:104A18001FFC1FFC3FFE3FFE3FFE7FFF77FF77FF37
:104A2800F7F7E7F7E7F3E7F3C7F307F007F007F05F
:104A380007F0000000000000000000000000000077
:104A480000000F7C0F7C0F7E0F7F0F7F8F7F8F7F83
:104A5800CF7FEF7BEF79FF79FF78FF787F783F781A
:104A68003F781F781F780000000000000000000059
:104A7800000000000000F007FC1F3E3E1F7C0F787E
:104A88000F780FF80FF80FF80FF80FF80FF80F78E6
:104A98000F781F7C3E3EFC1FF0070000000000005E
:104AA80000000000000000000000FC3FFF3F1F3E28
:104AB8000F3E0F3E0F3E0F3E1F3E3F3EFC3FF03F76
:104AC800003E003E003E003E003E003E003E00002C
:104AD8000000000000000000000000000000F007D7
:104AE800FC1F3E3E1F7C0F780F780FF80FF80FF869
:104AF8000FF80FF80FF80F780F781F7C3E3EFC1F59
:104B0800F8077C003F000F000300000000000000D1
:104B18000000F03FFC3F7E3C3E3C1E3C1E3C3E3CC1
:104B28003C3CFC3CF03FE03FF03DF83C7C3C3E3CEC
:104B38001E3C1F3C0F3C000000000000000000006D
:104B4800000000000000FC07FE1F0E3E003C003C79
:104B5800003C003EC01FF80FFE037F001F000F003F
:104B68000F001F203E3CFC3FF01F0000000000002B
:104B780000000000000000000000FFFFFFFFE0034E
:104B8800E003E003E003E003E003E003E003E00305
:104B9800E003E003E003E003E003E003E0030000D8
:104BA80000000000000000000000000000000F7C72
:104BB8000F7C0F7C0F7C0F7C0F7C0F7C0F7C0F7C95
:104BC8000F7C0F7C0F7C0F7C1E3C1E3C3E3EFC1F66
:104BD800F0070000000000000000000000000000D6
:104BE800000007F007F007F80F780F7C1E3C1E3C0A
:104BF8001E3E3C1E3C1F781F780FF80FF007F00789
:104C0800F007E003E00300000000000000000000DF
:104C180000000000000003E003F003F007F0E7F3F2
:104C2800E7F3E7F3E773F77BF77FFF7F7F7F7F7F0C
:104C38007E7F7E3F3E3E3E3E3E3E0000000000003E
:104C48000000000000000000000007F80F7C1E3E76
:104C58003E3E3C1FF80FF007E007E003E003F007D3
:104C6800F80F7C0F7C1E3E3C1F780F780FF0000079
:104C7800000000000000000000000000000007F82D
:104C880007780F7C1E3C1E3E3C1F780FF80FF0077C
:104C9800E003E003E003E003E003E003E003E003F4
:104CA800E003000000000000000000000000000019
:104CB8000000FF7FFF7F0F001F003E007C00F80010
:104CC800F000E001E003C007800F000F001E003E67
:104CD800007CFF7FFF7F0000000000000000000054
:104CE800FF07800780078007800780078007800705
:104CF8008007800780078007800780078007800774
:104D08008007800780078007800780078007FF07E4
:104D1800FF07000000780078003C003C001E001EE1
:104D2800000F000F80078007C003C003E001E00107
:104D3800F000F000780078003C003C001E001E00E7
:104D48000F000F0007000000F07FF000F000F000F7
:104D5800F000F000F000F000F000F000F000F000CB
:104D6800F000F000F000F000F000F000F000F000BB
:104D7800F000F000F000F07FF07F0000C000C001FC
:104D8800C001E003E003F007F0077807780F380F59
:104D98003C1E3C1E1E3C1E3C0F380F780778000056
:104DA80000000000000000000000000000000000FB
:104DB80000000000000000000000000000000000EB
:104DC80000000000000000000000000000000000DB
:104DD80000000000000000000000FFFFFFFF0000CF
:104DE80000000000F00000000000000000000000CB
:104DF80000000000000000000000000000000000AB
:104E0800000000000000000000000000000000009A
:104E1800000000000000000000000000000000008A
:104E280000000000F80FFC3F7C3C3E003E003E00C6
:104E3800FE07FE1F3E3E3E7C3E783E7C7E7CFF3F6A
:104E4800CF1F00000000000000000000003C003CF4
:104E5800003C003C003C003CF83DFE3F3E3F1F3E0E
:104E68000F3C0F3C0F3C0F3C0F3C0F3C1F3C1E3CC3
:104E78003E3FFC3FF03B0000000000000000000047
:104E8800000000000000000000000000FE03FF0F0B
:104E9800871F003E003E003C007C007C007C003CFC
:104EA800003E003E871FFF0FFE03000000000000C9
:104EB800000000001F001F001F001F001F001F0030
:104EC800FF07FF1F3F3E1F3C1F7C1F7C1F7C1F7876
:104ED8001F781F7C1F7C3F3C7F3EFF1FDF0F0000B9
:104EE80000000000000000000000000000000000BA
:104EF80000000000F803FC0F3E1F1E3E1F3C1F7CF5
:104F0800FF7FFF7F007C007C003C003E071FFF0FF7
:104F1800FE0300000000000000000000FF01E103A4
:104F2800C003C007C007C007FF7FFF7FC007C007D7
:104F3800C007C007C007C007C007C007C007C00731
:104F4800C007C007C0070000000000000000000004
:104F5800000000000000000000000000EF07FF1F35
:104F68007F3E1F3C1F7C1F7C1F781F781F781F7C8B
:104F78001F7C3F3C7F3EFF1FDF0F1E001E001E00F0
:104F88007C38F83F003C003C003C003C003C003CC6
:104F9800FC3DFE3F9E3F1F3F1F3E1F3C1F3C1F3CEA
:104FA8001F3C1F3C1F3C1F3C1F3C1F3C1F3C00007C
:104FB8000000000000000000F001F0010000000007
:104FC80000000000E07FE07FE001E001E001E00197
:104FD800E001E001E001E001E001E001E001E001C1
:104FE800E00100000000000000000000F800F800E8
:104FF8000000000000000000F83FF83FF800F8004B
:10500800F800F800F800F800F800F800F800F800D8
:10501800F800F800F800F800F800F000F071E07F00
:10502800003C003C003C003C003C003C1F3C3E3C3B
:105038007C3CF83CF03DE03DC03FC03FE03FF03DE8
:10504800F83C7C3C3E3C1F3C1F3C0000000000003C
:1050580000000000F07FF001F001F001F001F00124
:10506800F001F001F001F001F001F001F001F001B0
:10507800F001F001F001F001F001F001F001000091
:105088000000000000000000000000000000000018
:10509800000000009EF7FFFFFFFFFFFFE7FBE7F9B7
:1050A800C7F1C7F1C7F1C7F1C7F1C7F1C7F1C7F138
:1050B800C7F1000000000000000000000000000030
:1050C8000000000000000000FC3DFE3F9E3F1F3F27
:1050D8001F3E1F3C1F3C1F3C1F3C1F3C1F3C1F3CEE
:1050E8001F3C1F3C1F3C00000000000000000000A7
:1050F800000000000000000000000000F007FC1F96
:105108003E3E1F3C1F7C0F780F780F780F780F7882
:105118001F7C1F3C3E3EFC1FF00700000000000003
:105128000000000000000000000000000000000077
:10513800F83DFE3F3E3F1F3E0F3C0F3C0F3C0F3CEF
:105148000F3C0F3C1F3C1E3E3E3FFC3FF83F003CDF
:10515800003C003C003C003C000000000000000057
:1051680000000000EE07FE1F7E3E1E3C1E7C1E78DF
:105178001E781E781E781E781E7C3E7C7E3EFE1FA2
:10518800DE0F1E001E001E001E001E000000000094
:1051980000000000000000007F1FFF1FE71FC71F5F
:1051A800871F001F001F001F001F001F001F001F78
:1051B800001F001F001F000000000000000000008A
:1051C800000000000000000000000000FC07FE1FB7
:1051D8000E1E003E003E003FE01FFC07FE003E00A2
:1051E8001E001E003E3CFC3FF01F000000000000B7
:1051F8000000000000000000000080078007800712
:10520800FF7FFF7F80078007800780078007800770
:105218008007800780078007C007FF03FF010000A1
:105228000000000000000000000000000000000076
:10523800000000001E3C1E3C1E3C1E3C1E3C1E3C4A
:105248001E3C1E3C1E3C1E3C3E3C7E3CFE3EFE1F61
:10525800DE0F000000000000000000000000000059
:10526800000000000000000007F00F780F781E3CD7
:105278001E3C1E3E3C1E3C1E780F780FF00FF007B8
:10528800F007E003E0030000000000000000000059
:1052980000000000000000000000000003F0E3F13F
:1052A800E3F3E7F3F7F3F7F3F77F777F7F7F7F7F0A
:1052B8007F7F3E3E3E3E3E3E3E3E000000000000F8
:1052C80000000000000000000000000000000000D6
:1052D8000F7C1E3E3C3E3C1FF80FF007F007E00332
:1052E800F007F807F80F7C1E3E3E1F3C1F780000B1
:1052F80000000000000000000000000000000000A6
:105308000000000007F80F780F7C1E3C1E3C3C1E76
:105318003C1E3C1F780FF80FF007F007E003E0038E
:10532800C003C003C0038007800F007F0000000097
:105338000000000000000000FF3FFF3F1F003E008C
:105348007C00F800F001E003C007800F001F001E7A
:10535800003CFF7FFF7F000000000000000000000D
:10536800FE01E003C003C003C003C003E001E00185
:10537800E001C001C003803F803FC003C001E001DD
:10538800E001E001C003C003C003C003E003FE0165
:105398007E000000C001C001C001C001C001C00101
:1053A800C001C001C001C001C001C001C001C001ED
:1053B800C001C001C001C001C001C001C001C001DD
:1053C800C001C001C0010000C03FE003E001E001EE
:1053D800E001E001C001C003C003C001E001FE001C
:1053E800FE00E001C001C003C003C001E001E0010C
:1053F800E001E001E003C03F003F000000000000C2
:105408000000000000000000000000000000000094
:105418000000073FC77FE773FFF17EF00000000040
:105428000000000000000000000000000000000074
:105438000000000000000000000000000000000064
:1054480000000000001000100010001000100010F4
:1054580000000010000000000028002800280000BC
:1054680000000000000000000000000000240024EC
:10547800007C00240048007C004800480000000030
:10548800003800540050003800140054005400380C
:10549800001000000020005400580030002800547C
:1054A8000014000800000000001000280028001068
:1054B80000340048004800340000000000100010CC
:1054C80000100000000000000000000000000000C4
:1054D80000080010002000200020002000200020EC
:1054E800001000080020001000080008000800084C
:1054F80000080008001000200010003800100028E4
:105508000000000000000000000000000000000093
:1055180000100010007C00100010000000000000C7
:105528000000000000000000000000000000001063
:10553800001000100000000000000000000000380B
:105548000000000000000000000000000000000053
:105558000000000000000010000000000008000823
:1055680000100010001000100020002000000000B3
:10557800003800440044005400440044004400380B
:105588000000000000100030005000100010001053
:10559800001000100000000000380044004400041F
:1055A800000800100020007C0000000000380044C3
:1055B8000004001800040004004400380000000043
:1055C80000080018002800280048007C000800088F
:1055D80000000000007C0040004000780004000447
:1055E8000044003800000000003800440040007803
:1055F800004400440044003800000000007C00041F
:10560800000800100010002000200020000000000A
:105618000038004400440038004400440044003886
:10562800000000000038004400440044003C00042E
:1056380000440038000000000000000000100000D6
:105648000000000000000010000000000000000042
:105658000000001000000000000000100010001002
:1056680000000000000C003000400030000C00007A
:1056780000000000000000000000007C0000007C2A
:10568800000000000000000000000000006000189A
:10569800000400180060000000000000003800440A
:1056A80000040008001000100000001000000000B6
:1056B80000380044004C0054005C004000400038B2
:1056C8000000000000100028002800280028007CA6
:1056D80000440044000000000078004400440078C2
:1056E80000440044004400780000000000380044F2
:1056F8000040004000400040004400380000000026
:105708000070004800440044004400440048007011
:1057180000000000007C00400040007C0040004089
:105728000040007C00000000007C00400040007841
:1057380000400040004000400000000000380044E5
:1057480000400040005C00440044003800000000B5
:10575800004400440044007C0044004400440044E9
:1057680000000000003800100010001000100010A9
:1057780000100038000000000004000400040004C9
:105788000004000400440038000000000044004801
:10579800005000600050004800480044000000002D
:1057A8000040004000400040004000400040007CB5
:1057B800000000000044006C006C005400440044E9
:1057C80000440044000000000044006400640054E9
:1057D8000054004C004C0044000000000038004415
:1057E8000044004400440044004400380000000025
:1057F8000078004400440044007800400040004025
:105808000000000000380044004400440044004404
:1058180000540038000400000078004400440044AC
:1058280000780048004800440000000000380044A8
:105838000040003000080004004400380000000068
:10584800007C001000100010001000100010001064
:1058580000000000004400440044004400440044A8
:1058680000440038000000000044004400440028C0
:105878000028002800100010000000000044004428
:10588800005400540054006C002800280000000058
:1058980000440028002800100010002800280044B8
:1058A80000000000004400440028002800100010F8
:1058B8000010001000000000007C00040008001028
:1058C800001000200040007C0000000000180010BC
:1058D8000010001000100010001000100010001838
:1058E8000020002000100010001000100008000820
:1058F8000000000000300010001000100010001020
:10590800001000100010003000100028002800448B
:10591800000000000000000000000000000000007F
:10592800000000000000000000000000000000FE71
:10593800002000100000000000000000000000002F
:10594800000000000000000000380044003C004453
:10595800004C003400000000004000400058006483
:1059680000440044006400580000000000000000EB
:1059780000380044004000400044003800000000A7
:10598800000400040034004C00440044004C00347F
:10599800000000000000000000380044007C0040C7
:1059A8000044003800000000000C0010007C0010CB
:1059B800001000100010001000000000000000009F
:1059C8000034004C00440044004C003400040078CB
:1059D8000040004000580064004400440044004473
:1059E80000000000001000000070001000100010FF
:1059F80000100010000000000010000000700010EF
:105A08000010001000100010001000E000400040DE
:105A180000480050006000500048004400000000AA
:105A2800007000100010001000100010001000108E
:105A380000000000000000000078005400540054EA
:105A480000540054000000000000000000580064EA
:105A5800004400440044004400000000000000002E
:105A680000380044004400440044003800000000AE
:105A7800000000000058006400440044006400581E
:105A880000400040000000000034004C0044004486
:105A9800004C0034000400040000000000580064BA
:105AA80000400040004000400000000000000000EE
:105AB80000380044003000080044003800000000AE
:105AC800002000200078002000200020002000187E
