:020000040800F2
:1000000000000120D10E0008BD0B0008BF0B000846
:10001000C10B0008C30B0008C50B0008000000005E
:10002000000000000000000000000000C70B0008F6
:10003000C90B000800000000CB0B0008CD0B000826
:10004000210F0008210F0008210F0008210F0008D0
:10005000210F0008210F0008210F0008210F0008C0
:10006000210F0008210F0008210F0008210F0008B0
:10007000210F0008210F0008210F0008210F0008A0
:10008000210F0008210F0008210F000800000000C8
:10009000000000000000000000000000210F000828
:1000A000210F0008210F0008210F0008210F000870
:1000B000210F0008210F0008210F0008210F000860
:1000C000210F0008210F0008210F0008210F000850
:1000D000210F0008210F0008210F00080000000078
:1000E000210F0008210F0008210F00080000000068
:1000F000000000000000000000000000210F0008C8
:1001000000000000210F0008210F0008210F000847
:1001100000000000000000000000000000000000DF
:10012000D50B0008210F0008210F0008E50B00087F
:10013000210F000800000000000000000000000087
:10014000000000000000000000000000210F000877
:10015000210F0008210F0008210F0008210F0008BF
:10016000210F0008210F000800000000000000001F
:10017000000000000000000000000000000000007F
:1001800000000000210F0008000000000000000037
:04019000210F000833
:1001C00010B5054C237833B9044B13B10448AFF391
:1001D00000800123237010BD4C08002000000000A7
:1001E000D440000808B5034B1BB103490348AFF3E3
:1001F000008008BD0000000050080020D440000826
:1002000053B94AB9002908BF00281CBF4FF0FF317D
:100210004FF0FF3000F074B9ADF1080C6DE904CE79
:1002200000F006F8DDF804E0DDE9022304B07047D1
:100230002DE9F047089E0D4604468846002B4DD117
:100240008A42944668D9B2FA82F252B101FA02F3B4
:10025000C2F1200120FA01F10CFA02FC41EA030884
:1002600094404FEA1C45210CB8FBF5FE1FFA8CF7B1
:1002700005FB1E8341EA03430EFB07F199420BD9AC
:100280001CEB03030EF1FF3080F01E81994240F217
:100290001B81AEF1020E63445B1AA4B2B3FBF5F00E
:1002A00005FB103344EA034400FB07F7A7420AD9D1
:1002B0001CEB040400F1FF3380F00881A74240F2F8
:1002C000058164440238E41B40EA0E4000211EB15F
:1002D000D4400023C6E90043BDE8F0878B4208D92B
:1002E000002E00F0EE800021C6E900050846BDE8BA
:1002F000F087B3FA83F100294AD1AB4202D382429C
:1003000000F2F980841A65EB030301209846002E61
:10031000E2D0C6E90048DFE702B9FFDEB2FA82F2B6
:10032000002A40F09180A1EB0C054FEA1C471FFA10
:100330008CFE0121B5FBF7F307FB1350250C45EAB2
:1003400000450EFB03F0A84208D91CEB050503F19C
:10035000FF3802D2A84200F2CB8043462D1AA4B245
:10036000B5FBF7F007FB105544EA05440EFB00FE11
:10037000A64508D91CEB040400F1FF3502D2A645BE
:1003800000F2BB802846A4EB0E0440EA03409EE73F
:10039000C1F120078B4022FA07FC4CEA030C20FA3B
:1003A00007F405FA01F31C43FD404FEA1C4900FA2B
:1003B00001F3B5FBF9F8200C1FFA8CFE09FB185568
:1003C00040EA054508FB0EF0A84202FA01F20BD9FB
:1003D0001CEB050508F1FF3A80F08880A84240F246
:1003E0008580A8F1020865442D1AA4B2B5FBF9F086
:1003F00009FB105544EA054500FB0EFEAE4508D941
:100400001CEB050500F1FF346CD2AE456AD9023809
:10041000654440EA0840A0FB0294A5EB0E05A54206
:10042000C846A64656D353D05EB1B3EB080265EB7F
:100430000E0505FA07F722FA01F3CD401F43C6E97E
:1004400000750021BDE8F087C2F1200320FA03F116
:100450000CFA02FC25FA03F395400D434FEA1C47C2
:100460001FFA8CFEB3FBF7F107FB11302B0C43EAAC
:10047000004301FB0EF0984204FA02F408D91CEB89
:10048000030301F1FF382FD298422DD9023963447A
:100490001B1AADB2B3FBF7F007FB103345EA034577
:1004A00000FB0EF3AB4208D91CEB050500F1FF3849
:1004B00016D2AB4214D902386544ED1A40EA014124
:1004C00038E73146304607E78646E5E61846FAE65D
:1004D0004B45A9D2B9EB020864EB0C0E0138A3E737
:1004E0004046EAE7204694E74146D1E7D0467BE71D
:1004F000023B654432E7084609E76444023842E7B4
:10050000704700BF00000000000000000000000075
:1005100000000000000000000000000000000000DB
:1005200000000000000000000000000000000000CB
:1005300000000000000000000000000000000000BB
:1005400090F800F06DE9024520F007016FF0000C13
:1005500010F0070491F820F040F049804FF00004BB
:100560006FF00700D1E9002391F840F000F1080096
:1005700082FA4CF2A4FA8CF283FA4CF3A2FA8CF3CE
:100580004BBBD1E9022382FA4CF200F10800A4FA35
:100590008CF283FA4CF3A2FA8CF3E3B9D1E9042389
:1005A00082FA4CF200F10800A4FA8CF283FA4CF3C0
:1005B000A2FA8CF37BB9D1E9062301F1200182FA7A
:1005C0004CF200F10800A4FA8CF283FA4CF3A2FA80
:1005D0008CF3002BC6D0002A04BF04301A4612BA8E
:1005E000B2FA82F2FDE8024500EBD2007047D1E991
:1005F000002304F00305C4F100004FEAC50514F020
:10060000040F91F840F00CFA05F562EA05021CBFF0
:1006100063EA050362464FF00004A9E7000000000A
:1006200001F0FF01102A2BDB10F0070F08D010F8A3
:10063000013B013A8B422DD010F0070F42B3F6D1A7
:10064000F0B441EA012141EA014122F007047FF0C0
:1006500000070023F0E80256083C85EA010586EA17
:10066000010685FA47F5A3FA87F586FA47F6A5FA53
:1006700087F68EB9EED1F0BC01F0FF0102F007025F
:1006800032B110F8013B013A83EA010313B1F8D10A
:100690000020704701387047002D06BF35460338EB
:1006A000073815F0010F07D1013015F4807F02BF24
:1006B000013015F4C03F0130F0BC0138704700BF75
:1006C000844641EA000313F003036DD1403A41D35D
:1006D00051F8043B40F8043B51F8043B40F8043B1C
:1006E00051F8043B40F8043B51F8043B40F8043B0C
:1006F00051F8043B40F8043B51F8043B40F8043BFC
:1007000051F8043B40F8043B51F8043B40F8043BEB
:1007100051F8043B40F8043B51F8043B40F8043BDB
:1007200051F8043B40F8043B51F8043B40F8043BCB
:1007300051F8043B40F8043B51F8043B40F8043BBB
:1007400051F8043B40F8043B51F8043B40F8043BAB
:10075000403ABDD2303211D351F8043B40F8043B4B
:1007600051F8043B40F8043B51F8043B40F8043B8B
:1007700051F8043B40F8043B103AEDD20C3205D35B
:1007800051F8043B40F8043B043AF9D2043208D053
:10079000D2071CBF11F8013B00F8013B01D30B88C5
:1007A00003806046704700BF082A13D38B078DD0A3
:1007B00010F003038AD0C3F10403D21ADB071CBF75
:1007C00011F8013B00F8013B80D331F8023B20F8DF
:1007D000023B7BE7043AD9D3013A11F8013B00F818
:1007E000013BF9D20B7803704B7843708B788370A0
:1007F0006046704710B582B0002401940D4B1A6B0F
:1008000042F480021A631B6B03F480030193019B83
:1008100022462146382000F0E9FB382000F01EFC7B
:10082000224621463B2000F0E1FB3B2000F016FC75
:1008300002B010BD0038024030B58BB000240594E2
:10084000069407940894099401941D4B1A6B42F086
:1008500004021A631A6B02F004020192019A0294D4
:100860001A6B42F080021A631A6B02F08002029245
:10087000029A03941A6B42F001021A631A6B02F097
:1008800001020392039A04941A6B42F002021A6363
:100890001B6B03F002030493049B0A4D22461E21A6
:1008A000284600F099FE1E23059301230693079422
:1008B000089405A9284600F0AFFD0BB030BD00BF7D
:1008C000003802400000024008B50B480B4B0360A3
:1008D0000B4B436000238360C3604FF4804202618E
:1008E00043618361C361036200F07CFE00B908BD0F
:1008F00000F040F8FBE700BF68080020005400400B
:10090000A086010030B589B00023039304930593BA
:10091000069307930268144B9A4201D009B030BD88
:1009200000250195114C236B43F002032363236BD5
:1009300003F002030193019BC0230393122304934A
:10094000032306930423079303A9094800F064FDD9
:100950000295236C43F400132364236C03F4001307
:100960000293029BDAE700BF0054004000380240C7
:100970000004024072B6FEE700B595B030220021B7
:1009800008A802F097FC00230393049305930693B1
:1009900007930193204A116C41F080511164126C4D
:1009A00002F080520192019A02931C4A136823F4C8
:1009B000404343F400431360136803F4404302933D
:1009C000029B012308934FF48033099302230E9373
:1009D0004FF480030F93192310934FF4FA7311937C
:1009E00004231293139308A800F0DAFE80B90F23B2
:1009F000039302210491002305934FF4A052069221
:100A0000079303A801F01AF920B915B05DF804FBAB
:100A1000FFF7B0FFFFF7AEFF003802400070004064
:100A200008B500F0A5FAFFF7A7FFFFF705FFFFF7EE
:100A3000E1FE00F00DF800F073F9FFF745FF00F05C
:100A4000E3F9024802F0E2FCFEE700BFEC400008D8
:100A500008B50E480E4B03604FF4827343600023C9
:100A60008360C3600222026143614FF400728261BD
:100A7000C3610362436283620A23C36201F0B4F973
:100A800000B908BDFFF776FFFBE700BF7C09002037
:100A90000030014030B589B00023039304930593DF
:100AA000069307930268314B9A4201D009B030BDDA
:100AB00004460025019503F584335A6C42F48052B4
:100AC0005A645A6C02F480520192019A02951A6B90
:100AD00042F001021A631B6B03F001030293029BB5
:100AE000E023039302230493032306930523079330
:100AF00003A91F4800F090FC1E481F4B03604FF0F5
:100B0000C06343608560C5604FF4806303614561E5
:100B10008561C5614FF440330362456200F028FBF4
:100B2000E8B9144BE3649C631448154B03604FF021
:100B3000C0634360402383600023C3604FF480623E
:100B4000026143618361C3614FF4403202624362D8
:100B500000F00EFB30B9094BA3649C63A6E7FFF7D6
:100B600009FFDEE7FFF706FFF5E700BF00300140B1
:100B700000000240BC080020106402401C09002054
:100B80005864024082B0002100910B4B5A6C42F431
:100B900080425A645A6C02F480420092009A019199
:100BA0001A6C42F080521A641B6C03F0805301935C
:100BB000019B02B0704700BF00380240FEE7FEE72D
:100BC000FEE7FEE7FEE770477047704708B500F0A4
:100BD000E9F908BD08B5024800F030FB08BD00BFC8
:100BE000BC08002008B5024800F028FB08BD00BF83
:100BF0001C09002070B50C461646002506E0AFF330
:100C00000080214601F8010B01350C46B542F6DBA8
:100C1000304670BD70B50C461646002504E014F849
:100C2000010B00F045F90135B542F8DB304670BDE7
:100C30004FF0FF3070474FF400534B600020704777
:100C4000012070470020704710B503460C4A0D493B
:100C50000D48006840B10C4800680344521A9342A2
:100C600006D8094A136010BD0748084C0460F2E733
:100C700001F06EFD0C2303604FF0FF30F3E700BF7F
:100C80000000012000040000D4090020B00A002068
:100C9000704700000268094B9A4200D0704782B04A
:100CA00000230193064B5A6C42F001025A645B6CBC
:100CB00003F001030193019B02B070470000014063
:100CC0000038024000B587B00023019302930393DC
:100CD0000493059302680F4B9A4202D007B05DF867
:100CE00004FB002300930C4B1A6B42F001021A63C1
:100CF0001B6B03F001030093009B4FF4006301930F
:100D0000022302930123059301A9044800F084FB08
:100D1000E4E700BF0000014000380240000002404C
:100D200010B596B000241294139414941594109452
:100D3000119409940A940B940C940D940E940F94AE
:100D40002022214601A802F0B5FA2D482D4B036060
:100D50000B23436084606323C36004614461846146
:100D600001F0A2F9002838D14FF48053129312A950
:100D7000234801F09DFA002832D1214801F0C0F942
:100D8000002830D100231093119310A91C4801F0C2
:100D90000FFB58BB6023099332230A9300230B9364
:100DA0000D930E930F930C2209A9154801F006FA32
:100DB000F8B90023019302930393049305934FF42E
:100DC00000520692089301A90D4801F02FFB98B933
:100DD0000B48FFF777FF16B010BDFFF7CBFDC3E759
:100DE000FFF7C8FDC9E7FFF7C5FDCBE7FFF7C2FD79
:100DF000D0E7FFF7BFFDDCE7FFF7BCFDE8E700BF8A
:100E0000D80900200000014008B50A480A4B0360D9
:100E10004FF4E133436000238360C36003610C221D
:100E200042618361C36101F0F7FB00B908BDFFF7C0
:100E3000A1FDFBE7200A00200010014000B589B0A9
:100E4000002303930493059306930793026803F129
:100E5000804303F588339A4202D009B05DF804FB61
:100E60000021019103F594335A6C42F010025A6448
:100E70005A6C02F010020192019A02911A6B42F030
:100E800001021A631B6B03F001030293029B4FF4F0
:100E9000C06303930223049303230693072307935A
:100EA00003A9024800F0B8FAD7E700BF00000240EB
:100EB00000B583B001904FF6FF73012201A90348EA
:100EC00001F0D9FB019803B05DF804FB200A002073
:100ED000DFF834D00D480E490E4A002302E0D45802
:100EE000C4500433C4188C42F9D30B4A0B4C002372
:100EF00001E013600432A242FBD3FFF7C9FE01F008
:100F0000FDFEFFF78DFD704700000120000000206E
:100F10004C080020384100084C080020B00A00208E
:100F2000FEE7000010B504460E4B18784FF47A73B4
:100F3000B3FBF0F30C4A1068B0FBF3F000F09CF840
:100F400068B90F2C01D901200AE0002221464FF098
:100F5000FF3000F04BF8054B1C60002000E0012042
:100F600010BD00BF04000020000000200800002089
:100F700008B50B4B1A6842F400721A601A6842F402
:100F800080621A601A6842F480721A60032000F0CE
:100F90001BF80F20FFF7C6FFFFF7F4FD002008BD88
:100FA000003C0240034A1168034B1B780B4413605A
:100FB000704700BF640A002004000020014B18683D
:100FC000704700BF640A0020074AD36823F4E06337
:100FD0001B041B0C000200F4E060034343F0BF63FA
:100FE00043F40033D360704700ED00E000B5194BC7
:100FF000DB68C3F30223C3F1070CBCF1040F28BF65
:101000004FF0040C03F1040EBEF1060F18D9033B98
:101010004FF0FF3E0EFA0CFC21EA0C0199400EFA4B
:1010200003F322EA0303194300280BDB0901C9B2C9
:1010300000F1604000F5614080F800135DF804FBAA
:101040000023E5E700F00F000901C9B2024B195473
:10105000F4E700BF00ED00E014ED00E0002807DB3E
:1010600000F01F02400901239340024A42F8203059
:10107000704700BF00E100E00138B0F1807F0BD283
:101080004FF0E0235861054AF02182F82310002038
:10109000986107221A6170470120704700ED00E057
:1010A00010B40368D9B210390B4AA2FB01421209ED
:1010B0000A4CA25CC2655F2908D923F47F7323F030
:1010C000030304338365806D10BC704723F47F7382
:1010D00023F003038365F6E7ABAAAAAA144100082C
:1010E000836A826992B9012B0AD0022B02D00BB11C
:1010F00000207047C36A13F0807F28D1002070471A
:10110000C36AB3F1C07F24D000207047B2F5005FFE
:1011100009D0022B25D9032B25D1C36A13F0807F78
:1011200023D100207047032B03D8DFE803F0140419
:10113000140A00207047C36A13F0807F0DD100208D
:101140007047C36AB3F1C07F09D000207047012007
:10115000704701207047012070470120704701202F
:101160007047012070470020704701207047000041
:1011700070B50446FFF722FF002C5BD00546022322
:1011800084F83530002384F834302268136823F063
:101190000103136023681A6812F0010F0AD0FFF7E9
:1011A0000DFF431B052BF5D920236365032084F82D
:1011B000350070BD1A68204810406168A2680A4373
:1011C000E1680A4321690A4361690A43A1690A4344
:1011D000E1690A43216A0A430243616A04291ED075
:1011E0001A602668756925F00705636A1D43042B9C
:1011F00007D1A36A1D43E36A1BB12046FFF770FFC6
:1012000090B975612046FFF74BFFE26D3F23934095
:10121000836000206065012384F83530C9E7E16A06
:10122000206B01430A43DBE740236365012084F818
:101230003500BEE70120BCE73F8010F0F0B583B079
:10124000044600230193724B1D68724BA3FB0535C6
:10125000AD0A876D3E68C26D08239340334210D0BB
:1012600003681A6812F0040F0BD01A6822F0040207
:101270001A60C26D08239340BB60436D43F00103C5
:101280004365E26D01239340334209D022685269DD
:1012900012F0800F04D0BB60636D43F002036365FE
:1012A000E26D04239340334209D02268126812F0A1
:1012B000020F04D0BB60636D43F004036365E26D0D
:1012C00010239340334224D02268126812F0080F92
:1012D0001FD0BB6023681A6812F4802F0DD01B68E2
:1012E00013F4002F04D1236C9BB12046984710E0E3
:1012F000A36C73B1204698470BE01A6812F4807F04
:1013000003D11A6822F008021A60236C0BB1204640
:101310009847E26D20239340334255D022681268EB
:1013200012F0100F50D0BB6094F83530DBB2052BB3
:101330000ED023681A6812F4802F33D01B6813F480
:10134000002F2AD1636C002B3ED0204698473BE00B
:101350002268136823F0160313602268536923F090
:1013600080035361236CA3B12268136823F0080340
:101370001360E26D3F239340BB60012384F8353056
:10138000002384F83430236D002B3FD0204698474B
:101390003CE0A36C002BE7D1EBE7E36BA3B1204665
:1013A000984711E01A6812F4807F09D11A6822F078
:1013B00010021A60012384F83530002384F8343099
:1013C000E36B0BB120469847636DFBB1636D13F07F
:1013D000010F17D0052384F835302268136823F0F5
:1013E00001031360019B01330193AB4204D82368CE
:1013F0001B6813F0010FF5D1012384F83530002369
:1014000084F83430E36C0BB12046984703B0F0BD4C
:1014100000000020B5814E1B00230F2B00F2D2806C
:1014200070B582B060E085685E000324B44025EAB0
:101430000405CC68B4402C438460456825EA020565
:101440004C68C4F300129A402A4342605AE0DC0818
:10145000083450F8246003F0070295000F22AA40D8
:1014600026EA020E0A69AA4042EA0E0240F8242047
:101470005CE0042200E0002202FA0EF22A43023469
:10148000514D45F82420514A94686FEA0C0224EA31
:101490000C054E6816F4801F01D04CEA04054B4C35
:1014A000A560E46802EA04054E6816F4001F01D046
:1014B0004CEA0405454CE560646802EA04054E68A0
:1014C00016F4003F01D04CEA0405404C65602468E6
:1014D00022404D6815F4803F01D04CEA04023B4C99
:1014E000226001330F2B6BD801229A400C6804EA6A
:1014F000020C32EA0404F4D14C6804F00304013C09
:10150000012C90D94A6802F00302032A09D0C4686A
:101510005D000322AA4024EA02048A68AA4022430A
:10152000C2604A6802F00302022A90D004684FEABF
:10153000430E032202FA0EF224EA02044A6802F081
:10154000030202FA0EF2224302604A6812F4403F9C
:10155000C7D0002201921E4A546C44F48044546463
:10156000526C02F480420192019A9C08A51C164A12
:1015700052F8255003F003024FEA820E0F2202FABE
:101580000EF225EA0205134A90423FF474AF02F5C9
:10159000806290420ED002F5806290420CD002F53B
:1015A000806290420AD002F5806290423FF461AFBF
:1015B000072261E701225FE702225DE703225BE782
:1015C00002B070BD704700BF00380140003C0140D0
:1015D00000380240000002400AB1816170470904EE
:1015E00081617047002800F0CC8070B5044690F807
:1015F0003D30002B77D0242384F83D3022681368D7
:1016000023F0010313602268136843F4004313605E
:101610002268136823F40043136000F0C5FB62687E
:101620005A4B9A4264D85A4B98428CBF00230123EC
:10163000002B40F0A8805749A1FB00318B0C256896
:101640006A6822F03F0242EA91426A6021680A6AAF
:1016500022F03F0266684D4DAE424FD8013313432E
:101660000B622168CA6922F44F4222F0FF026668C9
:10167000464B9E424CD8431E7600B3FBF6F3013333
:1016800040F6FC70034278D0C3F30B031343CB61E5
:1016900021680B6823F0C003E269206A0243134308
:1016A0000B6021688B6823F4034323F0FF03226956
:1016B000E068024313438B602168CB6823F0FF038B
:1016C0006269A06902431343CB602268136843F048
:1016D0000103136000202064202384F83D30206340
:1016E00084F83E0070BD80F83C30FFF70BF982E7CC
:1016F000294B98428CBF0023012399E74FF496753C
:1017000005FB03F3254DA5FB03539B090133A6E716
:10171000A368BBB9451E06EB460CB5FBFCF50135CD
:10172000C5F30B05B5FA85F56D0945BBC3B901389D
:1017300006EB4603B0FBF3F30133C3F30B0343F4AF
:101740000043A3E7451E06EB860C0CEB8C0CB5FBA7
:10175000FCF50135C5F30B05B5FA85F56D09E4E730
:10176000013806EB860303EB8303B0FBF3F301338D
:10177000C3F30B0343F4404388E7042386E70123C4
:1017800084E7012070470120ACE700BFA08601007C
:101790007F841E0083DE1B43FF083D00D34D621093
:1017A000002800F0E08170B582B00446036813F0B1
:1017B000010F3BD09F4B9B6803F00C03042B2CD0F4
:1017C0009C4B9B6803F00C03082B21D06368B3F596
:1017D000803F4FD0B3F5A02F52D0964B1A6822F419
:1017E00080321A601A6822F480221A606368002B23
:1017F00050D0FFF7E3FB05468E4B1B6813F4003F08
:1018000014D1FFF7DBFB401B6428F5D90320B1E1BD
:10181000884B5B6813F4800FD8D0864B1B6813F499
:10182000003F03D06368002B00F09F81236813F012
:10183000020F54D07F4B9B6813F00C0F3ED07D4BB2
:101840009B6803F00C03082B33D0E368002B68D0AF
:10185000794B01221A60FFF7B1FB0546754B1B68F7
:1018600013F0020F54D1FFF7A9FB401B0228F5D952
:1018700003207FE16F4A136843F480331360B5E7B8
:101880006C4B1A6842F480221A601A6842F4803263
:101890001A60ABE7FFF792FB0546664B1B6813F433
:1018A000003FC3D0FFF78AFB401B6428F5D9032013
:1018B00060E1604B5B6813F4800FC6D15D4B1B6821
:1018C00013F0020F03D0E368012B40F05081594A16
:1018D000136823F0F803216943EAC1031360236806
:1018E00013F0080F42D063696BB3534B0122C3F866
:1018F000802EFFF763FB05464E4B5B6F13F0020F24
:1019000034D1FFF75BFB401B0228F5D9032031E1FE
:10191000484A136823F0F803216943EAC1031360BE
:10192000DDE7454B00221A60FFF748FB0546414BB7
:101930001B6813F0020FD2D0FFF740FB401B0228B8
:10194000F5D9032016E13C4B0022C3F8802EFFF7A7
:1019500035FB0546374B5B6F13F0020F06D0FFF7E0
:101960002DFB401B0228F5D9032003E1236813F067
:10197000040F77D02F4B1B6C13F0805F33D1002303
:1019800001932C4B1A6C42F080521A641B6C03F0CA
:1019900080530193019B0125284B1B6813F4807F22
:1019A00023D0A368012B34D0052B38D0214B1A6FDC
:1019B00022F001021A671A6F22F004021A67A36864
:1019C000002B3DD0FFF7FAFA06461A4B1B6F13F0B7
:1019D000020F46D1FFF7F2FA801B41F2883398429A
:1019E000F3D90320C6E00025D6E7144A136843F470
:1019F00080731360FFF7E2FA0646104B1B6813F47E
:101A0000807FCED1FFF7DAFA801B0228F5D90320B8
:101A1000B0E0084A136F43F001031367CFE7054BAB
:101A20001A6F42F004021A671A6F42F001021A6735
:101A3000C5E700BF00380240000047420070004088
:101A4000FFF7BCFA0646524B1B6F13F0020F08D08B
:101A5000FFF7B4FA801B41F288339842F3D9032090
:101A600088E0EDB9A369002B00F08380484A9268B2
:101A700002F00C02082A51D0022B17D0454B00224D
:101A80001A66FFF79BFA0446414B1B6813F0007F70
:101A900042D0FFF793FA001B0228F5D9032069E032
:101AA0003B4A136C23F080531364DBE7394B00226D
:101AB0001A66FFF783FA0546354B1B6813F0007F63
:101AC00006D0FFF77BFA401B0228F5D9032051E02E
:101AD000E369226A1343626A43EA8213A26A5208E4
:101AE000013A43EA0243E26A43EA0263284A536046
:101AF000284B01221A66FFF761FA0446244B1B6843
:101B000013F0007F06D1FFF759FA001B0228F5D920
:101B100003202FE000202DE000202BE0012B2BD014
:101B20001B4B5B6803F48001E269914226D103F00C
:101B30003F02216A8A4223D1616A47F6C0721A4085
:101B4000B2EB811F1ED103F44031A26A5208013A60
:101B5000B1EB024F18D103F07063E26AB3EB026F8E
:101B600014D1002006E001207047012002E001208E
:101B700000E0002002B070BD0120FBE70120F9E782
:101B80000120F7E70120F5E70120F3E70120F1E765
:101B9000003802400000474208B5254B9B6803F01F
:101BA0000C03042B3FD0082B3FD1214B5A6802F085
:101BB0003F025B6813F4800F12D01D4B5968C1F3CC
:101BC00088111C480023A1FB0001FEF719FB184BEC
:101BD0005B68C3F3014301335B00B0FBF3F025E026
:101BE000134B5968C1F3881C4FEA4C11B1EB0C0040
:101BF0006EEB0E0E4FEA8E1343EA90638101091AD1
:101C000063EB0E03DB0043EA5173C90011EB0C0CCC
:101C100043F10003990200234FEA8C2041EA9C51D2
:101C2000FEF7EEFAD3E7034800E0034808BD00BF23
:101C30000038024040787D010024F400002800F0C4
:101C40009B8070B50D4604464F4B1B6803F007039D
:101C50008B4208D2CBB24C4A1370136803F00703CF
:101C60008B4240F08B80236813F0020F17D013F0E3
:101C7000040F04D0454A936843F4E053936023680B
:101C800013F0080F04D0414A936843F46043936013
:101C90003E4A936823F0F003A1680B4393602368E6
:101CA00013F0010F32D06368012B21D09A1E012A54
:101CB00025D9364A126812F0020F61D033498A687A
:101CC00022F0030213438B60FFF778F906462F4B8F
:101CD0009B6803F00C036268B3EB820F16D0FFF72A
:101CE0006DF9801B41F288339842F0D9032042E01D
:101CF000264A126812F4003FE0D101203BE0234A5B
:101D0000126812F0007FD9D1012034E01E4B1B680D
:101D100003F00703AB4207D9EAB21B4B1A701B68EA
:101D200003F00703AB422DD1236813F0040F06D054
:101D3000164A936823F4E053E1680B4393602368E9
:101D400013F0080F07D0114A936823F46043216908
:101D500043EAC1039360FFF71FFF0C4B9B68C3F37B
:101D600003130B4AD35CD8400A4B18600A4B18681F
:101D7000FFF7D8F8002070BD012070470120FAE776
:101D80000120F8E70120F6E7003C0240003802405D
:101D9000FC4000080000002008000020014B1868EB
:101DA000704700BF0000002008B5FFF7F7FF044BA5
:101DB0009B68C3F38223034AD35CD84008BD00BFAD
:101DC000003802400C41000808B5FFF7E7FF044B5C
:101DD0009B68C3F34233034AD35CD84008BD00BFBD
:101DE000003802400C41000800285AD010B50446C3
:101DF000436A33B94368B3F5827F05D00023C361DA
:101E000002E00023036143610023A36294F8513090
:101E1000002B40D0022384F851302268136823F04D
:101E200040031360636803F48273A26802F40442FF
:101E30001343E26802F400621343226902F00202D3
:101E40001343626902F001021343A26902F40072B3
:101E50001343E26902F038021343226A02F080025F
:101E60001343A26A02F40052216813430B60638B90
:101E700003F00403626A02F01002216813434B600E
:101E80002268D36923F40063D361002060650123D5
:101E900084F8513010BD84F850302046FEF7FAFD2A
:101EA000B8E701207047000070B4036A23F0010313
:101EB0000362036A4668826922F073020C6844EA8E
:101EC000020523F002028B6813430D4CA04209D097
:101ED0000B4CA0420DD0466085614A6842630362A4
:101EE00070BC704723F00803CA68134323F004034F
:101EF000EEE726F440764A6932438E691643EAE7F4
:101F00000000014030B4036A23F480730362036A63
:101F10004568C26922F073020C68224323F40073FF
:101F20008C6843EA04230F4CA04209D00D4CA04218
:101F30000ED04560C2614A68C263036230BC70471C
:101F400023F40063CC6843EA042323F48063EDE7C1
:101F500025F440554C6945EA04158C6945EA041599
:101F6000E7E700BF0000014030B4036A23F4805368
:101F70000362036A4468C26922F4E6420D6842EAD9
:101F8000052223F400538D6843EA0533074DA84228
:101F900006D04460C2614A680264036230BC704784
:101FA00024F480444D6944EA8514F2E700000140BE
:101FB00010B4036A046A24F001040462846924F002
:101FC000F00C4CEA021223F00A030B438261036215
:101FD00010BC704710B4046A24F0100404628469D1
:101FE000036A24F4704C4CEA023223F0A00343EA63
:101FF00001138261036210BC7047836823F0700391
:102000000B4343F007038360704770470368254A1A
:1020100090420ED0B0F1804F0BD0A2F57C4290429E
:1020200007D002F58062904203D002F580629042B0
:1020300003D123F070034A6813431A4A90421AD01E
:10204000B0F1804F17D0A2F57C42904213D002F538
:10205000806290420FD002F5806290420BD002F570
:102060009A32904207D002F58062904203D002F586
:102070008062904203D123F44073CA68134323F073
:1020800080034A69134303608B68C3620B688362F1
:10209000044B984202D00123436170470B690363EC
:1020A000F9E700BF0000014040B310B5044690F8C6
:1020B0003D30F3B1022384F83D30214651F8040B42
:1020C000FFF7A4FF012384F8463084F83E3084F8FB
:1020D0003F3084F8403084F8413084F8423084F84E
:1020E000433084F8443084F8453084F83D30002093
:1020F00010BD80F83C30FEF7CDFDDBE701207047D6
:1021000040B310B5044690F83D30F3B1022384F893
:102110003D30214651F8040BFFF778FF012384F886
:10212000463084F83E3084F83F3084F8403084F8FC
:10213000413084F8423084F8433084F8443084F8E5
:10214000453084F83D30002010BD80F83C30FFF76A
:102150005CFFDBE70120704730B4036A23F0100313
:102160000362036A4468826922F4E6420D6842EA27
:10217000052223F020038D6843EA05130E4DA84283
:1021800009D00D4DA8420ED0446082614A68826336
:10219000036230BC704723F08003CD6843EA051327
:1021A00023F04003EDE724F440644D6944EA8504DC
:1021B0008D6944EA8504E7E70000014038B590F8EE
:1021C0003C30012B66D004460D46012380F83C309C
:1021D0000C2A5AD8DFE802F0075959591B595959A6
:1021E0003059595944000068FFF75EFE2268936930
:1021F00043F0080393612268936923F00403936119
:102200002268936929690B43936100203EE00068CE
:10221000FFF7A2FF2268936943F400639361226889
:10222000936923F48063936122689369296943EA7F
:1022300001239361002029E00068FFF763FE226814
:10224000D36943F00803D3612268D36923F0040300
:10225000D3612268D36929690B43D361002015E05B
:102260000068FFF781FE2268D36943F40063D361FD
:102270002268D36923F48063D3612268D369296912
:1022800043EA0123D361002000E00120002384F809
:102290003C3038BD0220FCE710B4846824F47F4C45
:1022A00042EA03220A4342EA0C02826010BC7047F1
:1022B00090F83C30012B78D010B50446012380F80B
:1022C0003C30022380F83D300268936823F47F435A
:1022D00023F0770393600B68602B4CD029D8402BF8
:1022E00054D00CD9502B22D1CA6849680068FFF736
:1022F0005FFE50212068FFF780FE002005E0202BC4
:102300000DD009D9302B0AD00120012384F83D30AB
:10231000002384F83C3010BD0BB1102B05D11946B9
:102320002068FFF76AFE0020EFE70120EDE70120BB
:10233000EBE7B3F5805F34D0B3F5005F0CD1CB6829
:102340004A6889680068FFF7A7FF2268936843F42A
:10235000804393600020D8E7702B24D1CB684A6873
:1023600089680068FFF798FF2268936843F0770355
:1023700093600020C9E7CA6849680068FFF72AFE31
:1023800060212068FFF739FE0020BEE7CA6849686F
:102390000068FFF70DFE40212068FFF72EFE0020A9
:1023A000B3E70020B1E70120AFE70220704700004B
:1023B00090F83C30012B34D010B4012380F83C302D
:1023C000022380F83D3003685A689C6822F0700C44
:1023D0000A6842EA0C025A600368134A934212D018
:1023E000B3F1804F0FD0A2F57C4293420BD002F59F
:1023F0008062934207D002F58062934203D002F5D7
:102400009A32934204D124F080044A6814439C60B9
:10241000012380F83D30002380F83C30184610BC82
:1024200070470220704700BF0000014090F83C3028
:10243000012B22D0012380F83C30CB6823F4407379
:102440008A68134323F480634A68134323F40063C8
:102450000A68134323F480530A69134323F4005397
:102460004A69134323F48043CA69134302685364DF
:10247000002380F83C301846704702207047000067
:1024800038B504460268136923F44053C1680B430E
:10249000136183680269134342691343C2691A4393
:1024A0000168CB6823F4164323F00C031343CB607D
:1024B0000268536923F4407381690B4353610368D5
:1024C000314A934206D002F58062934202D0FFF770
:1024D0006BFC01E0FFF778FCE369B3F5004F29D00E
:1024E0000021031849411B1841F10001C90041EACC
:1024F0005371DB00181863684FEA83024FEA937345
:1025000041F10001FDF77CFE204DA5FB0032510991
:10251000642303FB11031B013233A5FB03235B0977
:1025200003F0F00202EB011203F00F0321681344E1
:102530008B6038BD0023021843EB0301121841F1F0
:102540000001C90041EA5271D200101841F10001A6
:10255000626892185B41FDF753FE0C4DA5FB0032FB
:102560005109642303FB1103DB003233A5FB032372
:102570005B095A0002F4F87202EB011203F0070340
:10258000216813448B60D4E7001001401F85EB5194
:102590002DE9F84305460F4616469946DDF820809A
:1025A0002C68246837EA04030CBF4FF0010C4FF08D
:1025B000000CB4452DD1B8F1FF3FF1D0B8F1000FB8
:1025C00005D0FEF7FBFCA0EB09004045E8D92A68DE
:1025D00002F10C0353E8003F23F4D0730C3242E8BD
:1025E00000310029F3D12A6802F1140353E8003FB7
:1025F00023F00103143242E800310029F3D12023F3
:1026000085F83D3085F83E30002385F83C300320C6
:1026100000E00020BDE8F88358B310B5044690F8F8
:102620003D300BB3242384F83D302268D36823F473
:102630000053D3602046FFF723FF2268136923F479
:10264000904313612268536923F02A03536122687F
:10265000D36843F40053D36000202064202384F81F
:102660003D3084F83E3010BD80F83C30FEF7E6FB8C
:10267000D8E7012070472DE9F04182B01E4690F85E
:102680003D30DBB2202B54D104460D469046002944
:1026900053D0002A53D090F83C30012B51D0012365
:1026A00080F83C3000230364212380F83D30FEF79E
:1026B00085FC0746A4F82480A4F82680A368B3F517
:1026C000805F05D04FF00008002384F83C3012E012
:1026D000236913B14FF00008F6E7A8460025F3E799
:1026E00038F8023B2268C3F308035360E28C92B2CD
:1026F000013A92B2E284E38C9BB273B100963B46FE
:10270000002280212046FFF743FFE0B9002DE7D0EB
:1027100015F8012B23685A60E8E700963B46002233
:1027200040212046FFF734FF78B9202384F83D305C
:1027300000E0022002B0BDE8F0810120FAE70120AC
:10274000F8E70220F6E70320F4E70320F2E70000B1
:10275000014B1868704700BF0C000020B1F90C2035
:10276000F8B50C461107074642D4636842F400628C
:10277000002BA28159DDA56A002D54D000233E68AC
:102780003B6093B212F4805253D1E1690123384681
:10279000A847421C63D0A389A56A5B0705D5636877
:1027A000C01A236B0BB1E36BC01AE1690246002328
:1027B0003846A847411C3ED13B68002B3BD01D2B1F
:1027C00001D0162B52D1A3892269226023F4006321
:1027D00000216160A381216B3E6021B304F14003BD
:1027E000994202D0384600F05FF900202063F8BD1E
:1027F0002669C6B193B2256826609A070CBF636943
:102800000023AD1BA3600CE0D4F824C0E1692B4683
:1028100032463846E047B0F1000CA5EB0C056644A3
:1028200016DD002DF0DC0020F8BDE36B002BA2DCF0
:10283000F9E7206DB1E7B4F90C302269226023F486
:102840000063A3810022DB046260C4D52065C2E777
:10285000A38943F040034FF0FF30A381F8BD3B68EC
:10286000002B98D01D2B06D0162B04D0A38943F043
:102870004003A381F8BD3E60D5E700BF38B50C46E4
:10288000054608B1836BA3B1B4F90C00B8B1636E0F
:10289000DB0701D4810515D528462146FFF75EFFE9
:1028A000636EDA07054602D4A3899B050ED5284638
:1028B00038BD00F017F8B4F90C000028E7D1054640
:1028C000284638BDA06D00F041FAE5E7A06D00F0A4
:1028D0003FFA284638BD00BF014900F0EBB900BF00
:1028E000113600082DE9F0478246394800F02EFAEB
:1028F000DAF83840002C66D1DAF80450354ACAF8C4
:102900003C200323CAE9B843DFF8CC90DFF8CC8041
:10291000334F344E04230AF53B72CAF8E8222146AD
:10292000C5E90243C5E90044C5E904446C660822D0
:10293000AC6105F15C0000F0BDFCC5E90759C5E9D3
:102940000987EE6205F1580000F0FCF9DAF808504A
:10295000254BEB602146C5E90044C5E904446C669B
:10296000AC60AC61082205F15C0000F0A3FCC5E995
:102970000759C5E90987EE6205F1580000F0E2F950
:10298000DAF80C50194BEB602146C5E90044C5E963
:1029900004446C66AC60AC61082205F15C0000F098
:1029A00089FC05F15800C5E90759C5E90A76C5F85B
:1029B000248000F0C7F90123CAF838300448BDE884
:1029C000F04700F0C5B9BDE8F047014800F0C0B9D4
:1029D000740A0020D9280008413400086534000832
:1029E000A5340008C53400080900010012000200E7
:1029F000014800F0ABB900BF700A0020014800F0A8
:102A0000A7B900BF700A0020F8B5244F0C4606464F
:102A100000F0A2FCBA685568C4F57E630F3325F058
:102A200003052B4423F47F6323F00F03A3F58054A5
:102A3000B4F5805F07DB0021304600F0EFFCBB6897
:102A40002B44984204D0304600F08CFC0020F8BDA6
:102A50006142304600F0E2FC01300DD0104ABB6804
:102A60002D1B45F001055D60136830461B1B13608C
:102A700000F078FC0120F8BD0021304600F0CEFCCB
:102A8000BA68831A0F2BDEDD43F001035360054B58
:102A900003491B68C01A0860D5E700BF380400204E
:102AA000780A002040080020002961D0F8B50C46C3
:102AB000064600F051FC54F8042C7B4FA4F10805A5
:102AC00022F0010105EB010CB868DCF80430604528
:102AD00023F0030300F08B80D207CCF8043032D40B
:102AE00054F8082CAD1A1144AA6807F10800824274
:102AF0006AD00CEB0304D4F804E0EC68D4601EF058
:102B0000010FA26000F0978041F001036B60CCF8E8
:102B10000010B1F5007F35D27A68CB084809012151
:102B2000013381401143796007EBC30257F833103A
:102B3000083AC5E9021247F83350CD603046BDE887
:102B4000F84000F00FBC0CEB03025268D00710D421
:102B5000194407F10800DCF80830834273D0DCF830
:102B60000C20DA60936041F001036B606950D0E79C
:102B7000704741F00103B1F5007F44F8043CCCF804
:102B80000010C9D3B1F5206F4FEA512348D28B0909
:102B900003F1390003F13802C300F818FB58083874
:102BA000984259D05A6822F003028A4202D99B689F
:102BB0009842F7D1D868C5E902308560DD603046BB
:102BC000BDE8F84000F0CEBB0CEB03025268D20720
:102BD00063D40B44DCE90212CA60916043F0010245
:102BE0006A603046EB50BDE8F84000F0BBBB0B44D8
:102BF000D10707D454F8082CAD1A1344D5E90212B2
:102C0000CA60916043F001026A60284ABD601268A0
:102C10009A4293D8264B30461968FFF7F5FE8DE7A8
:102C2000142B0AD9542B1FD80B0B03F16F0003F19F
:102C30006E02C300B1E719448DE703F15C0003F1B4
:102C40005B02C300A9E741F00103C7E90455C5E9E8
:102C500002006B60695071E779689210012404FAF0
:102C600002F20A437A60A6E7B3F5AA7F06D8CB0B37
:102C700003F1780003F17702C3008EE740F254526B
:102C8000934206D88B0C03F17D0003F17C02C30054
:102C900083E74FF47E737E227FE741F001036B6090
:102CA000CCF800104AE700BF380400204408002098
:102CB000A80A00202DE9F8430746884600F5387633
:102CC0004FF00009D6E90154013D11D4A389012B2D
:102CD00005F1FF3508D9B4F90E300133214603D090
:102CE0003846C04749EA00096B1C04F16804EDD17D
:102CF0003668002EE6D14846BDE8F88370B50D4E23
:102D00000D4D761BB61006D0002455F8043B013457
:102D10009847A642F9D1094E094D761B01F0DAF920
:102D2000B61006D0002455F8043B01349847A6425B
:102D3000F9D170BD2C4100082C4100083441000835
:102D40002C410008704700BF704700BF704700BFAC
:102D5000704700BF2DE9F04F01F10B06162E83B02E
:102D6000044624D8102900F2BA8000F0F5FA1026A3
:102D700018220220B54F3A44A2F1080153688B4251
:102D800000F0BA805A68D96822F003021A449D689C
:102D9000E9608D60516841F001012046516003F106
:102DA000080500F0DFFA284603B0BDE8F08F36F0E2
:102DB000070600F19480B14200F2918000F0CCFA55
:102DC000B6F5FC7FC0F09A81730A00F08F80042B67
:102DD00000F26F81B30903F1390003F1380CC3002D
:102DE0009A4F3B44A3F108055B689D4206D10CE075
:102DF000002980F22781DB689D4206D05A6822F0C4
:102E00000302911B0F29F3DD60463D69DFF840C2E4
:102E100065457CD06A6822F00302931B0F2B00F3F8
:102E20007B81002BC7E904CC80F26C81B2F5007F76
:102E300080F01A81D308796801334FEA521E0122CB
:102E400002FA0EF20A4357F833E0C5F808E007EB40
:102E5000C3010839E9607A6047F83350CEF80C5066
:102E6000831001219940914257D8114206D120F098
:102E700003004900114200F10400FAD007EBC00939
:102E80004D468646D5F80C80454508D11DE1002BFE
:102E900080F22481D8F80C80454500F01681D8F8DE
:102EA000042022F00302931B0F2BF0DD2046D8E90B
:102EB000025408EB060146F00106C8F80460EC6015
:102EC000A56043F00104C7E90411C1E902CC4C60DC
:102ED00048F8023000F046FA08F1080502E00C2339
:102EE00023600025284603B0BDE8F08F4FF400733F
:102EF00040204FF03F0C73E7D3689A4208BF02307E
:102F00007FF440AF3D69DFF848C1654582D17A68FA
:102F10008310012199409142A7D9BD686B6823F0C5
:102F200003094E4503D8A9EB06030F2B7ADCDFF823
:102F300024B1494BDBF800201B680132334405EB18
:102F4000090A00F0338103F580530F3323F47F68BF
:102F500028F00F084146204600F060FA411C024666
:102F600000F0F380824500F2EE803C4B196841444A
:102F70001960084600F04E81DBF800100193013122
:102F80001BBFA2EB0A0A5044CBF80020186012F0D5
:102F9000070B00F01781CBF108010A44CBF58051F3
:102FA00090440831A1EB0801C1F30B0A51462046B9
:102FB000009200F033FA421CDDE9002300F04F815B
:102FC000801A00EB0A081968BA6048F00100514401
:102FD000BD425060196000F02981B9F10F0F40F235
:102FE00027816868A9F10C0C2CF0070C00F0010097
:102FF00040EA0C0068604FF0050E05EB0C00BCF1D8
:103000000F0FC0E901EE00F2328150681546144BF3
:103010001A688A4238BF1960124B1A688A4238BF50
:10302000196094E0AA1943F0010346F001066E60AE
:103030002046BA60536000F095F90835284603B081
:10304000BDE8F08FD9681A44A1E600BF380400201B
:103050004004002040080020A80A0020780A002030
:10306000A00A0020A40A0020B2F5206F4FEA5223E4
:1030700063D3142B00F2B78003F15C01C9005B330A
:1030800007EB010E7958AEF1080E8E4500F09180E5
:103090004B6823F00303934202D989688E45F7D128
:1030A000D1F80CE07A68C5E9021ECEF80850CD6070
:1030B000D6E6142B59D9542B00F29D80330B03F123
:1030C0006F0003F16E0CC3008AE60EF1010E1EF0D4
:1030D000030F05F108057FF4D5AE51E042444546A3
:1030E0005368D8F80C1043F00103536055F8083FBB
:1030F0002046D9608B6000F035F9F3E6F00806F160
:10310000080237E62A442046536843F0010353601F
:10311000083500F027F9E5E6A919204646F0010632
:1031200043F001046E60C7E90411C1E902CC4C60B0
:10313000AB5000F017F90835D4E6930903F13901D3
:10314000C90038339CE7BD425FD0BD68686820F095
:1031500003084645A8EB060302D80F2B3FF762AFE2
:10316000204600F0FFF80025BCE603F15C0003F107
:103170005B0CC30034E659F808394B4540F09680A3
:1031800010F0030F00F1FF30F5D17B6823EA010353
:103190007B60490099423FF6C0AE19B9BDE64900CF
:1031A0000EF1040E1942FAD0704667E603F11008DA
:1031B000D0E69A104FF001087B6808FA02F21A4331
:1031C0007A6070E702EB08014942C1F30B0A5146ED
:1031D0002046009200F022F9431CDDE900237FF431
:1031E000EFAEDA46EFE6542B25D8130B03F16F014F
:1031F000C9006E3344E7B3F5AA7F25D8F30B03F17A
:10320000780003F1770CC300EAE5294B18684044C5
:103210001860B1E6CAF30B0CBCF1000F7FF4ACAE42
:10322000BD68C84448F001006860F0E61546EEE667
:103230000123536094E7B3F5AA7F23D8D30B03F19E
:103240007801C90077331BE740F25452934223D8E8
:10325000B30C03F17D0003F17C0CC300C0E5ABF1BE
:10326000080BD844A8EB02084FF0000AABE605F1C2
:10327000080120460093FFF717FCBD68009B6868B3
:103280001968C4E640F254518B420BD8930C03F1F9
:103290007D01C9007C33F3E64FF47E737F204FF04D
:1032A0007E0C9DE54FF47E717E23E9E67B6870E736
:1032B000780A0020830730B548D0541E002A3FD03A
:1032C000CAB2034601E0013C3AD303F8012B9D0743
:1032D000F9D1032C2DD9CDB245EA05250F2C45EAAD
:1032E000054536D9A4F1100222F00F0C03F1200E8F
:1032F000E6444FEA121C03F1100242E9045542E988
:10330000025510327245F8D10CF1010214F00C0F85
:1033100003EB021204F00F0C13D0ACF1040323F002
:1033200003030433134442F8045B9342FBD10CF0D3
:1033300003042CB1CAB21C4403F8012B9C42FBD1FC
:1033400030BD64461346002CF4D1F9E70346144619
:10335000BFE71A46A446E0E70148FFF7F7BC00BF05
:103360006C0A00200148FFF7F3BC00BF6C0A002084
:1033700070B5054688B008460C46FDF7E1F8224EC8
:10338000AA6B059001214318CDE9066104A802212A
:1033900004940393AC680190029122B3636E13F01E
:1033A000010FB4F90C309AB201D1980525D59104DA
:1033B00006D4626E43F4005322F40052A381626685
:1033C000284601AA214600F09FF9636E002814BF29
:1033D0004FF0FF350A25DA0702D4A3899B0506D5ED
:1033E000284608B070BD2846FFF77CFAD6E7A06DE6
:1033F000FFF7AEFC284608B070BDA06DFFF7A6FC35
:10340000B4F90C309AB2D2E720410008024B0146D1
:103410001868FFF7ADBF00BF0C00002038B5074D9E
:103420000022044608462A60FDF70EFC431C00D02B
:1034300038BD2B68002BFBD0236038BDAC0A0020C0
:1034400010B50C46B1F90E1000F0D4FB002803DBD8
:10345000236D0344236510BDA38923F48053A38106
:1034600010BD00BF2DE9F0410C46B1F90C101F460C
:10347000CB05054616460BD421F48051A1813B466D
:10348000B4F90E1032462846BDE8F04100F01EB8EF
:10349000B4F90E100223002200F0AAFAB4F90C10BD
:1034A000EAE700BF10B50C46B1F90E1000F0A0FA23
:1034B000A389421C0EBF23F4805343F4805320653C
:1034C000A38110BDB1F90E1000F090B838B50C46CC
:1034D000084D8446114620461A4600232B60644658
:1034E000FDF798FB431C00D038BD2B68002BFBD0A8
:1034F000236038BDAC0A002038B5334B1B68054645
:103500000C460BB19A6B12B3B4F90C3018079AB28F
:1035100025D5216900292DD012F0010007D0002007
:10352000A06060694042A06139B1002038BD9507B4
:1035300058BF6069A0600029F7D1120658BF08463D
:10354000F4D543F04003A3814FF0FF3038BD184657
:10355000FFF7C8F9B4F90C3018079AB2D9D4D106DC
:103560002AD5520714D4216943F00803A3819AB2E3
:103570000029D1D102F42070B0F5007FCCD02146D3
:10358000284600F04BFAB4F90C3021699AB2C3E72F
:10359000216B51B104F14002914204D02846FFF75B
:1035A00083FAB4F90C300022226321690022C4E9B5
:1035B000001223F02403D7E7092243F040032A60D6
:1035C0004FF0FF30A38138BD0C000020024B13B137
:1035D000024800F005B8704700000000DD36000822
:1035E000002301461A46184600F006BD38B5074DBF
:1035F0000022044608462A60FDF71AFB431C00D04F
:1036000038BD2B68002BFBD0236038BDAC0A0020EE
:1036100070B500294BD006460C4610B1836B002BC9
:1036200048D0636ED80734D5B4F90C30002B3ED0A7
:1036300021463046FFF792F8E36A054633B1E16967
:10364000304698470028B8BF4FF0FF35A3891A06C7
:103650003BD4216B41B104F14003994202D0304682
:10366000FFF722FA00232363616C21B13046FFF794
:103670001BFA00236364FFF7BBF9636E0022DB07CC
:10368000A28127D5A06DFFF75FFBFFF7B7F92846AA
:1036900070BDA3899905CBD4A06DFFF757FBB4F992
:1036A0000C30002BC4D1656E15F0010508D0002543
:1036B000284670BDFFF716F9636ED807B4D4E8E763
:1036C000A06DFFF745FB284670BD21693046FFF726
:1036D000EBF9BEE7A06DFFF73BFBD3E738B5084B2E
:1036E000084D5B1B9C1007D0043B1D44013C55F862
:1036F00004399847002CF9D1BDE8384000F0F0BCFF
:1037000038410008344100089368002B00F08180A4
:103710002DE9F04FB1F90C300C461907804683B003
:10372000174698B223D523690BB310F002033D6806
:103730002BD04FF0000ADFF8B4B256465E45334650
:10374000524628BF5B464046002E4FD0E169D4F870
:1037500024C0E047002852DDBB681B1A8244361A99
:10376000BB60002BEAD1002003B0BDE8F08F2146FA
:103770004046FFF7C1FE002840F03481B4F90C3018
:103780003D6898B210F00203D3D110F0010942D184
:103790004E463EB38205D4F808B040F18180B3456F
:1037A0005A4600F2B18010F4906F40F0BE8020685D
:1037B0000192494600F0A2F9A3682168019AA3EB9F
:1037C0000B030A44B246A36022600026B868A0EB4F
:1037D0000A00D144B8600028C5D0B4F90C0080B20A
:1037E000002ED7D1D5E900960835D2E7D5E900A655
:1037F0000835A3E721464046FFF740F880B3B4F907
:103800000C3043F040034FF0FF30A38103B0BDE81C
:10381000F08F002070471E46AA46994618461D465E
:1038200056B388B34A46D4E904132068B24228BF8D
:103830003246884205D9A16803EB010B5A4500F3D3
:10384000A780934264DCE169D4F824C02A4640464C
:10385000E047B0F1000BD2DDB9EB0B09CAD0012073
:10386000BB68A3EB0B035D44A6EB0B06BB60002B10
:103870003FF479AF002ED4D10AF1080353E9025680
:103880009A460833002EF9D032460A212846FCF722
:10389000C7FE002800F09D800130A0EB0509C1E7BC
:1038A00020682369984217D86369B34214D86FF02F
:1038B0000042B24228BF3246E16992FBF3F2D4F8EB
:1038C00024C002FB03F340464A46E047B0F1000A39
:1038D00095DDA6EB0A0679E7B345DA4628BFB2467E
:1038E0005246494600F00AF9A3682268A3EB0A038E
:1038F0005244A3602260002BEBD121464046FEF7E4
:10390000BDFF0028E5D07AE72068B34632464FE78E
:103910002946019200F0F2F8019AA3689B1AA3606D
:10392000236813442360934696E723682169A3EB39
:10393000010B636903EB430A0AEBDA7A0BF101032B
:103940004FEA6A0A33445345524684BF9A46524668
:1039500043052CD511464046FFF7FCF900283BD023
:103960005A4621690190FCF7ABFEA289019B22F423
:10397000906242F08002A28103EB0B002361AAEB6C
:103980000B03C4F814A0A3602060B34632460FE7CF
:1039900029465A4600F0B2F823685B44236021466A
:1039A0004046FEF76BFF00283FF456AF27E740463E
:1039B00000F036F903460028DED121694046FFF7C2
:1039C00073F8B4F90C300C2223F08003C8F80020FF
:1039D00017E7721C914626E70C22B4F90C30C8F8A0
:1039E00000200EE74FF0FF30BEE600BF00FCFF7F77
:1039F00038B50C46084D8446114620461A46002329
:103A00002B606446FDF71EF9431C00D038BD2B68BF
:103A1000002BFBD0236038BDAC0A00202DE9F0411B
:103A20008B890C46990796B008D504F1430301220F
:103A3000C4E90432236016B0BDE8F081B4F90E1079
:103A40000029064627DB6A4600F01CFB002821DB24
:103A5000019D05F47045A5F50055B5FA85F54FF4BF
:103A600080686D094FF4006741463046FFF772F9F0
:103A7000B4F90C30F0B1204AF26343F08003C4F88B
:103A80001480A3812060206135BB3B43A38116B025
:103A9000BDE8F081A38913F0800519D04FF04008EC
:103AA00041463046FFF756F90025B4F90C302F4651
:103AB0000028E0D19A05BED423F0030304F14302A9
:103AC00043F002030121C4E90421A3812260B2E78B
:103AD0004FF480682F46C7E7B4F90E10304600F067
:103AE000E7FA10B9B4F90C30CFE7A38923F0030348
:103AF00043F001031BB2C8E7D928000888420DD95A
:103B00008B1883420AD900EB020CBAB1624613F853
:103B100001CD02F801CD9942F9D170470F2A0ED894
:103B2000034602F1FF3C4AB10CF1010C013B8C440D
:103B300011F8012B03F8012F6145F9D1704740EAD4
:103B400001039B0750D1A2F1100370B501F1200CC5
:103B500023F00F0501F1100E00F11004AC441B0915
:103B60005EF8105C44F8105C5EF80C5C44F80C5C89
:103B70005EF8085C44F8085C5EF8045C44F8045C99
:103B80000EF1100EE64504F11004E9D1013312F0F4
:103B90000C0F01EB031102F00F0400EB031327D00D
:103BA000043C24F003064FEA940C1E441C1F8E466E
:103BB0005EF8045B44F8045FB442F9D10CF10104EF
:103BC00002F0030203EB840301EB840102F1FF3CEA
:103BD0004AB10CF1010C013B8C4411F8012B03F8A4
:103BE000012F6145F9D170BD02F1FF3C03469BE70F
:103BF0002246EBE738B50C46084D84461146204670
:103C00001A4600232B606446FCF7F4FF431C00D0E7
:103C100038BD2B68002BFBD0236038BDAC0A0020D8
:103C20002DE9F84F1746002900F0988007F10B05A1
:103C300080460C46FFF790FB162D5DD810252A46CE
:103C4000AF425ED854F8041C21F003069642A4F15A
:103C5000080962DABC4BD3F808C009EB06008445BA
:103C600000F09780D0F804C02CF0010303445B6897
:103C7000DB0768D42CF0030C06EB0C03934247DA05
:103C8000CB0710D454F8083CA9EB030ADAF8043047
:103C900023F003018C44B444944580F211817318DD
:103CA000934280F2E88039464046FFF753F80746D2
:103CB000E0B154F8043C23F001034B44A0F10802A6
:103CC000934200F0D280321F242A00F2F580132A9A
:103CD00000F2AC80034622461168196051685960B1
:103CE00092689A6021464046FEF7DEFE4046FFF7A6
:103CF00039FB3846BDE8F88F25F00705002D2A4628
:103D00009EDA0C23C8F8003000273846BDE8F88F4B
:103D10001E46D0E90223D3609A60731B0F2B22D872
:103D2000D9F8043003F0010333434E44C9F804309A
:103D3000736843F00103736040462746FFF712FBA8
:103D40003846BDE8F88FC907ADD454F8083CA9EB54
:103D5000030ADAF8041021F00301A0E7BDE8F84FE8
:103D60001146FEF7F7BFD9F8041001F0010129430D
:103D7000C9F8041009EB05014E4443F001034B6000
:103D8000736843F00103083173604046FEF78CFE10
:103D9000D2E7DCF8040020F0030B06EB0B0C05F176
:103DA000100084454DDAC9073FF57DAF54F8081C73
:103DB000A9EB010ADAF8041021F003018B44B344A3
:103DC00058453FF76CAF5746DAF80C1057F8080F14
:103DD000321F242AC160886000F2DB80132A40F27F
:103DE000D6802168CAF808106168CAF80C101B2A2E
:103DF00000F2DF8008340AF1100221681160616866
:103E00005160A16891600AEB0501ABEB050242F03D
:103E1000010299604A60DAF8043003F001031D439F
:103E20004046CAF80450FFF79DFA6EE72368036026
:103E3000636843601B2A68D804F1080200F1080394
:103E40004AE709EB05029A60ACEB050343F0010376
:103E5000536054F8043C03F001031D43404644F80A
:103E6000045CFFF77FFA27464FE750F8043C23F045
:103E700003031E4451E75746DAF80C1057F8080FB1
:103E8000321F242AC16088604CD8132A48D921687F
:103E9000CAF808106168CAF80C101B2A56D80834F2
:103EA0000AF110021E462368136063685360A3681A
:103EB0009360D1463C4630E72146FFF71FFE11E7ED
:103EC000D0E902135746CB60996057F8081FDAF81B
:103ED0000C30CB60321F242A99602DD8132A29D99F
:103EE0002368CAF808306368CAF80C301B2A42D825
:103EF00008340AF1100322681A6062685A60A268E6
:103F00009A606646D1463C4607E7A3688360E3684B
:103F1000C360242A26D004F1100200F11003DBE66E
:103F20003A46BFE7214638461E46D146FFF7E6FD32
:103F30003C46F2E63B46DEE7214638466646D14639
:103F4000FFF7DCFD3C46E8E638040020A168CAF82B
:103F50001010E168CAF81410242A20D010340AF195
:103F600018029FE7236903616169416104F1180246
:103F700000F11803B0E6A368CAF81030E368CAF885
:103F80001430242A21D010340AF11803B3E73A463A
:103F900033E721463846FFF7B1FD164B33E7226978
:103FA000CAF818206269CAF81C2018340AF12002E5
:103FB00078E7A168CAF81010E168CAF81410242A3A
:103FC0000DD010340AF1180217E72369CAF8183027
:103FD0006369CAF81C3018340AF120038BE72269A0
:103FE000CAF818206269CAF81C2018340AF12002A5
:103FF00003E700BF380400202DE9F047DFF87CA07C
:104000000646DAF8000098460F469146FEF79EFEF7
:104010001B4B1B68D3F8484124B365681F2D26DC71
:104020005EB96B1C0235DAF80000636044F8257055
:10403000FEF78EFE0020BDE8F08704EB850101232A
:10404000C1F88890D4F88821AB401A43022EC4F8F6
:104050008821C1F80881E4D1D4F88C211343C4F835
:104060008C31DEE703F5A674C3F84841D5E7DAF8EA
:104070000000FEF76DFE4FF0FF30DCE7480800203F
:104080001C41000870B50C46084D0346002620462A
:1040900011461C462E60FCF7CEFD431C00D070BDBF
:1040A0002B68002BFBD0236070BD00BFAC0A002042
:1040B00038B5074D0022044608462A60FCF7C0FDCB
:1040C000431C00D038BD2B68002BFBD0236038BDCB
:1040D000AC0A0020F8B500BFF8BC08BC9E4670478B
:0C40E000F8B500BFF8BC08BC9E46704755
:1040EC0068656C6C6F20776F726C64210D0000003A
:1040FC00000000000000000001020304060708098C
:10410C000000000001020304000610160006101641
:08411C00100000200A00000061
:084124000CC1FF7F0100000047
:08412C00CD350008E501000893
:04413400C1010008BD
:104138000024F4000100000010000000100000201E
:1041480000000000FC02002064030020CC030020D3
:104158000000000000000000000000000000000057
:104168000000000000000000000000000000000047
:104178000000000000000000000000000000000037
:104188000000000000000000000000000000000027
:104198000000000000000000000000000000000017
:1041A8000000000000000000000000000000000007
:1041B80000000000000000000000000000000000F7
:1041C80000000000000000000000000000000000E7
:1041D80000000000000000000000000000000000D7
:1041E80000000000000000000100000000000000C6
:1041F8000E33CDAB34126DE6ECDE05000B0000008B
:1042080000000000000000000000000000000000A6
:104218000000000000000000000000000000000096
:104228000000000000000000000000000000000086
:104238000000000000000000000000000000000076
:1045780038040020380400204004002040040020B3
:104588004804002048040020500400205004002063
:104598005804002058040020600400206004002013
:1045A80068040020680400207004002070040020C3
:1045B8007804002078040020800400208004002073
:1045C8008804002088040020900400209004002023
:1045D8009804002098040020A0040020A0040020D3
:1045E800A8040020A8040020B0040020B004002083
:1045F800B8040020B8040020C0040020C004002033
:10460800C8040020C8040020D0040020D0040020E2
:10461800D8040020D8040020E0040020E004002092
:10462800E8040020E8040020F0040020F004002042
:10463800F8040020F80400200005002000050020F0
:10464800080500200805002010050020100500209E
:10465800180500201805002020050020200500204E
:1046680028050020280500203005002030050020FE
:1046780038050020380500204005002040050020AE
:10468800480500204805002050050020500500205E
:10469800580500205805002060050020600500200E
:1046A80068050020680500207005002070050020BE
:1046B800780500207805002080050020800500206E
:1046C800880500208805002090050020900500201E
:1046D8009805002098050020A0050020A0050020CE
:1046E800A8050020A8050020B0050020B00500207E
:1046F800B8050020B8050020C0050020C00500202E
:10470800C8050020C8050020D0050020D0050020DD
:10471800D8050020D8050020E0050020E00500208D
:10472800E8050020E8050020F0050020F00500203D
:10473800F8050020F80500200006002000060020EB
:104748000806002008060020100600201006002099
:104758001806002018060020200600202006002049
:1047680028060020280600203006002030060020F9
:1047780038060020380600204006002040060020A9
:104788004806002048060020500600205006002059
:104798005806002058060020600600206006002009
:1047A80068060020680600207006002070060020B9
:1047B8007806002078060020800600208006002069
:1047C8008806002088060020900600209006002019
:1047D8009806002098060020A0060020A0060020C9
:1047E800A8060020A8060020B0060020B006002079
:1047F800B8060020B8060020C0060020C006002029
:10480800C8060020C8060020D0060020D0060020D8
:10481800D8060020D8060020E0060020E006002088
:10482800E8060020E8060020F0060020F006002038
:10483800F8060020F80600200007002000070020E6
:104848000807002008070020100700201007002094
:104858001807002018070020200700202007002044
:1048680028070020280700203007002030070020F4
:1048780038070020380700204007002040070020A4
:104888004807002048070020500700205007002054
:104898005807002058070020600700206007002004
:1048A80068070020680700207007002070070020B4
:1048B8007807002078070020800700208007002064
:1048C8008807002088070020900700209007002014
:1048D8009807002098070020A0070020A0070020C4
:1048E800A8070020A8070020B0070020B007002074
:1048F800B8070020B8070020C0070020C007002024
:10490800C8070020C8070020D0070020D0070020D3
:10491800D8070020D8070020E0070020E007002083
:10492800E8070020E8070020F0070020F007002033
:10493800F8070020F80700200008002000080020E1
:10494800080800200808002010080020100800208F
:10495800180800201808002020080020200800203F
:1049680028080020280800203008002030080020EF
:0C497800FFFFFFFF00000200680A0020A3
:0400000508000ED110
:00000001FF
