:020000040800F2
:1000000000000120E1230008F51F0008F71F000889
:10001000F91F0008FB1F0008FD1F0008000000007A
:10002000000000000000000000000000FF1F0008AA
:10003000012000080000000003200008052000083F
:10004000312400083124000831240008312400083C
:10005000312400083124000831240008312400082C
:10006000312400083124000831240008312400081C
:10007000312400083124000831240008312400080C
:1000800031240008312400080D2000080000000081
:100090000000000000000000000000003124000803
:1000A00031240008312400083124000831240008DC
:1000B00031240008312400083124000831240008CC
:1000C00031240008312400083124000831240008BC
:1000D0003124000831240008312400080000000009
:1000E00031240008312400083124000800000000F9
:1000F00000000000000000000000000031240008A3
:1001000000000000312400083124000831240008D8
:1001100000000000000000000000000000000000DF
:100120001D20000831240008312400082D2000087B
:100130003D2000080000000000000000000000005A
:100140000000000000000000000000003124000852
:10015000312400083124000831240008312400082B
:1001600031240008312400080000000000000000D5
:10017000000000000000000000000000000000007F
:100180000000000031240008000000000000000012
:04019000312400080E
:1001C00010B5054C237833B9044B13B10448AFF391
:1001D00000800123237010BDE00900200000000012
:1001E00024AA000808B5034B1BB103490348AFF329
:1001F000008008BD00000000E409002024AA0008D7
:1002000081F0004102E000BF83F0004330B54FEAC7
:1002100041044FEA430594EA050F08BF90EA020F34
:100220001FBF54EA000C55EA020C7FEA645C7FEAC7
:10023000655C00F0E2804FEA5454D4EB5555B8BFEA
:100240006D420CDD2C4480EA020281EA030382EA5B
:10025000000083EA010180EA020281EA0303362DED
:1002600088BF30BD11F0004F4FEA01314FF4801CC0
:100270004CEA113102D0404261EB410113F0004FD2
:100280004FEA03334CEA133302D0524263EB430389
:1002900094EA050F00F0A780A4F10104D5F1200E27
:1002A0000DDB02FA0EFC22FA05F2801841F1000182
:1002B00003FA0EF2801843FA05F359410EE0A5F156
:1002C00020050EF1200E012A03FA0EFC28BF4CF087
:1002D000020C43FA05F3C01851EBE37101F000453D
:1002E00007D54FF0000EDCF1000C7EEB00006EEB4A
:1002F0000101B1F5801F1BD3B1F5001F0CD34908D4
:100300005FEA30004FEA3C0C04F101044FEA44522A
:1003100012F5800F80F09A80BCF1004F08BF5FEAB1
:10032000500C50F1000041EB045141EA050130BD91
:100330005FEA4C0C404141EB0101013C28BFB1F5A3
:10034000801FE9D291F0000F04BF01460020B1FAEE
:1003500081F308BF2033A3F10B03B3F120020CDAC1
:100360000C3208DD02F1140CC2F10C0201FA0CF09F
:1003700021FA02F10CE002F11402D8BFC2F1200C04
:1003800001FA02F120FA0CFCDCBF41EA0C019040BA
:10039000E41AA2BF01EB0451294330BD6FEA040403
:1003A0001F3C1CDA0C340EDC04F11404C4F12002EE
:1003B00020FA04F001FA02F340EA030021FA04F300
:1003C00045EA030130BDC4F10C04C4F1200220FA57
:1003D00002F001FA04F340EA0300294630BD21FA95
:1003E00004F0294630BD94F0000F83F4801306BF5B
:1003F00081F480110134013D4EE77FEA645C18BF4F
:100400007FEA655C29D094EA050F08BF90EA020FE5
:1004100005D054EA000C04BF1946104630BD91EADD
:10042000030F1EBF0021002030BD5FEA545C05D1E0
:100430004000494128BF41F0004130BD14F580041F
:100440003CBF01F5801130BD01F0004545F0FE4193
:1004500041F470014FF0000030BD7FEA645C1ABFC8
:10046000194610467FEA655C1CBF0B46024650EAFF
:10047000013406BF52EA033591EA030F41F400212B
:1004800030BD00BF90F0000F04BF0021704730B5B1
:100490004FF4806404F132044FF000054FF0000186
:1004A00050E700BF90F0000F04BF0021704730B547
:1004B0004FF4806404F1320410F0004548BF40421C
:1004C0004FF000013EE700BF42004FEAE2014FEA71
:1004D00031014FEA02701FBF12F07F4393F07F4F4C
:1004E00081F06051704732F07F4208BF704793F04F
:1004F0007F4F04BF41F40021704730B54FF4607462
:1005000001F0004521F000411CE700BF50EA010264
:1005100008BF704730B54FF000050AE050EA01020D
:1005200008BF704730B511F0004502D5404261EB7D
:1005300041014FF4806404F132045FEA915C3FF4BE
:10054000D8AE4FF003025FEADC0C18BF03325FEA5B
:10055000DC0C18BF033202EBDC02C2F1200300FA0C
:1005600003FC20FA02F001FA03FE40EA0E0021FA31
:1005700002F11444BDE600BF4FEA4102B2F1E0438C
:1005800024BFB3F5001CDCF1FE5C0DD901F0004C7A
:100590004FEAC0024CEA5070B2F1004F40EB8300CA
:1005A00008BF20F00100704711F0804F21D113F1F6
:1005B0003872BCBF01F00040704741F480114FEA2F
:1005C0005252C2F11802C2F1200C10FA0CF320FAB8
:1005D00002F018BF40F001004FEAC1234FEAD323D5
:1005E00003FA0CFC40EA0C0023FA02F34FEA43033F
:1005F000CCE77FEA625307D150EA01331EBF4FF0C8
:10060000FE4040F44000704701F0004040F0FE40E2
:1006100040F40000704700BF53B94AB9002908BF31
:1006200000281CBF4FF0FF314FF0FF3000F074B9CD
:10063000ADF1080C6DE904CE00F006F8DDF804E039
:10064000DDE9022304B070472DE9F047089D044618
:100650008E46002B4DD18A42944669D9B2FA82F275
:1006600052B101FA02F3C2F1200120FA01F10CFAB1
:1006700002FC41EA030E94404FEA1C48210CBEFBE9
:10068000F8F61FFA8CF708FB16E341EA034306FB72
:1006900007F199420AD91CEB030306F1FF3080F001
:1006A0001F81994240F21C81023E63445B1AA4B24E
:1006B000B3FBF8F008FB103344EA034400FB07F7F0
:1006C000A7420AD91CEB040400F1FF3380F00A8131
:1006D000A74240F207816444023840EA0640E41B26
:1006E00000261DB1D4400023C5E900433146BDE8D2
:1006F000F0878B4209D9002D00F0EF800026C5E974
:10070000000130463146BDE8F087B3FA83F6002E8B
:100710004AD18B4202D3824200F2F980841A61EB03
:10072000030301209E46002DE0D0C5E9004EDDE721
:1007300002B9FFDEB2FA82F2002A40F09280A1EB09
:100740000C014FEA1C471FFA8CFE0126200CB1FB5E
:10075000F7F307FB131140EA01410EFB03F0884257
:1007600008D91CEB010103F1FF3802D2884200F2E4
:10077000CB804346091AA4B2B1FBF7F007FB101176
:1007800044EA01440EFB00FEA64508D91CEB040414
:1007900000F1FF3102D2A64500F2BB800846A4EB6F
:1007A0000E0440EA03409CE7C6F12007B34022FA5A
:1007B00007FC4CEA030C20FA07F401FA06F31C4389
:1007C000F9404FEA1C4900FA06F3B1FBF9F8200C96
:1007D0001FFA8CFE09FB181140EA014108FB0EF0DC
:1007E000884202FA06F20BD91CEB010108F1FF3A2C
:1007F00080F08880884240F28580A8F10208614438
:10080000091AA4B2B1FBF9F009FB101144EA014145
:1008100000FB0EFE8E4508D91CEB010100F1FF34F0
:100820006CD28E456AD90238614440EA0840A0FB88
:100830000294A1EB0E01A142C846A64656D353D05E
:100840005DB1B3EB080261EB0E0101FA07F722FA82
:1008500006F3F1401F43C5E9007100263146BDE8AB
:10086000F087C2F12003D8400CFA02FC21FA03F30E
:10087000914001434FEA1C471FFA8CFEB3FBF7F08F
:1008800007FB10360B0C43EA064300FB0EF69E42B4
:1008900004FA02F408D91CEB030300F1FF382FD24D
:1008A0009E422DD9023863449B1B89B2B3FBF7F6F5
:1008B00007FB163341EA034106FB0EF38B4208D9CE
:1008C0001CEB010106F1FF3816D28B4214D9023E0F
:1008D0006144C91A46EA004638E72E46284605E72D
:1008E0000646E3E61846F8E64B45A9D2B9EB0208FE
:1008F00064EB0C0E0138A3E74646EAE7204694E78E
:100900004046D1E7D0467BE7023B614432E73046C0
:1009100009E76444023842E7704700BF0000000066
:1009200001F0FF01102A2BDB10F0070F08D010F8A0
:10093000013B013A8B422DD010F0070F42B3F6D1A4
:10094000F0B441EA012141EA014122F007047FF0BD
:1009500000070023F0E80256083C85EA010586EA14
:10096000010685FA47F5A3FA87F586FA47F6A5FA50
:1009700087F68EB9EED1F0BC01F0FF0102F007025C
:1009800032B110F8013B013A83EA010313B1F8D107
:100990000020704701387047002D06BF35460338E8
:1009A000073815F0010F07D1013015F4807F02BF21
:1009B000013015F4C03F0130F0BC0138704700BF72
:1009C000844641EA000313F003036DD1403A41D35A
:1009D00051F8043B40F8043B51F8043B40F8043B19
:1009E00051F8043B40F8043B51F8043B40F8043B09
:1009F00051F8043B40F8043B51F8043B40F8043BF9
:100A000051F8043B40F8043B51F8043B40F8043BE8
:100A100051F8043B40F8043B51F8043B40F8043BD8
:100A200051F8043B40F8043B51F8043B40F8043BC8
:100A300051F8043B40F8043B51F8043B40F8043BB8
:100A400051F8043B40F8043B51F8043B40F8043BA8
:100A5000403ABDD2303211D351F8043B40F8043B48
:100A600051F8043B40F8043B51F8043B40F8043B88
:100A700051F8043B40F8043B103AEDD20C3205D358
:100A800051F8043B40F8043B043AF9D2043208D050
:100A9000D2071CBF11F8013B00F8013B01D30B88C2
:100AA00003806046704700BF082A13D38B078DD0A0
:100AB00010F003038AD0C3F10403D21ADB071CBF72
:100AC00011F8013B00F8013B80D331F8023B20F8DC
:100AD000023B7BE7043AD9D3013A11F8013B00F815
:100AE000013BF9D20B7803704B7843708B7883709D
:100AF0006046704700000000000000000000000099
:100B000090F800F06DE9024520F007016FF0000C4D
:100B100010F0070491F820F040F049804FF00004F5
:100B20006FF00700D1E9002391F840F000F10800D0
:100B300082FA4CF2A4FA8CF283FA4CF3A2FA8CF308
:100B40004BBBD1E9022382FA4CF200F10800A4FA6F
:100B50008CF283FA4CF3A2FA8CF3E3B9D1E90423C3
:100B600082FA4CF200F10800A4FA8CF283FA4CF3FA
:100B7000A2FA8CF37BB9D1E9062301F1200182FAB4
:100B80004CF200F10800A4FA8CF283FA4CF3A2FABA
:100B90008CF3002BC6D0002A04BF04301A4612BAC8
:100BA000B2FA82F2FDE8024500EBD2007047D1E9CB
:100BB000002304F00305C4F100004FEAC50514F05A
:100BC000040F91F840F00CFA05F562EA05021CBF2B
:100BD00063EA050362464FF00004A9E770B54FF0E1
:100BE000FF0C4CF4E06C1CEA11541DBF1CEA1355B9
:100BF00094EA0C0F95EA0C0F00F0DEF82C4481EA21
:100C0000030621EA4C5123EA4C5350EA013518BF40
:100C100052EA033541F4801143F4801338D0A0FB2D
:100C200002CE4FF00005E1FB02E506F00042E0FBDA
:100C300003E54FF00006E1FB03569CF0000F18BFE0
:100C40004EF0010EA4F1FF04B6F5007F64F5407488
:100C500004D25FEA4E0E6D4146EB060642EAC6211B
:100C600041EA55514FEAC52040EA5E504FEACE2E88
:100C7000B4F1FD0C88BFBCF5E06F1ED8BEF1004F8B
:100C800008BF5FEA500E50F1000041EB045170BD07
:100C900006F0004646EA010140EA020081EA03014B
:100CA000B4EB5C04C2BFD4EB0C0541EA045170BD47
:100CB00041F480114FF0000E013C00F3AB8014F1C1
:100CC000360FDEBF002001F0004170BDC4F100040A
:100CD000203C35DA0C341BDC04F11404C4F120058B
:100CE00000FA05F320FA04F001FA05F240EA0200E6
:100CF00001F0004221F0004110EBD37021FA04F61C
:100D000042EB06015EEA430E08BF20EAD37070BDD5
:100D1000C4F10C04C4F1200500FA04F320FA05F034
:100D200001FA04F240EA020001F0004110EBD37036
:100D300041F100015EEA430E08BF20EAD37070BDA6
:100D4000C4F1200500FA05F24EEA020E20FA04F37F
:100D500001FA05F243EA020321FA04F001F000412E
:100D600021FA04F220EA020000EBD3705EEA430E9F
:100D700008BF20EAD37070BD94F0000F0FD101F0CE
:100D80000046400041EB010111F4801F08BF013C07
:100D9000F7D041EA060195F0000F18BF704703F045
:100DA0000046520043EB030313F4801F08BF013DCC
:100DB000F7D043EA0603704794EA0C0F0CEA135588
:100DC00018BF95EA0C0F0CD050EA410618BF52EA42
:100DD0004306D1D181EA030101F000414FF0000048
:100DE00070BD50EA410606BF1046194652EA430656
:100DF00019D094EA0C0F02D150EA013613D195EACA
:100E00000C0F05D152EA03361CBF104619460AD111
:100E100081EA030101F0004141F0FE4141F470011B
:100E20004FF0000070BD41F0FE4141F4780170BD0B
:100E300070B54FF0FF0C4CF4E06C1CEA11541DBF70
:100E40001CEA135594EA0C0F95EA0C0F00F0A7F872
:100E5000A4EB050481EA030E52EA03354FEA01319F
:100E600000F088804FEA03334FF0805545EA1313B2
:100E700043EA12634FEA022245EA111545EA10657A
:100E80004FEA00260EF000419D4208BF964244F111
:100E9000FD0404F5407402D25B084FEA3202B61A30
:100EA00065EB03055B084FEA32024FF480104FF404
:100EB000002CB6EB020E75EB030E22BFB61A754678
:100EC00040EA0C005B084FEA3202B6EB020E75EB0B
:100ED000030E22BFB61A754640EA5C005B084FEA73
:100EE0003202B6EB020E75EB030E22BFB61A754640
:100EF00040EA9C005B084FEA3202B6EB020E75EB4B
:100F0000030E22BFB61A754640EADC0055EA060E0B
:100F100018D04FEA051545EA16754FEA06164FEA4E
:100F2000C30343EA52734FEAC2025FEA1C1CC0D1FA
:100F300011F4801F0BD141EA00014FF000004FF087
:100F4000004CB6E711F4801F04BF01430020B4F148
:100F5000FD0C88BFBCF5E06F3FF6AFAEB5EB030C00
:100F600004BFB6EB020C5FEA500C50F1000041EBFD
:100F7000045170BD0EF0004E4EEA113114EB5C04CA
:100F8000C2BFD4EB0C0541EA045170BD41F480119D
:100F90004FF0000E013C90E645EA060E8DE60CEAA5
:100FA000135594EA0C0F08BF95EA0C0F3FF43BAFC2
:100FB00094EA0C0F0AD150EA01347FF434AF95EA79
:100FC0000C0F7FF425AF104619462CE795EA0C0F5D
:100FD00006D152EA03353FF4FDAE1046194622E72A
:100FE00050EA410618BF52EA43067FF4C5AE50EA04
:100FF00041047FF40DAF52EA43057FF4EBAE12E7F4
:101000004FF0FF3C06E000BF4FF0010C02E000BFD4
:101010004FF0010C4DF804CD4FEA410C7FEA6C5CB7
:101020004FEA430C18BF7FEA6C5C1BD001B050EA5A
:10103000410C0CBF52EA430C91EA030F02BF90EA45
:10104000020F0020704710F1000F91EA030F58BF04
:10105000994208BF90422CBFD8176FEAE37040F066
:10106000010070474FEA410C7FEA6C5C02D150EA04
:10107000013C07D14FEA430C7FEA6C5CD6D152EABF
:10108000033CD3D05DF8040B704700BF8446104684
:1010900062468C461946634600E000BF01B5FFF783
:1010A000B7FF002848BF10F1000F01BD4DF808ED53
:1010B000FFF7F4FF0CBF012000205DF808FB00BF24
:1010C0004DF808EDFFF7EAFF34BF012000205DF87E
:1010D00008FB00BF4DF808EDFFF7E0FF94BF0120CB
:1010E00000205DF808FB00BF4DF808EDFFF7CEFFCC
:1010F00094BF012000205DF808FB00BF4DF808ED0B
:10110000FFF7C4FF34BF012000205DF808FB00BFDB
:101110004FEA410C7FEA6C5C02D150EA013C0AD1F3
:101120004FEA430C7FEA6C5C02D152EA033C02D1E5
:101130004FF0000070474FF0010070474FEA410246
:1011400012F5001215D211D56FF47873B3EB625219
:1011500012D94FEAC12343F0004343EA505311F040
:10116000004F23FA02F018BF404270474FF00000D2
:10117000704750EA013005D111F0004008BF6FF010
:10118000004070474FF00000704700BF10B5064C9C
:1011900001228021204602F03DF801224021204614
:1011A00002F038F810BD00BF0004024010B582B054
:1011B0008DF807000C4C00221021204602F02AF87E
:1011C00000220421204602F025F84FF0FF330122CF
:1011D0000DF10701054802F022FD012210212046F1
:1011E00002F018F802B010BD000002404C180020B8
:1011F00010B582B08DF807000C4C0022102120465B
:1012000002F008F801220421204602F003F84FF012
:10121000FF3301220DF10701054802F000FD012214
:101220001021204601F0F6FF02B010BD0000024080
:101230004C18002070B506460D46194C00221021AE
:10124000204601F0E7FF01220421204601F0E2FFE1
:101250000DE03146134802F0BFFD124B9B6C93F832
:101260003530DBB2012BF8D1A4B226442D1B85B159
:101270004FF6FF74AC4228BF2C46A2B20A4B1B8823
:10128000AB42E6D94FF0FF333146064802F0C7FCC7
:10129000EAE701221021024801F0BCFF70BD00BF47
:1012A000000002404C180020080000202DE9F04109
:1012B00082B007460D4616461C46DFF86C800022B9
:1012C0001021404601F0A6FF2A20FFF76FFF3B0ADE
:1012D0008DF804308DF80570330A8DF806308DF8DE
:1012E000076004210DEB0100FFF7A4FF2B20FFF79F
:1012F0005DFF2B0A8DF804308DF80550230A8DF818
:1013000006308DF8074004210DEB0100FFF792FF36
:101310002C20FFF74BFF01221021404601F07AFFFD
:1013200002B0BDE8F08100BF0000024010B50446E5
:101330003620FFF73BFF032C06D8DFE804F0020657
:101340000A0EC020FFF754FF10BDA020FFF750FF8A
:10135000FAE70020FFF74CFFF6E76020FFF748FFB1
:10136000F2E711B903685A637047042904D00829C9
:1013700005D003681A64704703689A63704703686E
:10138000DA63704770B50646EF2340F23F12002142
:101390000846FFF78BFF002210210D4801F03AFFAD
:1013A00000240DE00B4D4FF448623146284603F00F
:1013B00031FB4FF448612846FFF73CFF0134A4B2EB
:1013C0002F2CEFD901221021014801F023FF70BD1D
:1013D00000000240FC09002010B504460022102144
:1013E000074801F017FF44B12120FFF7DFFE01227B
:1013F0001021034801F00EFF10BD2020F5E700BFCB
:101400000000024010B588B04FF4486200215248F5
:1014100003F000FB0A2001F05FF8504C0022082185
:10142000204601F0F7FE0A2001F056F801220821BB
:10143000204601F0EFFE142001F04EF81120FFF7D6
:10144000B5FE782001F048F83620FFF7AFFE002007
:10145000FFF7CEFE3A20FFF7A9FE0520FFF7C8FEF2
:10146000B220FFF7A3FE3E4B93E8030000908DF8F7
:10147000041005216846FFF7DDFE0120FFF756FF47
:10148000B720FFF793FE3520FFF7B2FEBB20FFF732
:101490008DFE2820FFF7ACFEC020FFF787FE2C2032
:1014A000FFF7A6FEC220FFF781FE0120FFF7A0FE96
:1014B000C320FFF77BFE0B20FFF79AFEC420FFF747
:1014C00075FE2020FFF794FEC620FFF76FFE0F2069
:1014D000FFF78EFED020FFF769FEA420FFF788FEFD
:1014E000A120FFF785FEE020FFF760FEEC461D4CD3
:1014F0000FCCACE80F0094E80F00ACE80700ACF8A4
:1015000000301E216846FFF795FEE120FFF74EFEF2
:10151000154B6C460FCB07C423800E216846FFF79E
:1015200089FE2120FFF742FE1120FFF73FFE132026
:10153000FFF73CFE2920FFF739FE322000F0CCFFF8
:101540000020FFF71FFF0020FFF746FF0C21074890
:1015500002F09AFF08B010BDFC0900200000024014
:1015600040AA0008B4B10008D4B1000858190020FE
:1015700082B02DE9F04F83B004460E4693460D939A
:10158000BDF83C80BDF8407000221021244801F0D5
:1015900041FE9DF834502A1992B29DF835A00AEB0D
:1015A00006039BB2013B013A9BB292B23146204600
:1015B000FFF77CFE4FF000091DE03B0A8DF8043078
:1015C0008DF80570022101A8FFF734FE0134A54211
:1015D0000FD906FA04F313F4004FEED04FEA1823A4
:1015E0008DF804308DF80580022101A8FFF722FE56
:1015F000ECE709F10109CA4508D9ABF120030AFB60
:1016000003930E9A32F813600024E0E701221021C0
:10161000034801F0FFFD03B0BDE8F04F02B0704792
:101620000000024082B02DE9F04385B006460D4629
:1016300017460D93BDF83C90BDF840800022102164
:10164000184801F0E7FD10E0013700260DE0CDF865
:101650000880CDF804900E9B00930D9B29463046E0
:10166000FFF786FF3444A6B201373A7882B19DF87D
:1016700034403319B3F5A07FE9DB9DF835301D44C4
:10168000ADB22B44EF2B03DC202ADDD00026DEE7B1
:1016900001221021034801F0BDFD05B0BDE8F04373
:1016A00002B070470000024000B585B000230093EF
:1016B0000193029303933B483B4A02604FF480320C
:1016C0004260836001220261027680F82030C362AA
:1016D00036498162C3600723C36180F830204261CC
:1016E00000F0A8FF002845D10623009301230193B1
:1016F0000023029369462B4801F068F900283CD189
:1017000008230093022301936946264801F05EF9FD
:10171000002835D101230093032301936946214812
:1017200001F054F978BB0523009304230193694623
:101730001C4801F04BF948BB092300930523019392
:101740006946184801F042F918BB1023009306239C
:1017500001936946134801F039F9E8B91123009360
:101760000723019369460F4801F030F9B8B905B075
:101770005DF804FB00F0E0F9B6E700F0DDF9BFE743
:1017800000F0DAF9C6E700F0D7F9CCE700F0D4F9B9
:10179000D2E700F0D1F9D8E700F0CEF9DEE700F0AB
:1017A000CBF9E4E77C160020002001400100000F87
:1017B00070B588B0002303930493059306930793B1
:1017C000026803F1804303F590339A4201D008B0D8
:1017D00070BD04460025009503F58C335A6C42F425
:1017E00080725A645A6C02F480720092009A0195D9
:1017F0001A6B42F001021A631A6B02F001020192A5
:10180000019A02951A6B42F002021A631B6B03F0F5
:1018100002030293029B622303930326049603A907
:10182000174801F017FC03960496059503A915487F
:1018300001F010FC1448154B036045608560C560DD
:101840004FF4806303614FF4006343614FF400532E
:1018500083614FF48073C3610562456201F070FAE1
:1018600058B9094BA3639C6300221146122001F072
:101870008DF9122001F0C2F9A9E700F05DF9F0E757
:101880000000024000040240C416002070640240C0
:1018900010B582B000240194114B1A6B42F48002FF
:1018A0001A631B6B03F480030193019B22462146BC
:1018B000382001F06BF9382001F0A0F922462146CA
:1018C0003B2001F063F93B2001F098F922462146C4
:1018D0003C2001F05BF93C2001F090F902B010BD12
:1018E000003802402DE9F0418AB0002405940694A6
:1018F0000794089409940094464B1A6B42F0040232
:101900001A631A6B02F004020092009A01941A6B97
:1019100042F080021A631A6B02F080020192019A6F
:1019200002941A6B42F001021A631A6B02F0010270
:101930000292029A03941A6B42F002021A631A6B23
:1019400002F002020392039A04941A6B42F0080216
:101950001A631B6B03F008030493049B2E4F22466B
:101960004FF40051384601F055FCDFF8B8802246AC
:1019700049F29C01404601F04DFC284D22464FF4AF
:101980008E51284601F046FC4FF400530593012682
:1019900006960794089405A9384601F05BFB40F2CF
:1019A0003F1305930694079405A9384601F052FBAE
:1019B00049F29C03059306960794089405A94046AE
:1019C00001F048FB40F2046305930694079405A9CF
:1019D000284601F03FFB4FF4885305930696079481
:1019E000089405A9284601F035FB042305930694C5
:1019F000079405A90A4801F02DFBC023059306961C
:101A000007940323089305A9284601F023FB0AB095
:101A1000BDE8F081003802400008024000040240A6
:101A2000000C02400000024008B50B480B4B03605D
:101A30000B4B436000238360C3604FF4804202611C
:101A400043618361C361036201F0EAFB00B908BD31
:101A500000F072F8FBE700BF24170020005C004094
:101A6000A08601002DE9F04188B000230393049380
:101A70000593069307930268204B9A4202D008B060
:101A8000BDE8F081002500951D4C236B43F0040355
:101A90002363236B03F004030093009B0195236BE6
:101AA00043F001032363236B03F001030193019BC4
:101AB0004FF4007303934FF01208CDF81080032702
:101AC00006970426079603A90E4801F0C3FA4FF4BF
:101AD00080730393CDF8108005950697079603A9A8
:101AE000094801F0B7FA0295236C43F4000323641C
:101AF000236C03F400030293029BC0E7005C0040E8
:101B000000380240000802400000024008B50722E9
:101B1000014900F0BBFD08BD78170020024B1A8870
:101B200002605B880B60704778170020014B5B896F
:101B3000036070477817002072B6FEE730B595B0A5
:101B40003022002108A802F065FF002403940494C9
:101B500005940694079401941E4B1A6C42F080522F
:101B60001A641B6C03F080530193019B02941A4A80
:101B7000136823F4404343F400431360136803F4F1
:101B800040430293029B012308934FF4803309934F
:101B900002250E954FF480030F93192310934FF4F1
:101BA000FA73119304231293139308A801F016FCFF
:101BB0000F230393049505944FF4A05306930794C1
:101BC000294603A801F058FE08B915B030BDFFF74B
:101BD000B3FF00BF0038024000700040000000006A
:101BE00080B590B000F04CFCFFF7A8FFFFF77AFE3D
:101BF000FFF74EFE00F0B2F800F0D6FA00F048FB16
:101C000002F08AFE00F0CCF800F05CFBFFF74CFD20
:101C1000FFF70AFF00F0E4F84748FFF777FFFFF708
:101C2000B5FAFFF7EFFB63220C214448FFF799FB5D
:101C30000EA90FA8FFF772FF0DA8FFF777FF64202A
:101C400000F04AFC00240594069407940894099433
:101C50000A940B94ADF83040DDED0F7AF8EEE77A98
:101C6000DFED378A67EEA87A9FED368A67EE887ACD
:101C7000354EC6ED007A17EE900AFEF725FC0246B7
:101C80000B46DFF8D480414605A802F015FF2F4D22
:101C900002944FF6FF7701976B6800932B6805AAB3
:101CA000C8210846FFF7BEFCDDED0E7AF8EEE77AB4
:101CB00067EEA87A67EE887AC6ED007A17EE900A8A
:101CC000FEF702FC02460B46414605A802F0F4FE70
:101CD000029401976B6800932B6805AADC21C82049
:101CE000FFF7A0FC0D98FEF7DDFB11A3D3E900235D
:101CF000FEF774FF0022164BFEF770FFFEF73CFC68
:101D00003060FEF7E1FB02460B46124905A802F0DF
:101D1000D3FE02941F2301936B6800932B6805AADE
:101D200014210846FFF77EFC82E700BFAFF3008076
:101D30000000006066660A407C16002058190020EA
:101D40003333534000008039881700200000002002
:101D50000000303FECB10008E4B1000808B50E48BF
:101D60000E4B03604FF48273436000238360C360B3
:101D70000222026143614FF400728261C361036217
:101D8000436283620A23C36201F0EAFE00B908BD20
:101D9000FFF7D2FEFBE700BF4C18002000300140E7
:101DA00008B50D480D4B03604FF482734360002368
:101DB0008360C360036143614FF400728261C36159
:101DC0000362436283620A23C36201F0C9FE00B961
:101DD00008BDFFF7B1FEFBE7A41800200038004063
:101DE00008B50D480D4B03604FF482734360002328
:101DF0008360C360036143614FF400728261C36119
:101E00000362436283620A23C36201F0A9FE00B940
:101E100008BDFFF791FEFBE7FC180020003C0040E6
:101E200030B58DB000230793089309930A930B9361
:101E30000368584A934208D0574A934261D0574AA0
:101E4000934200F082800DB030BD0446002501951C
:101E5000534B5A6C42F480525A645A6C02F48052CA
:101E60000192019A02951A6B42F002021A631B6BEF
:101E700003F002030293029B382307930223089383
:101E800003230A9305230B9307A9464801F0E2F8C0
:101E90004548464B03604FF0C06343608560C560B2
:101EA0004FF48063036145618561C5614FF4403340
:101EB0000362456200F044FFE8B93B4BE3649C6376
:101EC0003B483C4B03604FF0C0634360402383605A
:101ED0000023C3604FF48062026143618361C36188
:101EE0004FF440320262436200F02AFF30B9304BB7
:101EF000A3649C63A7E7FFF71FFEDEE7FFF71CFE66
:101F0000F5E700210391264B1A6C42F480421A64D3
:101F10001A6C02F480420392039A04911A6B42F005
:101F200002021A631B6B03F002030493049B4FF439
:101F3000604307930223089303230A9305230B931B
:101F400007A9184801F086F87DE700210591144B98
:101F50001A6C42F400421A641A6C02F400420592B0
:101F6000059A06911A6B42F004021A631B6B03F088
:101F700004030693069B4FF4E05307930223089350
:101F800003230A9306230B9307A90B4801F062F879
:101F900059E700BF0030014000380040003C0040DD
:101FA00000380240000402408C17002010640240F8
:101FB000EC170020586402400008024082B0002163
:101FC00000910B4B5A6C42F480425A645A6C02F4F2
:101FD00080420092009A01911A6C42F080521A6479
:101FE0001B6C03F080530193019B02B0704700BF4C
:101FF00000380240FEE7FEE7FEE7FEE7FEE7704737
:102000007047704708B500F055FA08BD08B502489A
:1020100000F0F7FB08BD00BF7C16002008B50248A1
:1020200000F02AFF08BD00BF8C17002008B5024849
:1020300000F022FF08BD00BFEC17002008B50248E1
:1020400000F01AFF08BD00BFC41600200120704731
:1020500008B502F0B5FC162303604FF0FF3008BD51
:1020600008B54FF0FF31FFF7F3FFFEE770B50C4600
:102070001646002506E0AFF30080214601F8010B6B
:1020800001350C46B542F6DB304670BD70B50C46E6
:102090001646002504E014F8010B00F091F9013513
:1020A000B542F8DB304670BD4FF0FF3070474FF45B
:1020B00000534B600020704701207047002070479C
:1020C00010B503460C4A0D490D48006840B10C4854
:1020D00000680344521A934206D8094A136010BD9F
:1020E0000748084C0460F2E702F06AFC0C23036026
:1020F0004FF0FF30F3E700BF0000012000040000B4
:1021000054190020881A0020034AD2F8883043F47A
:102110007003C2F88830704700ED00E00268094B98
:102120009A4200D0704782B000230193064B5A6C4C
:1021300042F001025A645B6C03F001030193019BBE
:1021400002B07047000001400038024000B587B07F
:1021500000230193029303930493059302680F4BAA
:102160009A4202D007B05DF804FB002300930C4BA9
:102170001A6B42F001021A631B6B03F00103009318
:10218000009B4FF400630193022302930123059304
:1021900001A9044800F05EFFE4E700BF0000014031
:1021A000003802400000024010B596B0002412949E
:1021B0001394149415941094119409940A940B9404
:1021C0000C940D940E940F942022214601A802F045
:1021D00021FC2D482D4B03600B2343608460632357
:1021E000C36004614461846101F0BAFF002838D102
:1021F0004FF48053129312A9234802F0B6F8002836
:1022000032D1214801F0D8FF002830D100231093AB
:10221000119310A91C4802F0AFF958BB6023099331
:1022200032230A9300230B930D930E930F930C22EA
:1022300009A9154802F01EF8F8B90023019302938A
:102240000393049305934FF400520692089301A957
:102250000D4802F0CFF998B90B48FFF777FF16B099
:1022600010BDFFF769FCC3E7FFF766FCC9E7FFF79E
:1022700063FCCBE7FFF760FCD0E7FFF75DFCDCE732
:10228000FFF75AFCE8E700BF5819002000000140A2
:1022900008B50A480A4B03604FF4E133436000235A
:1022A0008360C36003610C2242618361C36102F0F9
:1022B00097FA00B908BDFFF73FFCFBE7A019002023
:1022C0000010014008B50A480A4B03604FF4E1339F
:1022D000436000238360C36003610C224261836119
:1022E000C36102F07DFA00B908BDFFF725FCFBE7EA
:1022F000E41900200014014000B58BB000230593C1
:1023000006930793089309930368284A934205D0DC
:10231000274A934226D00BB05DF804FB00210191BF
:10232000244B5A6C42F010025A645A6C02F01002AC
:102330000192019A02911A6B42F001021A631B6B1F
:1023400003F001030293029B4FF4C0630593022341
:102350000693032308930723099305A9164800F061
:1023600079FED8E700210391124B5A6C42F020020B
:102370005A645A6C02F020020392039A04911A6B79
:1023800042F004021A631B6B03F004030493049BE2
:10239000C02305930223069303230893082309937C
:1023A00005A9064800F056FEB5E700BF0010014041
:1023B00000140140003802400000024000080240C2
:1023C00000B583B001904FF6FF73012201A90348C5
:1023D00002F035FA019803B05DF804FBA019002063
:1023E000DFF834D00D480E490E4A002302E0D458DD
:1023F000C4500433C4188C42F9D30B4A0B4C00234D
:1024000001E013600432A242FBD3FFF77DFE02F02D
:10241000DDFAFFF7E5FB7047000001200000002017
:10242000E0090020DCB50008E0090020881A00203F
:10243000FEE7000010B504460E4B18784FF47A738F
:10244000B3FBF0F30C4A1068B0FBF3F000F0E4FBD0
:1024500068B90F2C01D901200AE0002221464FF073
:10246000FF3000F093FB054B1C60002000E00120D2
:1024700010BD00BF100000200C0000201400002040
:1024800008B50B4B1A6842F400721A601A6842F4DD
:1024900080621A601A6842F480721A60032000F0A9
:1024A00063FB0F20FFF7C6FFFFF788FD002008BD84
:1024B000003C0240034A1168034B1B780B44136035
:1024C000704700BF281A002010000020014B186838
:1024D000704700BF281A002038B50446FFF7F6FF02
:1024E0000546B4F1FF3F02D0044B1B781C44FFF7B4
:1024F000EDFF401BA042FAD338BD00BF1000002002
:102500004A4B5A6822F440325A605A6841680A437A
:102510005A600268536823F48073536002685368FA
:10252000016943EA012353600268536823F0407352
:1025300053600268536881680B4353600268936874
:1025400023F40063936002689368C1680B4393604F
:10255000826A374B9A4257D00268936823F07063BF
:10256000936002689368816A0B4393600268936882
:1025700023F04053936002689368C16A0B439360F1
:102580000268936823F00203936002689368017EF7
:1025900043EA4103936090F82030002B3FD002685B
:1025A000536843F4006353600268536823F4604344
:1025B000536001684B68426A013A43EA42334B6018
:1025C0000268D36A23F47003D3620168CB6AC269DC
:1025D000013A43EA0253CB620268936823F4007322
:1025E00093600268936890F8301043EA4123936047
:1025F0000268936823F4806393600268936841697A
:1026000043EA8123936070470268936823F0706304
:1026100093600268936823F040539360B0E70268C8
:10262000536823F400635360CAE700BF00230140EE
:102630000100000F38B310B50446036C43B1236C9E
:1026400013F0100F0BD00120002384F83C3010BD94
:10265000FFF7AEF80023636484F83C30EFE7236CA7
:1026600023F4885323F0020343F00203236420463B
:10267000FFF746FF00206064236C23F0030343F060
:1026800001032364E0E701207047000010B582B029
:1026900013460022019290F83C20012A00F0948019
:1026A0000446012280F83C200268906810F0010F77
:1026B00013D1906840F001009060464A1068464A85
:1026C000A2FB0020800C00EB4000019002E001988A
:1026D0000138019001980028F9D12268906810F41F
:1026E000807F03D0906820F48070906022689068AA
:1026F00010F0010F5DD0206C20F4E06020F00100AC
:1027000040F480702064526812F4806F05D0226C0F
:1027100022F4405242F480522264226C12F4805F10
:1027200034D0626C22F006026264002284F83C20FD
:10273000A26B2A48D063A26B29481064A26B294877
:10274000D06422686FF0220010602068426842F076
:10275000806242602068826842F4807282602068F1
:102760000A4600F14C01A06B00F050FB1E4B5B6869
:1027700013F01F0F0DD123689A6812F0405F25D126
:102780009A6842F080429A6000201BE00022626456
:10279000CBE72368154A934201D0002012E09A68E3
:1027A00012F0405F14D19A6842F080429A60002093
:1027B00008E0236C43F010032364636C43F00103CF
:1027C0006364002002B010BD0220FBE70020F9E79F
:1027D0000020F7E70C00002083DE1B435B29000884
:1027E000F52700084529000800230140002001408A
:1027F0007047704708B5806BFFF7FBFF08BD704757
:10280000704770B5044603681E685D6816F0020FD5
:102810002FD005F0200262B3026C12F0100F03D12A
:10282000026C42F4007202649A6812F0405F19D19F
:10283000227EBAB9DA6A12F4700F03D09A6812F4E1
:10284000806F0FD15A6822F020025A60236C23F463
:1028500080732364236C13F4805F03D1236C43F0F3
:10286000010323642046FFF7C3FF23686FF01202C1
:102870001A6005F0800316F0040F37D0002B35D016
:10288000236C13F0100F03D1236C43F40053236423
:1028900023689A6812F4401F21D19A6B12F4401FEA
:1028A00003D09A6812F4806F19D15A6812F4806FBD
:1028B00015D19A6812F0405F11D1227E7AB95A6818
:1028C00022F080025A60236C23F480532364236C2B
:1028D00013F4807F03D1236C43F00103236420466B
:1028E00000F040F923686FF00C021A6005F0400315
:1028F00016F0010F05D023B123681B6813F0010FF8
:1029000006D105F0806516F0200F00D065B970BDC6
:10291000236C43F4803323642046FFF770FF236861
:102920006FF001021A60ECE7636C43F0020363642A
:1029300023686FF020051D602046FFF761FF2368C4
:102940001D60E4E708B5806B40230364436C43F0EB
:1029500004034364FFF754FF08BD08B50346806BCA
:10296000026C12F0500F25D1036C43F40073036422
:1029700003689A6812F0405F19D1027EBAB9DA6A28
:1029800012F4700F03D09A6812F4806F0FD15A6856
:1029900022F020025A60036C23F480730364036CFA
:1029A00013F4805F03D1036C43F001030364FFF76A
:1029B0001FFF08BD026C12F0100F04D1826BD26CA5
:1029C00018469047F5E7FFF71BFFF2E730B482B0F7
:1029D0000023019390F83C30012B00F0BB800123D1
:1029E00080F83C300B68092B41D90468E2689BB23F
:1029F00003EB43031E3B4FF0070C0CFA03F322EAF0
:102A00000303E3600468E2680B8803EB43031E3BA7
:102A10008D6805FA03F31343E3604B68062B3DD83A
:102A20000468626B03EB8303053B4FF01F0C0CFA49
:102A300003F322EA030363630468626B4B6803EBEE
:102A40008303053BB1F800C00CFA03F3134363633F
:102A50000268414B9A4251D002683F4B9A4256D08D
:102A6000002380F83C30184602B030BC7047046840
:102A700022699BB203EB43034FF0070C0CFA03F3FC
:102A800022EA03032361046822690B8803EB4303F2
:102A90008D6805FA03F313432361BEE70C2B16D8A8
:102AA00005682A6B03EB8303233B1F2404FA03F31B
:102AB00022EA03032B6305682A6B4B6803EB83034D
:102AC000233B0C8804FA03F313432B63C0E7056828
:102AD000EA6A03EB8303413B1F2404FA03F322EA6F
:102AE0000303EB620568EA6A4B6803EB8303413B2F
:102AF0000C8804FA03F31343EB62A9E70B68122B6B
:102B0000AAD1164A536843F480035360A4E70B68C4
:102B1000103B012BA4D8114A536843F400035360BF
:102B20000B68102B9CD10E4B1B6802F1467202F50C
:102B30002E3202F28332A2FB03239B0C03EB8303AE
:102B40005B00019302E0019B013B0193019B002B81
:102B5000F9D185E7022087E70020014000230140EA
:102B60000C00002070470000074AD36823F4E0639C
:102B70001B041B0C000200F4E060034343F0BF633E
:102B800043F40033D360704700ED00E000B5194B0B
:102B9000DB68C3F30223C3F1070CBCF1040F28BFA9
:102BA0004FF0040C03F1040EBEF1060F18D9033BDD
:102BB0004FF0FF3E0EFA0CFC21EA0C0199400EFA90
:102BC00003F322EA0303194300280BDB0901C9B20E
:102BD00000F1604000F5614080F800135DF804FBEF
:102BE0000023E5E700F00F000901C9B2024B1954B8
:102BF000F4E700BF00ED00E014ED00E0002807DB83
:102C000000F01F02400901239340024A42F820309D
:102C1000704700BF00E100E00138B0F1807F0BD2C7
:102C20004FF0E0235861054AF02182F8231000207C
:102C3000986107221A6170470120704700ED00E09B
:102C400030B405682C6824F480242C600468636028
:102C50008368402B05D0036899600368DA6030BC54
:102C6000704703689A600368D960F8E710B4036896
:102C7000D9B210390C4AA2FB014212090B4CA25CDA
:102C8000C2655F2909D923F47F7323F0030304335A
:102C90008365806D5DF8044B704723F47F7323F0E8
:102CA00003038365F5E700BFABAAAAAA08B2000830
:102CB000836A826992B9012B0AD0022B02D00BB130
:102CC00000207047C36A13F0807F28D1002070472E
:102CD000C36AB3F1C07F24D000207047B2F5005F13
:102CE00009D0022B25D9032B25D1C36A13F0807F8D
:102CF00023D100207047032B03D8DFE803F014042E
:102D0000140A00207047C36A13F0807F0DD10020A1
:102D10007047C36AB3F1C07F09D00020704701201B
:102D20007047012070470120704701207047012043
:102D30007047012070470020704701207047000055
:102D400070B50446FFF7C2FB002C5BD0054602239A
:102D500084F83530002384F834302268136823F077
:102D60000103136023681A6812F0010F0AD0FFF7FD
:102D7000ADFB431B052BF5D920236365032084F8A5
:102D8000350070BD1A68204810406168A2680A4387
:102D9000E1680A4321690A4361690A43A1690A4358
:102DA000E1690A43216A0A430243616A04291ED089
:102DB0001A602668756925F00705636A1D43042BB0
:102DC00007D1A36A1D43E36A1BB12046FFF770FFDA
:102DD00090B975612046FFF749FFE26D3F239340AC
:102DE000836000206065012384F83530C9E7E16A1B
:102DF000206B01430A43DBE740236365012084F82D
:102E00003500BEE70120BCE73F8010F038B504462E
:102E1000856D90F8340001282BD0012084F834000F
:102E200094F83500C0B2012804D0002384F834306F
:102E3000022038BD022084F835000020606520465D
:102E4000FFF7FEFEE26D3F239340AB6022681368FC
:102E500043F016031360236C23B12268136843F018
:102E6000080313602268136843F001031360002015
:102E7000DFE70220DDE70000F0B583B00446002361
:102E80000193724B1D68724BA3FB0535AD0A876D2C
:102E90003E68C26D08239340334210D003681A681D
:102EA00012F0040F0BD01A6822F004021A60C26DEF
:102EB00008239340BB60436D43F001034365E26D1B
:102EC00001239340334209D02268526912F0800FE7
:102ED00004D0BB60636D43F002036365E26D0423BD
:102EE0009340334209D02268126812F0020F04D0D6
:102EF000BB60636D43F004036365E26D1023934090
:102F0000334224D02268126812F0080F1FD0BB6031
:102F100023681A6812F4802F0DD01B6813F4002F59
:102F200004D1236C9BB12046984710E0A36C73B189
:102F3000204698470BE01A6812F4807F03D11A6884
:102F400022F008021A60236C0BB120469847E26D0C
:102F500020239340334255D02268126812F0100F9C
:102F600050D0BB6094F83530DBB2052B0ED023680F
:102F70001A6812F4802F33D01B6813F4002F2AD163
:102F8000636C002B3ED0204698473BE022681368D4
:102F900023F0160313602268536923F08003536102
:102FA000236CA3B12268136823F008031360E26D59
:102FB0003F239340BB60012384F83530002384F81D
:102FC0003430236D002B3FD0204698473CE0A36C63
:102FD000002BE7D1EBE7E36BA3B12046984711E064
:102FE0001A6812F4807F09D11A6822F010021A6060
:102FF000012384F83530002384F83430E36B0BB1BF
:1030000020469847636DFBB1636D13F0010F17D035
:10301000052384F835302268136823F00103136018
:10302000019B01330193AB4204D823681B6813F062
:10303000010FF5D1012384F83530002384F83430B2
:10304000E36C0BB12046984703B0F0BD0C000020A4
:10305000B5814E1B00230F2B00F2D28070B582B0D9
:1030600060E085685E000324B44025EA0405CC686E
:10307000B4402C438460456825EA02054C68C4F3DB
:1030800000129A402A4342605AE0DC08083450F8A3
:10309000246003F0070295000F22AA4026EA020EE0
:1030A0000A69AA4042EA0E0240F824205CE00422A9
:1030B00000E0002202FA0EF22A430234514D45F894
:1030C0002420514A94686FEA0C0224EA0C054E68E9
:1030D00016F4801F01D04CEA04054B4CA560E4684F
:1030E00002EA04054E6816F4001F01D04CEA0405FC
:1030F000454CE560646802EA04054E6816F4003F3A
:1031000001D04CEA0405404C6560246822404D68BB
:1031100015F4803F01D04CEA04023B4C226001339D
:103120000F2B6BD801229A400C6804EA020C32EA99
:103130000404F4D14C6804F00304013C012C90D940
:103140004A6802F00302032A09D0C4685D00032222
:10315000AA4024EA02048A68AA402243C2604A685C
:1031600002F00302022A90D004684FEA430E0322C1
:1031700002FA0EF224EA02044A6802F0030202FA9A
:103180000EF2224302604A6812F4403FC7D0002288
:1031900001921E4A546C44F480445464526C02F40C
:1031A00080420192019A9C08A51C164A52F82550AB
:1031B00003F003024FEA820E0F2202FA0EF225EA12
:1031C0000205134A90423FF474AF02F580629042C8
:1031D0000ED002F5806290420CD002F580629042DF
:1031E0000AD002F5806290423FF461AF072261E7A6
:1031F00001225FE702225DE703225BE702B070BDB8
:10320000704700BF00380140003C014000380240D8
:10321000000002400AB18161704709048161704772
:10322000002800F0CC8070B5044690F83D30002BAB
:1032300077D0242384F83D302268136823F00103FB
:1032400013602268136843F4004313602268136814
:1032500023F40043136000F0C5FB62685A4B9A42A6
:1032600064D85A4B98428CBF00230123002B40F0B6
:10327000A8805749A1FB00318B0C25686A6822F0B1
:103280003F0242EA91426A6021680A6A22F03F02E4
:1032900066684D4DAE424FD8013313430B6221682F
:1032A000CA6922F44F4222F0FF026668464B9E42F2
:1032B0004CD8431E7600B3FBF6F3013340F6FC70A6
:1032C000034278D0C3F30B031343CB6121680B682F
:1032D00023F0C003E269206A024313430B602168B4
:1032E0008B6823F4034323F0FF032269E068024361
:1032F00013438B602168CB6823F0FF036269A069E8
:1033000002431343CB602268136843F00103136048
:1033100000202064202384F83D30206384F83E00A0
:1033200070BD80F83C30FEF79DFB82E7294B984248
:103330008CBF0023012399E74FF4967505FB03F337
:10334000254DA5FB03539B090133A6E7A368BBB931
:10335000451E06EB460CB5FBFCF50135C5F30B0528
:10336000B5FA85F56D0945BBC3B9013806EB4603CF
:10337000B0FBF3F30133C3F30B0343F40043A3E7C0
:10338000451E06EB860C0CEB8C0CB5FBFCF50135F1
:10339000C5F30B05B5FA85F56D09E4E7013806EBD1
:1033A000860303EB8303B0FBF3F30133C3F30B0397
:1033B00043F4404388E7042386E7012384E70120A0
:1033C00070470120ACE700BFA08601007F841E008B
:1033D00083DE1B43FF083D00D34D6210002800F040
:1033E000E08170B582B00446036813F0010F3BD052
:1033F0009F4B9B6803F00C03042B2CD09C4B9B68C9
:1034000003F00C03082B21D06368B3F5803F4FD045
:10341000B3F5A02F52D0964B1A6822F480321A606E
:103420001A6822F480221A606368002B50D0FFF7DC
:103430004DF805468E4B1B6813F4003F14D1FFF77F
:1034400045F8401B6428F5D90320B1E1884B5B683F
:1034500013F4800FD8D0864B1B6813F4003F03D0C1
:103460006368002B00F09F81236813F0020F54D093
:103470007F4B9B6813F00C0F3ED07D4B9B6803F095
:103480000C03082B33D0E368002B68D0794B012262
:103490001A60FFF71BF80546754B1B6813F0020F07
:1034A00054D1FFF713F8401B0228F5D903207FE120
:1034B0006F4A136843F480331360B5E76C4B1A68A6
:1034C00042F480221A601A6842F480321A60ABE734
:1034D000FEF7FCFF0546664B1B6813F4003FC3D0A4
:1034E000FEF7F4FF401B6428F5D9032060E1604B30
:1034F0005B6813F4800FC6D15D4B1B6813F0020F9D
:1035000003D0E368012B40F05081594A136823F03F
:10351000F803216943EAC1031360236813F0080F1D
:1035200042D063696BB3534B0122C3F8802EFEF780
:10353000CDFF05464E4B5B6F13F0020F34D1FEF703
:10354000C5FF401B0228F5D9032031E1484A136822
:1035500023F0F803216943EAC1031360DDE7454B1B
:1035600000221A60FEF7B2FF0546414B1B6813F0BC
:10357000020FD2D0FEF7AAFF401B0228F5D9032084
:1035800016E13C4B0022C3F8802EFEF79FFF054654
:10359000374B5B6F13F0020F06D0FEF797FF401B0F
:1035A0000228F5D9032003E1236813F0040F77D034
:1035B0002F4B1B6C13F0805F33D1002301932C4BF6
:1035C0001A6C42F080521A641B6C03F08053019312
:1035D000019B0125284B1B6813F4807F23D0A3682F
:1035E000012B34D0052B38D0214B1A6F22F0010269
:1035F0001A671A6F22F004021A67A368002B3DD0E5
:10360000FEF764FF06461A4B1B6F13F0020F46D1FC
:10361000FEF75CFF801B41F288339842F3D9032008
:10362000C6E00025D6E7144A136843F4807313609C
:10363000FEF74CFF0646104B1B6813F4807FCED17B
:10364000FEF744FF801B0228F5D90320B0E0084AAA
:10365000136F43F001031367CFE7054B1A6F42F076
:1036600004021A671A6F42F001021A67C5E700BF29
:10367000003802400000474200700040FEF726FF7D
:103680000646524B1B6F13F0020F08D0FEF71EFFC9
:10369000801B41F288339842F3D9032088E0EDB9CA
:1036A000A369002B00F08380484A926802F00C0264
:1036B000082A51D0022B17D0454B00221A66FEF77C
:1036C00005FF0446414B1B6813F0007F42D0FEF714
:1036D000FDFE001B0228F5D9032069E03B4A136C6C
:1036E00023F080531364DBE7394B00221A66FEF7A0
:1036F000EDFE0546354B1B6813F0007F06D0FEF744
:10370000E5FE401B0228F5D9032051E0E369226A57
:103710001343626A43EA8213A26A5208013A43EAF7
:103720000243E26A43EA0263284A5360284B0122BB
:103730001A66FEF7CBFE0446244B1B6813F0007F8D
:1037400006D1FEF7C3FE001B0228F5D903202FE0A7
:1037500000202DE000202BE0012B2BD01B4B5B68C1
:1037600003F48001E269914226D103F03F02216A0D
:103770008A4223D1616A47F6C0721A40B2EB811FB8
:103780001ED103F44031A26A5208013AB1EB024F54
:1037900018D103F07063E26AB3EB026F14D100201A
:1037A00006E001207047012002E0012000E0002037
:1037B00002B070BD0120FBE70120F9E70120F7E727
:1037C0000120F5E70120F3E70120F1E7003802408E
:1037D0000000474208B5254B9B6803F00C03042BFF
:1037E0003FD0082B3FD1214B5A6802F03F025B6863
:1037F00013F4800F12D01D4B5968C1F388111C4877
:103800000023A1FB0001FCF707FF184B5B68C3F323
:10381000014301335B00B0FBF3F025E0134B596823
:10382000C1F3881C4FEA4C11B1EB0C006EEB0E0E8D
:103830004FEA8E1343EA90638101091A63EB0E038A
:10384000DB0043EA5173C90011EB0C0C43F1000398
:10385000990200234FEA8C2041EA9C51FCF7DCFEE0
:10386000D3E7034800E0034808BD00BF003802402A
:1038700040787D010024F400002800F09B8070B5A2
:103880000D4604464F4B1B6803F007038B4208D2DA
:10389000CBB24C4A1370136803F007038B4240F01D
:1038A0008B80236813F0020F17D013F0040F04D09D
:1038B000454A936843F4E0539360236813F0080F7C
:1038C00004D0414A936843F4604393603E4A93684E
:1038D00023F0F003A1680B439360236813F0010FFA
:1038E00032D06368012B21D09A1E012A25D9364A8D
:1038F000126812F0020F61D033498A6822F0030285
:1039000013438B60FEF7E2FD06462F4B9B6803F0E6
:103910000C036268B3EB820F16D0FEF7D7FD801B55
:1039200041F288339842F0D9032042E0264A1268D7
:1039300012F4003FE0D101203BE0234A126812F06C
:10394000007FD9D1012034E01E4B1B6803F0070330
:10395000AB4207D9EAB21B4B1A701B6803F007038E
:10396000AB422DD1236813F0040F06D0164A93689A
:1039700023F4E053E1680B439360236813F0080FCE
:1039800007D0114A936823F46043216943EAC103D5
:103990009360FFF71FFF0C4B9B68C3F303130B4AA5
:1039A000D35CD8400A4B18600A4B1868FEF742FDFA
:1039B000002070BD012070470120FAE70120F8E7E0
:1039C0000120F6E7003C024000380240F0B1000858
:1039D0000C00002014000020014B1868704700BF45
:1039E0000C00002008B5FFF7F7FF044B9B68C3F3FA
:1039F0008223034AD35CD84008BD00BF0038024090
:103A000000B2000808B5FFF7E7FF044B9B68C3F35B
:103A10004233034AD35CD84008BD00BF003802409F
:103A200000B200082DE9F04782B0054688461746E7
:103A30001E46FEF74BFD0A9B1B1A03EB0609FEF719
:103A400045FD82462B4B1B68C3F3CB3309FB03F3C5
:103A500001932B689C6838EA04030CBF4FF0010CFB
:103A60004FF0000CBC4540D0B6F1FF3FF1D0FEF75F
:103A70002DFDA0EB0A0048450AD2B9F1000F07D08E
:103A8000019A02B14A46019B013B01939146E0E74E
:103A90002A68536823F0E00353606B68B3F5827FB4
:103AA0000BD0AB6AB3F5005F14D0012385F8513019
:103AB000002385F85030032018E0AB68B3F5004FC1
:103AC00002D0B3F5806FECD12A68136823F040036D
:103AD0001360E6E72A68136823F4005313602A682A
:103AE000136843F400531360DFE7002002B0BDE821
:103AF000F08700BF0C00002010B584B00446164BC0
:103B00001868164BA3FB0030400D4FF47A7303FB8B
:103B100000F003906368B3F5827F0BD0039BBBB1C9
:103B2000039B013B039323689B6813F0800FF5D13F
:103B300000200EE000920B46002280212046FFF775
:103B400071FF30B1636D43F020036365032000E033
:103B5000002004B010BD00BF0C000020819F5E1645
:103B600000285AD010B50446436A33B94368B3F508
:103B7000827F05D00023C36102E00023036143611B
:103B80000023A36294F85130002B40D0022384F824
:103B900051302268136823F040031360636803F414
:103BA0008273A26802F404421343E26802F40062E2
:103BB0001343226902F002021343626902F0010218
:103BC0001343A26902F400721343E26902F038025F
:103BD0001343226A02F080021343A26A02F40052E5
:103BE000216813430B60638B03F00403626A02F0E5
:103BF0001002216813434B602268D36923F40063E9
:103C0000D36100206065012384F8513010BD84F831
:103C100050302046FEF704F9B8E7012070472DE93F
:103C2000F04383B01D4690F85030012B00F0D18056
:103C3000044688469146012380F85030FEF746FC42
:103C4000074694F85160F6B2012E40F0AF80B8F10B
:103C5000000F00F0AC80B9F1000F00F0A880032342
:103C600084F8513000236365C4F83080A4F83490A0
:103C7000A4F83690A363A387E38763642364A368EF
:103C8000B3F5004F1ED023681A6812F0400F03D11D
:103C90001A6842F040021A60E368B3F5006F1CD066
:103CA000636813B1B9F1010F52D1226B2368127806
:103CB0001A73236B01332363E38E9BB2013B9BB2E8
:103CC000E38645E02268136823F04003136022680E
:103CD000136843F480431360D5E7636813B1B9F107
:103CE000010F16D1226B23681288DA60236B02332E
:103CF0002363E38E9BB2013B9BB2E38609E0FEF7B0
:103D0000E5FBC01BA84202D3B5F1FF3F59D1002DFE
:103D100059D0E38E9BB2002B33D023689A6812F0FF
:103D2000020FECD0226B1288DA60236B023323631C
:103D3000E38E9BB2013B9BB2E386EAE7FEF7C6FB4C
:103D4000C01BA84202D3B5F1FF3F3ED1002D3ED0AB
:103D5000E38E9BB2ABB123689A6812F0020FEDD0EC
:103D6000226B12781A73236B01332363B4F836C0C5
:103D70001FFA8CFC0CF1FF3C1FFA8CFCA4F836C037
:103D8000E6E73A4629462046FFF7B6FE08B120236B
:103D90006365A36833B901932368DA6801929B686D
:103DA0000193019B636D13B9002600E002260123F5
:103DB00084F85130002384F85030304603B0BDE819
:103DC000F0830326F3E70326F1E70326EFE7032654
:103DD000EDE70226F1E7000038B590F85030012BEE
:103DE00061D00446012380F8503090F85150EDB274
:103DF0009D4252D1002951D0002A4FD0032380F890
:103E000051300023436501638286C2868363436425
:103E100003648387C3878368B3F5004F2AD0A36CFC
:103E2000224A1A64A36C224ADA63A36C214ADA6438
:103E3000A36C00221A652268E38E9BB20C32216BC0
:103E4000A06CFEF7E3FF0146F8B923681A6812F088
:103E5000400F03D11A6842F040021A60226853688A
:103E600043F0200353602268536843F00203536019
:103E70000D4613E00268136823F0400313600268E4
:103E8000136843F480431360C9E7636D43F0100384
:103E90006365012384F8513000E00225002384F893
:103EA0005030284638BD0225FBE700BFBD3E000864
:103EB000EB3E0008C93E00087047704708B5806BAC
:103EC000FFF7FBFF08BD704708B5806B02685368B9
:103ED00023F003035360436D43F010034365012354
:103EE00080F85130FFF7EFFF08BD30B583B00546CD
:103EF000846BFEF7EBFA2B681B6813F4807F23D1E9
:103F0000024621684B6823F020034B6021684B6810
:103F100023F002034B6064212046FFF7EDFD18B14A
:103F2000636D43F020036365A36833B9019323688D
:103F3000DA6801929B680193019B0023E3860123C9
:103F400084F85130636D23B92046FFF7B5FF03B005
:103F500030BD2046FFF7B7FFF9E7000070B4036AF1
:103F600023F001030362036A4668826922F0730248
:103F70000C6844EA020523F002028B6813430D4CDF
:103F8000A04209D00B4CA0420DD0466085614A6822
:103F90004263036270BC704723F00803CA6813438E
:103FA00023F00403EEE726F440764A6932438E6933
:103FB0001643EAE70000014030B4036A23F480733B
:103FC0000362036A4568C26922F073020C682243E7
:103FD00023F400738C6843EA04230F4CA04209D0F9
:103FE0000D4CA0420ED04560C2614A68C2630362B4
:103FF00030BC704723F40063CC6843EA042323F405
:104000008063EDE725F440554C6945EA04158C6959
:1040100045EA0415E7E700BF0000014030B4036A39
:1040200023F480530362036A4468C26922F4E642BF
:104030000D6842EA052223F400538D6843EA0533F4
:10404000074DA84206D04460C2614A680264036218
:1040500030BC704724F480444D6944EA8514F2E78B
:104060000000014010B4036A046A24F001040462F1
:10407000846924F0F00C4CEA021223F00A030B438B
:10408000826103625DF8044B704710B4046A24F047
:10409000100404628469036A24F4704C4CEA02320E
:1040A00023F0A00343EA0113826103625DF8044B2D
:1040B0007047836823F070030B4343F0070383606A
:1040C000704770470368254A90420ED0B0F1804F88
:1040D0000BD0A2F57C42904207D002F5806290425C
:1040E00003D002F58062904203D123F070034A6846
:1040F00013431A4A90421AD0B0F1804F17D0A2F55C
:104100007C42904213D002F5806290420FD002F5BB
:10411000806290420BD002F59A32904207D002F5AD
:104120008062904203D002F58062904203D123F472
:104130004073CA68134323F080034A691343036042
:104140008B68C3620B688362044B984202D00123E0
:10415000436170470B690363F9E700BF000001404A
:1041600040B310B5044690F83D30F3B1022384F813
:104170003D30214651F8040BFFF7A4FF012384F8DA
:10418000463084F83E3084F83F3084F8403084F87C
:10419000413084F8423084F8433084F8443084F865
:1041A000453084F83D30002010BD80F83C30FDF7EC
:1041B000B5FFDBE70120704740B310B5044690F827
:1041C0003D30F3B1022384F83D30214651F8040B11
:1041D000FFF778FF012384F8463084F83E3084F8F6
:1041E0003F3084F8403084F8413084F8423084F81D
:1041F000433084F8443084F8453084F83D30002062
:1042000010BD80F83C30FFF75CFFDBE70120704712
:1042100030B4036A23F010030362036A44688269BE
:1042200022F4E6420D6842EA052223F020038D685D
:1042300043EA05130E4DA84209D00D4DA8420ED0F9
:10424000446082614A688263036230BC704723F035
:104250008003CD6843EA051323F04003EDE724F41F
:1042600040644D6944EA85048D6944EA8504E7E7C2
:104270000000014038B590F83C30012B66D0044670
:104280000D46012380F83C300C2A5AD8DFE802F0B2
:10429000075959591B5959593059595944000068FF
:1042A000FFF75CFE2268936943F00803936122687C
:1042B000936923F0040393612268936929690B438E
:1042C000936100203EE00068FFF7A2FF2268936937
:1042D00043F4006393612268936923F480639361DC
:1042E00022689369296943EA01239361002029E048
:1042F0000068FFF761FE2268D36943F00803D361C9
:104300002268D36923F00403D3612268D369296941
:104310000B43D361002015E00068FFF77FFE2268A1
:10432000D36943F40063D3612268D36923F48063C3
:10433000D3612268D369296943EA0123D36100204C
:1043400000E00120002384F83C3038BD0220FCE767
:1043500010B4846824F47F4C42EA03220A4342EA00
:104360000C0282605DF8044B704790F83C30012BE2
:1043700078D010B50446012380F83C30022380F841
:104380003D300268936823F47F4323F07703936002
:104390000B68602B4CD029D8402B54D00CD9502B13
:1043A00022D1CA6849680068FFF75CFE5021206886
:1043B000FFF77FFE002005E0202B0DD009D9302B20
:1043C0000AD00120012384F83D30002384F83C30DA
:1043D00010BD0BB1102B05D119462068FFF769FEFF
:1043E0000020EFE70120EDE70120EBE7B3F5805F68
:1043F00034D0B3F5005F0CD1CB684A688968006897
:10440000FFF7A6FF2268936843F48043936000207F
:10441000D8E7702B24D1CB684A6889680068FFF719
:1044200097FF2268936843F0770393600020C9E701
:10443000CA6849680068FFF728FE60212068FFF716
:1044400038FE0020BEE7CA6849680068FFF70AFE28
:1044500040212068FFF72DFE0020B3E70020B1E7E0
:104460000120AFE70220704701F01F01012303FA8A
:1044700001FC036A23EA0C030362036A02FA01F1F6
:104480000B4303627047000010B50446084600293C
:1044900032D194F83E30DBB2013B18BF0123002B30
:1044A00063D1002841D1022384F83E300122014625
:1044B0002068FFF7D9FF23682E4A934245D023682E
:1044C0002C4A934246D0B3F1804F43D0A2F57C42B0
:1044D00093423FD002F5806293423BD002F5806266
:1044E000934237D002F59A32934233D01A6842F0A1
:1044F00001021A60002037E0042908D008290DD0F5
:1045000094F84130DBB2013B18BF0123C7E794F8B0
:104510003F30DBB2013B18BF0123C0E794F84030C5
:10452000DBB2013B18BF0123B9E7042805D00828F6
:1045300007D0022384F84130B8E7022384F83F30E3
:10454000B4E7022384F84030B0E75A6C42F40042EA
:104550005A64B4E79A6802F00702062A07D01A687C
:1045600042F001021A60002010BD0120FCE700208B
:10457000FAE700BF0000014090F83C30012B35D035
:1045800010B4012380F83C30022380F83D300368EA
:104590005A689C6822F0700C0A6842EA0C025A6061
:1045A0000368134A934212D0B3F1804F0FD0A2F5A3
:1045B0007C4293420BD002F58062934207D002F511
:1045C0008062934203D002F59A32934204D124F0E0
:1045D00080044A6814439C60012380F83D30002326
:1045E00080F83C3018465DF8044B70470220704755
:1045F0000000014090F83C30012B22D0012380F8CC
:104600003C30CB6823F440738A68134323F48063FF
:104610004A68134323F400630A68134323F4805366
:104620000A69134323F400534A69134323F4804374
:10463000CA69134302685364002380F83C3018466B
:10464000704702207047000038B5044602681369BD
:1046500023F44053C1680B43136183680269134319
:1046600042691343C2691A430168CB6823F41643B5
:1046700023F00C031343CB600268536923F44073A7
:1046800081690B4353610368314A934206D002F5B6
:104690008062934202D0FFF7A5F901E0FFF7B2F97B
:1046A000E369B3F5004F29D00021031849411B18D5
:1046B00041F10001C90041EA5371DB001818636839
:1046C0004FEA83024FEA937341F10001FBF7A4FF25
:1046D000204DA5FB00325109642303FB11031B018C
:1046E0003233A5FB03235B0903F0F00202EB011256
:1046F00003F00F03216813448B6038BD00230218B8
:1047000043EB0301121841F10001C90041EA527163
:10471000D200101841F10001626892185B41FBF76A
:104720007BFF0C4DA5FB00325109642303FB1103F1
:10473000DB003233A5FB03235B095A0002F4F87255
:1047400002EB011203F00703216813448B60D4E7E6
:10475000001001401F85EB512DE9F84305460F4637
:1047600016469946DDF820802C68246837EA040351
:104770000CBF4FF0010C4FF0000CB4452DD1B8F137
:10478000FF3FF1D0B8F1000F05D0FDF79FFEA0EB81
:1047900009004045E8D92A6802F10C0353E8003FBC
:1047A00023F4D0730C3242E800310029F3D12A6897
:1047B00002F1140353E8003F23F00103143242E8EE
:1047C00000310029F3D1202385F83D3085F83E30B3
:1047D000002385F83C30032000E00020BDE8F8838A
:1047E00058B310B5044690F83D300BB3242384F839
:1047F0003D302268D36823F40053D3602046FFF78E
:1048000023FF2268136923F49043136122685369DC
:1048100023F02A0353612268D36843F40053D36022
:1048200000202064202384F83D3084F83E3010BD01
:1048300080F83C30FDF760FDD8E7012070472DE996
:10484000F04182B01E4690F83D30DBB2202B54D1AF
:1048500004460D469046002953D0002A53D090F8C4
:104860003C30012B51D0012380F83C3000230364FD
:10487000212380F83D30FDF729FE0746A4F8248067
:10488000A4F82680A368B3F5805F05D04FF0000838
:10489000002384F83C3012E0236913B14FF0000884
:1048A000F6E7A8460025F3E738F8023B2268C3F391
:1048B00008035360E28C92B2013A92B2E284E38C34
:1048C0009BB273B100963B46002280212046FFF741
:1048D00043FFE0B9002DE7D015F8012B23685A609B
:1048E000E8E700963B46002240212046FFF734FFD0
:1048F00078B9202384F83D3000E0022002B0BDE802
:10490000F0810120FAE70120F8E70220F6E7032012
:10491000F4E70320F2E7000008B50349034800F07C
:1049200049F8034B187008BD2C1A00201C00002009
:10493000301A0020024B01221A701878704700BF0D
:1049400018000020024B01221A701878704700BF2F
:104950001800002000207047002070470120704799
:10496000134B5B7A13BB10B5044603F0FF00104BEA
:1049700093F809C05FFA8CFC4FF0000E03F80CE0CE
:1049800093F809C003EB8C0CCCF804405C7A1C440F
:1049900022725A7A541CE4B25C7230320A703A23A2
:1049A0004B702F238B7081F803E010BD01207047FE
:1049B000341A002008B50022FFF7D2FF08BD00001E
:1049C000014B1868704700BF3000002070B50D4ED5
:1049D0000D4D761BB61006D0002455F8043B01346B
:1049E0009847A642F9D1094E094D761B06F01AF8F0
:1049F000B61006D0002455F8043B01349847A6426F
:104A0000F9D170BDD0B50008D0B50008D8B5000800
:104A1000D0B50008830730B548D0541E002A3FD0D7
:104A2000CAB2034601E0013C3AD303F8012B9D07CB
:104A3000F9D1032C2DD9CDB245EA05250F2C45EA35
:104A4000054536D9A4F1100222F00F0C03F1200E17
:104A5000E6444FEA121C03F1100242E9045542E910
:104A6000025510327245F8D10CF1010214F00C0F0E
:104A700003EB021204F00F0C13D0ACF1040323F08B
:104A800003030433134442F8045B9342FBD10CF05C
:104A900003042CB1CAB21C4403F8012B9C42FBD185
:104AA00030BD64461346002CF4D1F9E703461446A2
:104AB000BFE71A46A446E0E70EB410B59DB06FF00C
:104AC00000411FABCDE906010491094953F8042BBD
:104AD0000290084C0868019302A9059400F00CF8B4
:104AE000029B00221A701DB0BDE8104003B0704751
:104AF000300000200802FFFF2DE9F04F2DED0A8B5A
:104B0000CFB00C4691460AEE101A09930AEE900AAD
:104B100002F008FF036813931846FBF7F1FFA3891F
:104B200012901A0603D52369002B00F0A0874D468A
:104B30009FEDA57B2B78002425AACDE92344CDE960
:104B40001544CDE917448DED107B1AEE909A0E9422
:104B50002292904614940594002B00F0EC81AB4611
:104B600004E01BF8013F002B00F01A81252BF8D13F
:104B7000BBEB050640F018819BF80030002B00F0DD
:104B8000DA8100234FF0FF329BF801708DF86B3013
:104B900006930BF1010B04929A462B2420210BF172
:104BA000010BA7F120035A2B00F23C81DFE813F040
:104BB000D5023A013A01D0023A013A013A016A00BB
:104BC0003A013A016502FE023A017002E4023A013A
:104BD000DF025B005B005B005B005B005B005B0077
:104BE0005B005B003A013A013A013A013A013A01AD
:104BF0003A01D2013A0136028500D201D201D20136
:104C00003A013A013A013A01CB023A013A01C600AF
:104C10003A013A013A0140023A0175023A013A0179
:104C20004F073A013A013A013A013A013A013A0191
:104C30003A01D2013A0136028700D201D201D201F3
:104C4000BE02870080003A01B1023A019902C80011
:104C5000870280003A0140027D002A073A013A01AA
:104C60002E073A017D00A7F1300300221BF8017BDB
:104C700002EB820203EB4202A7F13003092BF5D9C4
:104C800006928EE7484602F04DFE43681793184699
:104C9000FBF736FF18900646484602F043FE83684D
:104CA00015932021002E40F0C2859BF8007076E716
:104CB0009BF800704AF0200A71E74AF0100A1AF0D7
:104CC000200F099B00F09A81073323F007031A464F
:104CD0005B6852F8084B09921E46002BC0F26B85A8
:104CE000049B013301F03A802AF08003039354EAD5
:104CF000060300F0E7840A2C76F1000380F0908729
:104D000030340123DDF80CA08DF8374107930DF204
:104D10003715049907989DF86B3081424FF00002D7
:104D2000B8BF0146089203910C920F920D92002B8E
:104D300000F08980039A0132039284E04AF0100A5D
:104D40001AF0200600F04B81099B073323F007037C
:104D50005E6853F8084B09932AF480630393002399
:104D600000228DF86B20049A551C00F026820399CE
:104D700021F0800A54EA060140F01D82002A41F029
:104D80002980002B40F0A484039B13F001030793B8
:104D900000F0428530238DF837310DF23715B8E732
:104DA000BBEB050600F0C780249B33442493239B70
:104DB0000133072BC8E90056239309DC08F10808E2
:104DC000059B33440593D7E6000000000000000077
:104DD0001AEE101A22AA484603F09EFC90B90DF173
:104DE0009408EDE71AEE101A22AA484603F094FC44
:104DF000002800F09180089B23B108991AEE900AD0
:104E000002F08AFC1AEE103A9B8913F0400F059BC2
:104E100018BF4FF0FF33059305984FB0BDEC0A8BD8
:104E2000BDE8F08F002F00F0868000238DF8D4704D
:104E30008DF86B300122CDE90723039204930C9384
:104E40000F930D9335AD1AF002020A9202D0039A25
:104E5000023203921AF084020B9205D1069A03994A
:104E6000561A002E00F30D83249C8BB1239B0DF169
:104E70006B0201330134C8F80020072B4FF0010208
:104E800024942393C8F8042000F3338308F108081E
:104E90000A9B83B1239B1BAA01330234C8F800206C
:104EA000072B4FF0020224942393C8F8042000F348
:104EB0002D8308F108080B9B802B00F00F82049BC8
:104EC000079A9E1A002E00F350821AF4807F40F059
:104ED000AB81079BC8F804301C44239BC8F80050E2
:104EE0000133072B2494239300F3BE8208F10808B2
:104EF0001AF0040F05D0069B039A9D1A002D00F3AB
:104F00001283DDE9053203998A42ACBF9B185B1816
:104F10000593002C7FF466AF00232393089B1BB1FD
:104F20000899484602F0F8FB0DF194085D462B788D
:104F3000002B7FF414AE249B002B3FF463AF1AEEDA
:104F4000104A1AEE101A1AEE900A22AA03F0E4FB95
:104F5000A3895AE7099B073323F00703B3EC027BCD
:104F60008DED107BDDE91012099322F000430BEE6A
:104F7000101A0BEE903A4FF0FF32B0EE4B9AF0EE73
:104F80006B9AA54B51EC190BFCF7C2F8002840F0C6
:104F90006784A14B51EC190B4FF0FF32FCF79AF8E4
:104FA000002840F05D84DDE9100100220023FCF7B9
:104FB00087F8002840F0A5879DF86B30974D984AF8
:104FC0002AF0800A0321472FC8BF15460022089205
:104FD0000391079104920C920F920D92A7E61AF09A
:104FE000100340F033841AF0400200F05B87099A06
:104FF00052F8044B09921E46A4B2ADE653F8044B96
:1050000009931AF0100F40F00E841AF0400F00F0D0
:10501000068444F3C036334624B25EE6099A002380
:1050200052F8041B8DF86B308DF8D410099201E70B
:10503000099C54F8045B00268DF86B60002D00F08D
:10504000D986049B5A1C00F046851A4631462846EC
:10505000FBF766FC0890002801F07A80089B049614
:10506000591B079121EAE1719DF86B300994039176
:1050700008960C960F960D9659E6099B53F8042B4B
:105080000692002A80F2C383069A0993524206923E
:105090009BF800704AF0040A81E54AF0100303937C
:1050A000039B13F0200600F07383099B073323F062
:1050B00007035E6853F8084B0993012350E6099BE8
:1050C00053F8044B099330234AF0020278278DF8F5
:1050D0006C30544B149303928DF86D7000260223AC
:1050E0003EE61AF0200F40F082841AF0100F40F0D4
:1050F00078861AF0400F40F04C871AF4007F00F0D9
:105100007086099B059953F8042B099311705D462D
:105110000DE79BF800706C2F03BF9BF801704AF0FD
:10512000200A0BF1010B4AF0100A38E59BF80070D9
:10513000682F03BF9BF801704AF4007A0BF1010B52
:105140004AF0400A2BE59BF800704AF0080A26E571
:105150009BF800704AF0010A21E59DF86B30002BA6
:105160007FF4A3AD9BF800708DF86B1017E59BF8EA
:1051700000704AF0800A12E55A4612F8017B2A2F85
:1051800001F0F381A7F13003092B934698BF002269
:1051900000F2F4871BF8017B02EB820203EB420270
:1051A000A7F13003092BF5D90492FAE49BF80070BB
:1051B0008DF86B40F3E4CDF80CA0012B3FF49BADD0
:1051C000022B4EAD12D1149A04F00F032409D35CC4
:1051D00005F8013D44EA0674360954EA0603F3D1A2
:1051E0004EAB5B1BDDF80CA0079392E504F00703C0
:1051F000E40844EA4674F608303354EA06012A46C5
:1052000005F8013DF2D10399C80700F14C824EAB7D
:105210005B1B8A4607937CE5FFFFEF7F14B2000813
:1052200018B2000824B20008652F40F3D780DDE9EA
:10523000100100220023FBF739FF002800F0B481A1
:10524000239BBC4AC8F80020013301340122072BFC
:1052500024942393C8F8042000F3848508F10808F7
:105260001C9B0E9A934280F2CD82129B139A1C448F
:10527000C8E90023239B24940133072B239300F3D5
:10528000E98308F108080E9B5D1E002D7FF730AE04
:10529000102D239B41F34781A74F0A9722461026E2
:1052A0001AEE104A05E008F10808103D102D40F3F1
:1052B000678501331032072BC8E90076CDE9233228
:1052C000F1DD22AA2146484603F026FA00287FF4A1
:1052D00092ADDDE923320DF19408E6E7069B039ACF
:1052E0009E1A002E7FF7EBAD102E239B41F34F80CB
:1052F00091490B9522461AEE105A0A910C4604E089
:10530000103E102E08F1080819DD0133103210216B
:10531000072BCDE92332C8F80040C8F80410EFDDB0
:1053200022AA294648460DF1940803F0F5F9002811
:105330007FF461AD103E102EDDE92332E5DC0B9DDC
:10534000144601330A9AC8F800203444072BCDE9EB
:105350002334C8F8046000F32F85049B079A9E1A33
:10536000002E08F108087FF7B0AD102E239B40F304
:10537000C48571480A90424621461AEE108A0446B6
:1053800004E0103E102E02F1080216DD0133103148
:105390001020072BCDE9233114605060F1DD22AAE3
:1053A0004146484603F0B8F900287FF424AD103E8A
:1053B000102EDDE9233125AAE8DC90460C460133A6
:1053C0000A9AC8F800203444072BCDE92334C8F8E2
:1053D000046000F3CF8108F1080876E50E9B012BED
:1053E00040F37C81239EC8F800500136013401232C
:1053F000072E24942396C8F8043000F3E78108F1BF
:105400000808129B139A01361C44072EC8E9002392
:10541000CDE9236400F3E88108F10808DDE9100113
:1054200000220023FBF742FE002840F076810E9B0D
:105430000136013B01351C44072EC8F80050239665
:10544000C8F80430249400F35A8108F10808169B28
:10545000C8F8043001361C44072E1EABCDE9236486
:10546000C8F800307FF742AD1AEE101A22AA48465B
:1054700003F052F900287FF4BEAC249C0DF194088F
:1054800036E5102EDDE9233222DD199510241AEEBF
:10549000105A04E0103E102E08F1080817DD013301
:1054A00026491032072BC8E90014CDE92332F1DD7B
:1054B00022AA294648460DF1940803F02DF9002848
:1054C0007FF499AC103E102EDDE92332E7DC199D04
:1054D000C8F804600133B418072B184AC8F8002034
:1054E000CDE9233400F3E1839DF86B3008F108081F
:1054F000BBE41AEE101A22AA484603F00DF9002860
:105500007FF479AC249C0DF19408C1E41AEE101AD2
:1055100022AA484603F000F900287FF46CAC249CD2
:105520000DF19408C7E4102D239B26DD1AEE107AA6
:1055300010260AE054B2000868B2000858B2000809
:10554000103D102D08F1080817DD0133C24A103450
:10555000072BC8E90026CDE92334F1DD22AA39461C
:1055600048460DF1940803F0D7F800287FF443ACC7
:10557000103D102DDDE92334E7DC0133B64AC8F8CD
:1055800004502C44072BCDE92334C8F800207FF7C2
:10559000B8AC1AEE101A22AA484603F0BDF800284B
:1055A0007FF429AC249CACE41C9A002A40F3968337
:1055B000DDE90D739F42A8BF1F46002F0BDD239B23
:1055C00001333C44072BC8E900572494239300F38C
:1055D0005C8508F108080D9E002FA8BFF61B002E61
:1055E00000F353820D9B1AF4806F2B44079340F015
:1055F00083821C9B0E9A934203DB1AF0010F00F08A
:10560000B884129A13991444C8E90012239A249476
:105610000132072A239200F3768508F108080E9AD2
:105620000799AE18761AD51AAE42A8BF2E46002E9C
:105630000DDD239BC8F8001001333444072BC8F854
:1056400004602494239300F39D8508F10808002E3C
:10565000A8BFAD1B002D7FF74BAC102D239B40F353
:1056600062877E4F0A97224610261AEE104A05E0FE
:1056700008F10808103D102D40F3828301331032E9
:10568000072BC8E90076CDE92332F1DD22AA2146B5
:10569000484603F041F800287FF4ADABDDE9233242
:1056A0000DF19408E6E7302B3FF49AAD3023023A2F
:1056B00005F8013C4EAB9B1ADDF80CA0079315468C
:1056C000FFF727BB049B002B7FF41AABDDF80CA07F
:1056D0000023049307934EADFFF71BBB1AF0010F95
:1056E0007FF480AE239EC8F80050013601340123B8
:1056F000072E24942396C8F804307FF7A6AE1AEE3E
:10570000101A22AA484603F007F800287FF473AB6A
:10571000DDE923640DF1940899E60E9B5D1E002DD2
:105720007FF795AE102D40F315874C4ACDF810A0A9
:1057300023461AEE10AA0A921027144605E008F133
:105740000808103D102D40F39D8301361033072EBD
:10575000C8E90047CDE92363F1DD22AA5146484656
:1057600002F0DAFF00287FF446ABDDE923630DF198
:105770009408E6E71AEE101A22AA484602F0CCFF77
:1057800000287FF438AB249C0DF19408FFF79DBBF3
:10579000039B13F0100340F02381039A12F04002A0
:1057A00000F09B83099A52F8044B09921E46A4B25A
:1057B0000123FFF7D5BA2D2364428DF86B3066EBD9
:1057C0004606CDF80CA00123FFF7CDBA1AEE101A49
:1057D00022AA484602F0A0FF00287FF40CABDDE9C6
:1057E00023640DF194080CE61AEE101A22AA48461A
:1057F00002F092FF00287FF4FEAADDE923640DF198
:1058000094080BE61AF0010F3FF472AB2DE59BF8FC
:1058100000700993FFF7C3B94EADFFF77ABA1AF4D7
:10582000007F40F0B083E6173346FFF756BA159B6A
:10583000002B3FF43AAA159B1B78002B3FF435AAA6
:105840009BF800704AF4806AFFF7A9B9099B53F8E6
:10585000044B0993FFF780BA58B2000868B20008F9
:10586000DDE9100102460B46FBF752FC002840F030
:10587000C385612F00F08685412F00F09484049B3E
:10588000013327F02003039300F0B083472B00F08F
:105890008285DDE910014AF48072002907924FF0F9
:1058A0000003C0F2248541EC180B0A930893039B74
:1058B000462B00F0F883452B00F04E85B0EE480AE9
:1058C000F0EE680A20AB01931DAB0093049A1CAB69
:1058D0000221484600F01CFF039B472B054640F081
:1058E00069861AF0010F5646DDF81CA040F00B85C2
:1058F000209B5B1B0E93039B472B00F08B83039B2A
:10590000462B00F00F841C9B0D930D9B039A013BCB
:10591000412A1C9300F0D785FAB20021002BB8BFB2
:105920000D9B8DF87820BABFC3F101032D222B22E5
:10593000092B8DF8792040F3B7850DF18704DFF846
:1059400098C3224610468CFB0321DA17C2EBA10252
:1059500002EB8201A3EB4101303100F8011C194632
:105960006329134600F1FF32ECDC3033D9B2831ED9
:105970009C4202F8011C40F2048613460DF17A02A3
:1059800001E013F8011B02F8011B9C42F9D10DF153
:1059900089030DF17A021B1A13441EAA9B1A16934F
:1059A0000E9B169A012B1A44079240F3B785079B6A
:1059B000129A13440793079A002326F4806622EA7A
:1059C000E27246F4807A0C9303920F930D930A9B34
:1059D000002B40F0458304939DF86B30FFF7A7B987
:1059E000099B53F8044B09930123FFF7B9B9099BAD
:1059F000059853F8041B0993C217C1E900025D46DC
:105A0000FFF795BACDF80CA0FFF74ABBAF4B149344
:105A10001AF0200600F0EF80099B073323F00703FC
:105A20005E6853F8084B09931AF0010F09D054EA45
:105A3000060306D030238DF86D704AF0020A8DF807
:105A40006C302AF4806303930223FFF789B9A04BDB
:105A50001493DDE71AEE101A22AA484602F05CFE03
:105A600000287FF4C8A9249C0DF194080BE41AEED9
:105A7000900A402101F062FF20602061002800F0C0
:105A8000848540236361FFF752B8102E239B40F3B7
:105A9000698590480A90424621461AEE108A1027DE
:105AA000044604E00832103E102E40F32F820133EA
:105AB0001031072BC2E90047CDE92331F2DD22AADC
:105AC0004146484602F028FE00287FF494A9DDE90B
:105AD000233125AAE7E7284604960994FBF710F836
:105AE00020EAE0719DF86B300790039108960C96C0
:105AF0000F960D96FFF71BB90E9BCDF828B0DDF879
